{
  "contractName": "ContractManager",
  "abi": [
    {
      "constant": true,
      "inputs": [
        {
          "name": "_name",
          "type": "string"
        }
      ],
      "name": "getContract",
      "outputs": [
        {
          "name": "_contractAddress",
          "type": "address"
        }
      ],
      "payable": false,
      "type": "function"
    },
    {
      "constant": false,
      "inputs": [
        {
          "name": "_name",
          "type": "string"
        },
        {
          "name": "_contractAddress",
          "type": "address"
        }
      ],
      "name": "updateContract",
      "outputs": [],
      "payable": false,
      "type": "function"
    },
    {
      "constant": true,
      "inputs": [],
      "name": "owner",
      "outputs": [
        {
          "name": "",
          "type": "address"
        }
      ],
      "payable": false,
      "type": "function"
    },
    {
      "constant": false,
      "inputs": [
        {
          "name": "_name",
          "type": "string"
        }
      ],
      "name": "removeContract",
      "outputs": [],
      "payable": false,
      "type": "function"
    },
    {
      "constant": false,
      "inputs": [
        {
          "name": "_name",
          "type": "string"
        },
        {
          "name": "_contractAddress",
          "type": "address"
        }
      ],
      "name": "addContract",
      "outputs": [],
      "payable": false,
      "type": "function"
    },
    {
      "constant": false,
      "inputs": [
        {
          "name": "newOwner",
          "type": "address"
        }
      ],
      "name": "transferOwnership",
      "outputs": [],
      "payable": false,
      "type": "function"
    },
    {
      "anonymous": false,
      "inputs": [
        {
          "indexed": true,
          "name": "name",
          "type": "string"
        },
        {
          "indexed": true,
          "name": "contractAddress",
          "type": "address"
        }
      ],
      "name": "AddContract",
      "type": "event"
    },
    {
      "anonymous": false,
      "inputs": [
        {
          "indexed": true,
          "name": "name",
          "type": "string"
        }
      ],
      "name": "RemoveContract",
      "type": "event"
    },
    {
      "anonymous": false,
      "inputs": [
        {
          "indexed": true,
          "name": "name",
          "type": "string"
        },
        {
          "indexed": true,
          "name": "contractAddress",
          "type": "address"
        }
      ],
      "name": "UpdateContract",
      "type": "event"
    }
  ],
  "bytecode": "0x60606040525b60008054600160a060020a03191633600160a060020a03161790555b5b610925806100316000396000f300606060405236156100755763ffffffff7c010000000000000000000000000000000000000000000000000000000060003504166335817773811461007a578063697a60b3146100e75780638da5cb5b1461014557806397623b5814610174578063bf5b6016146101c7578063f2fde38b14610225575b600080fd5b341561008557600080fd5b6100cb60046024813581810190830135806020601f8201819004810201604051908101604052818152929190602084018383808284375094965061024695505050505050565b604051600160a060020a03909116815260200160405180910390f35b34156100f257600080fd5b61014360046024813581810190830135806020601f8201819004810201604051908101604052818152929190602084018383808284375094965050509235600160a060020a0316925061033d915050565b005b341561015057600080fd5b6100cb610509565b604051600160a060020a03909116815260200160405180910390f35b341561017f57600080fd5b61014360046024813581810190830135806020601f8201819004810201604051908101604052818152929190602084018383808284375094965061051895505050505050565b005b34156101d257600080fd5b61014360046024813581810190830135806020601f8201819004810201604051908101604052818152929190602084018383808284375094965050509235600160a060020a031692506106d1915050565b005b341561023057600080fd5b610143600160a060020a036004351661089c565b005b60006001826040518082805190602001908083835b6020831061027b57805182525b601f19909201916020918201910161025b565b6001836020036101000a03801982511681845116808217855250505050505090500191505090815260200160405190819003902054600160a060020a031615156102c457600080fd5b6001826040518082805190602001908083835b602083106102f757805182525b601f1990920191602091820191016102d7565b6001836020036101000a03801982511681845116808217855250505050505090500191505090815260200160405190819003902054600160a060020a031690505b919050565b60005433600160a060020a0390811691161461035857600080fd5b6001826040518082805190602001908083835b6020831061038b57805182525b601f19909201916020918201910161036b565b6001836020036101000a03801982511681845116808217855250505050505090500191505090815260200160405190819003902054600160a060020a031615156103d457600080fd5b600160a060020a03811615156103e957600080fd5b806001836040518082805190602001908083835b6020831061041d57805182525b601f1990920191602091820191016103fd565b6001836020036101000a038019825116818451168082178552505050505050905001915050908152602001604051908190039020805473ffffffffffffffffffffffffffffffffffffffff1916600160a060020a039283161790558116826040518082805190602001908083835b602083106104ab57805182525b601f19909201916020918201910161048b565b6001836020036101000a038019825116818451161790925250505091909101925060409150505180910390207fbc3033706311de40ef10e265f8dd3d699529b780126a1c727cb205cc798cbbab60405160405180910390a35b5b5050565b600054600160a060020a031681565b60005433600160a060020a0390811691161461053357600080fd5b6001816040518082805190602001908083835b6020831061056657805182525b601f199092019160209182019101610546565b6001836020036101000a03801982511681845116808217855250505050505090500191505090815260200160405190819003902054600160a060020a031615156105af57600080fd5b60006001826040518082805190602001908083835b602083106105e457805182525b601f1990920191602091820191016105c4565b6001836020036101000a038019825116818451168082178552505050505050905001915050908152602001604051908190039020805473ffffffffffffffffffffffffffffffffffffffff1916600160a060020a0392909216919091179055806040518082805190602001908083835b6020831061067457805182525b601f199092019160209182019101610654565b6001836020036101000a038019825116818451161790925250505091909101925060409150505180910390207f8a547437717d20a29fef4a20105caf72c86a46e3f9ba577c14f597f04de5470d60405160405180910390a25b5b50565b60005433600160a060020a039081169116146106ec57600080fd5b6001826040518082805190602001908083835b6020831061071f57805182525b601f1990920191602091820191016106ff565b6001836020036101000a03801982511681845116808217855250505050505090500191505090815260200160405190819003902054600160a060020a03161561076757600080fd5b600160a060020a038116151561077c57600080fd5b806001836040518082805190602001908083835b602083106107b057805182525b601f199092019160209182019101610790565b6001836020036101000a038019825116818451168082178552505050505050905001915050908152602001604051908190039020805473ffffffffffffffffffffffffffffffffffffffff1916600160a060020a039283161790558116826040518082805190602001908083835b6020831061083e57805182525b601f19909201916020918201910161081e565b6001836020036101000a038019825116818451161790925250505091909101925060409150505180910390207f098e3bb0770728092b024bce589251930f14dfc9036a057a3202c380b283321160405160405180910390a35b5b5050565b60005433600160a060020a039081169116146108b757600080fd5b600160a060020a03811615156108cc57600080fd5b6000805473ffffffffffffffffffffffffffffffffffffffff1916600160a060020a0383161790555b5b505600a165627a7a723058201eac4a32de93a6556cfb99015ae4715c48b1b5b9db9579f6b167fb02f176776f0029",
  "source": "pragma solidity ^0.4.15;\n\nimport \"./Ownable.sol\";\n\ncontract ContractManager is Ownable {\n  mapping(string => address) contracts;\n\n  event AddContract(string indexed name, address indexed contractAddress);\n  event RemoveContract(string indexed name);\n  event UpdateContract(string indexed name, address indexed contractAddress);\n\n  function addContract(string _name, address _contractAddress) public onlyOwner {\n    require(contracts[_name] == 0);\n    require(_contractAddress != 0x0);\n    contracts[_name] = _contractAddress;\n    AddContract(_name, _contractAddress);\n\t}\n\n\tfunction removeContract(string _name) public onlyOwner {\n\t\trequire(contracts[_name] != 0);\n\t\tcontracts[_name] = 0;\n    RemoveContract(_name);\n\t}\n\n\tfunction updateContract(string _name, address _contractAddress) public onlyOwner {\n\t\trequire(contracts[_name] != 0);\n    require(_contractAddress != 0x0);\n\t\tcontracts[_name] = _contractAddress;\n    UpdateContract(_name, _contractAddress);\n\t}\n\n\tfunction getContract(string _name) public constant returns (address _contractAddress) {\n\t\trequire(contracts[_name] != 0);\n\t\t_contractAddress = contracts[_name];\n\t}\n}\n\n",
  "sourcePath": "/Users/iisaint/Workspace/Solar-ICO/sola-token/contracts/ContractManager.sol",
  "schemaVersion": "1.0.0",
  "updatedAt": "2017-11-13T08:41:48.217Z"
}