{
  "contractName": "ProfitSharing",
  "abi": [
    {
      "constant": false,
      "inputs": [
        {
          "name": "_amount",
          "type": "uint256"
        }
      ],
      "name": "depositDividend",
      "outputs": [],
      "payable": false,
      "type": "function"
    },
    {
      "constant": false,
      "inputs": [
        {
          "name": "_from",
          "type": "address"
        },
        {
          "name": "_to",
          "type": "address"
        },
        {
          "name": "_amount",
          "type": "uint256"
        }
      ],
      "name": "onTransfer",
      "outputs": [
        {
          "name": "",
          "type": "bool"
        }
      ],
      "payable": false,
      "type": "function"
    },
    {
      "constant": false,
      "inputs": [
        {
          "name": "_controller",
          "type": "address"
        }
      ],
      "name": "changeSNTWController",
      "outputs": [],
      "payable": false,
      "type": "function"
    },
    {
      "constant": true,
      "inputs": [
        {
          "name": "",
          "type": "uint256"
        }
      ],
      "name": "dividends",
      "outputs": [
        {
          "name": "blockNumber",
          "type": "uint256"
        },
        {
          "name": "timestamp",
          "type": "uint256"
        },
        {
          "name": "amount",
          "type": "uint256"
        },
        {
          "name": "claimedAmount",
          "type": "uint256"
        },
        {
          "name": "totalSupply",
          "type": "uint256"
        }
      ],
      "payable": false,
      "type": "function"
    },
    {
      "constant": true,
      "inputs": [],
      "name": "owner",
      "outputs": [
        {
          "name": "",
          "type": "address"
        }
      ],
      "payable": false,
      "type": "function"
    },
    {
      "constant": false,
      "inputs": [
        {
          "name": "_dividendIndex",
          "type": "uint256"
        }
      ],
      "name": "claimDividend",
      "outputs": [],
      "payable": false,
      "type": "function"
    },
    {
      "constant": false,
      "inputs": [
        {
          "name": "_controller",
          "type": "address"
        }
      ],
      "name": "changeSTTWController",
      "outputs": [],
      "payable": false,
      "type": "function"
    },
    {
      "constant": false,
      "inputs": [
        {
          "name": "_owner",
          "type": "address"
        },
        {
          "name": "_spender",
          "type": "address"
        },
        {
          "name": "_amount",
          "type": "uint256"
        }
      ],
      "name": "onApprove",
      "outputs": [
        {
          "name": "",
          "type": "bool"
        }
      ],
      "payable": false,
      "type": "function"
    },
    {
      "constant": false,
      "inputs": [
        {
          "name": "newOwner",
          "type": "address"
        }
      ],
      "name": "transferOwnership",
      "outputs": [],
      "payable": false,
      "type": "function"
    },
    {
      "constant": false,
      "inputs": [
        {
          "name": "_owner",
          "type": "address"
        }
      ],
      "name": "proxyPayment",
      "outputs": [
        {
          "name": "",
          "type": "bool"
        }
      ],
      "payable": true,
      "type": "function"
    },
    {
      "constant": true,
      "inputs": [],
      "name": "rewardToken",
      "outputs": [
        {
          "name": "",
          "type": "address"
        }
      ],
      "payable": false,
      "type": "function"
    },
    {
      "constant": true,
      "inputs": [],
      "name": "token",
      "outputs": [
        {
          "name": "",
          "type": "address"
        }
      ],
      "payable": false,
      "type": "function"
    },
    {
      "inputs": [
        {
          "name": "_SNTW",
          "type": "address"
        },
        {
          "name": "_STTW",
          "type": "address"
        }
      ],
      "payable": false,
      "type": "constructor"
    },
    {
      "anonymous": false,
      "inputs": [
        {
          "indexed": true,
          "name": "_depositor",
          "type": "address"
        },
        {
          "indexed": false,
          "name": "_blockNumber",
          "type": "uint256"
        },
        {
          "indexed": false,
          "name": "_amount",
          "type": "uint256"
        },
        {
          "indexed": false,
          "name": "_totalSupply",
          "type": "uint256"
        },
        {
          "indexed": false,
          "name": "_dividendIndex",
          "type": "uint256"
        }
      ],
      "name": "DividendDeposited",
      "type": "event"
    },
    {
      "anonymous": false,
      "inputs": [
        {
          "indexed": true,
          "name": "_claimer",
          "type": "address"
        },
        {
          "indexed": false,
          "name": "_dividendIndex",
          "type": "uint256"
        },
        {
          "indexed": false,
          "name": "_claim",
          "type": "uint256"
        }
      ],
      "name": "DividendClaimed",
      "type": "event"
    }
  ],
  "bytecode": "0x6060604052341561000f57600080fd5b604051604080610a8983398101604052808051919060200180519150505b5b60008054600160a060020a03191633600160a060020a03161790555b81600160a060020a038116151561006057600080fd5b81600160a060020a038116151561007657600080fd5b60018054600160a060020a03808716600160a060020a03199283161790925560028054928616929091169190911790555b5b505b5050505b6109cc806100bd6000396000f3006060604052361561009e5763ffffffff60e060020a60003504166313e2dfc181146100a35780634a393149146100bb578063745ab793146100f7578063814b3fe0146101185780638da5cb5b146101605780639abd35721461018f578063b9572e20146101a7578063da682aeb146100bb578063f2fde38b14610204578063f48c305414610225578063f7c618c11461024d578063fc0c546a1461027c575b600080fd5b34156100ae57600080fd5b6100b96004356102ab565b005b34156100c657600080fd5b6100e3600160a060020a0360043581169060243516604435610449565b604051901515815260200160405180910390f35b341561010257600080fd5b6100b9600160a060020a0360043516610453565b005b341561012357600080fd5b61012e6004356104fa565b604051808681526020018581526020018481526020018381526020018281526020019550505050505060405180910390f35b341561016b57600080fd5b61017361053b565b604051600160a060020a03909116815260200160405180910390f35b341561019a57600080fd5b6100b960043561054a565b005b34156101b257600080fd5b6100b9600160a060020a0360043516610774565b005b34156100c657600080fd5b6100e3600160a060020a0360043581169060243516604435610449565b604051901515815260200160405180910390f35b341561020f57600080fd5b6100b9600160a060020a0360043516610825565b005b6100e3600160a060020a0360043516610882565b604051901515815260200160405180910390f35b341561025857600080fd5b61017361088e565b604051600160a060020a03909116815260200160405180910390f35b341561028757600080fd5b61017361089d565b604051600160a060020a03909116815260200160405180910390f35b600080548190819033600160a060020a039081169116146102cb57600080fd5b600154600160a060020a031663981b24d06102e46108ac565b60006040516020015260405160e060020a63ffffffff84160281526004810191909152602401602060405180830381600087803b151561032357600080fd5b6102c65a03f1151561033457600080fd5b5050506040518051600354909450925061035f905060016103536108ac565b9063ffffffff6108b116565b9050600380548060010182816103759190610932565b916000526020600020906006020160005b60a0604051908101604052808581526020016103a06108c8565b81526020810189905260006040820152606001879052919050815181556020820151816001015560408201518160020155606082015181600301556080820151816004015550505033600160a060020a03167fcbf89ed8b63aa0a8f6e744e4023554f41dc830838d138eb2d4099cbcfe4a0831828686866040518085815260200184815260200183815260200182815260200194505050505060405180910390a25b5b50505050565b60015b9392505050565b60005433600160a060020a0390811691161461046e57600080fd5b80600160a060020a038116151561048457600080fd5b600154600160a060020a0316633cebb8238360405160e060020a63ffffffff8416028152600160a060020a039091166004820152602401600060405180830381600087803b15156104d457600080fd5b6102c65a03f115156104e557600080fd5b50505081600160a060020a0316ff5b5b505b50565b600380548290811061050857fe5b906000526020600020906006020160005b5080546001820154600283015460038401546004909401549294509092909185565b600054600160a060020a031681565b600354600090819081908490811061056157600080fd5b600380548690811061056f57fe5b906000526020600020906006020160005b50600160a060020a033316600090815260058201602052604090205490945060ff16156105ac57600080fd5b6001548454600160a060020a0390911690634ee2cd7e90339060006040516020015260405160e060020a63ffffffff8516028152600160a060020a0390921660048301526024820152604401602060405180830381600087803b151561061157600080fd5b6102c65a03f1151561062257600080fd5b505050604051805190509250610659846004015461064d8660020154866108cd90919063ffffffff16565b9063ffffffff6108fc16565b600160a060020a03331660009081526005860160205260409020805460ff191660011790556003850154909250610696908363ffffffff61091816565b6003850155600082111561076b57600254600160a060020a031663827f32c0338460006040516020015260405160e060020a63ffffffff8516028152600160a060020a0390921660048301526024820152604401602060405180830381600087803b151561070357600080fd5b6102c65a03f1151561071457600080fd5b50505060405180519050151561072657fe5b33600160a060020a03167fa1c93169468f71ef26f4adf10bca8df21460f11843a01ed9c69da306e33c3847868460405191825260208201526040908101905180910390a25b5b5b5050505050565b60005433600160a060020a0390811691161461078f57600080fd5b80600160a060020a03811615156107a557600080fd5b600254600160a060020a0316633cebb8238360405160e060020a63ffffffff8416028152600160a060020a039091166004820152602401600060405180830381600087803b15156104d457600080fd5b6102c65a03f115156104e557600080fd5b50505081600160a060020a0316ff5b5b505b50565b60015b9392505050565b60005433600160a060020a0390811691161461084057600080fd5b600160a060020a038116151561085557600080fd5b6000805473ffffffffffffffffffffffffffffffffffffffff1916600160a060020a0383161790555b5b50565b6000806000fd5b919050565b600254600160a060020a031681565b600154600160a060020a031681565b435b90565b6000828211156108bd57fe5b508082035b92915050565b425b90565b60008282028315806108e957508284828115156108e657fe5b04145b15156108f157fe5b8091505b5092915050565b600080828481151561090a57fe5b0490508091505b5092915050565b6000828201838110156108f157fe5b8091505b5092915050565b81548183558181151161095e5760060281600602836000526020600020918201910161095e9190610964565b5b505050565b6108ae91905b80821115610999576000808255600182018190556002820181905560038201819055600482015560060161096a565b5090565b905600a165627a7a72305820698ed1519ba929954e0339424d798c23e24cdb52d5184f425ee89ff6b4eb82c80029",
  "source": "pragma solidity ^0.4.15;\n\nimport \"./SNTW.sol\";\nimport \"./STTW.sol\";\nimport \"./SafeMath.sol\";\nimport \"./Ownable.sol\";\n\ncontract ProfitSharing is TokenController, Ownable {\n  using SafeMath for uint;\n\n  // The token used to calculate dividend amount \n  SNTW public token;\n  // The token used to be dividend\n  STTW public rewardToken;\n\n  struct Dividend {\n    uint256 blockNumber;\n    uint256 timestamp;\n    uint256 amount;\n    uint256 claimedAmount;\n    uint256 totalSupply;\n    mapping(address => bool) claimed;\n  }\n\n  Dividend[] public dividends;\n\n  event DividendDeposited(address indexed _depositor, uint256 _blockNumber, uint256 _amount, uint256 _totalSupply, uint256 _dividendIndex);\n  event DividendClaimed(address indexed _claimer, uint256 _dividendIndex, uint256 _claim);\n\n  function ProfitSharing(address _SNTW, address _STTW) \n    nonZeroAddress(_SNTW) \n    nonZeroAddress(_STTW)\n  {\n    token = SNTW(_SNTW);\n    rewardToken = STTW(_STTW);\n  }\n\n  function depositDividend(uint256 _amount) onlyOwner {\n    uint256 currentSupply = token.totalSupplyAt(getBlockNumber());\n    uint256 dividendIndex = dividends.length;\n    uint256 blockNumber = getBlockNumber().sub(1);\n    dividends.push(\n      Dividend(\n        blockNumber,\n        getNow(),\n        _amount,\n        0,\n        currentSupply\n      )\n    );\n\n    DividendDeposited(msg.sender, blockNumber, _amount, currentSupply, dividendIndex);\n  }\n\n  function claimDividend(uint256 _dividendIndex) public validDividendIndex(_dividendIndex) {\n    Dividend storage dividend = dividends[_dividendIndex];\n    require(dividend.claimed[msg.sender] == false);\n\n    uint256 balance = token.balanceOfAt(msg.sender, dividend.blockNumber);\n    uint256 amount = balance.mul(dividend.amount).div(dividend.totalSupply);\n    dividend.claimed[msg.sender] = true;\n    dividend.claimedAmount = dividend.claimedAmount.add(amount);\n    if (amount > 0) {\n      assert(rewardToken.generateTokens(msg.sender, amount));\n      DividendClaimed(msg.sender, _dividendIndex, amount);\n    }\n  }\n\n  function getBlockNumber() internal constant returns(uint) {\n    return block.number;\n  }\n\n  function getNow() internal constant returns(uint) {\n    return now;\n  }\n\n/////////////////\n// Controller interface\n/////////////////\n  function proxyPayment(address _owner) payable public returns (bool) {\n    revert();\n    return false;\n  }\n\n  function onTransfer(address _from, address _to, uint _amount) public returns (bool) {\n    return true;\n  }\n\n  function onApprove(address _owner, address _spender, uint _amount) public returns (bool) {\n    return true;\n  }\n\n  function changeSNTWController(address _controller) public onlyOwner nonZeroAddress(_controller) {\n    token.changeController(_controller);\n    selfdestruct(_controller);\n  }\n\n  function changeSTTWController(address _controller) public onlyOwner nonZeroAddress(_controller) {\n    rewardToken.changeController(_controller);\n    selfdestruct(_controller);\n  }\n\n  modifier nonZeroAddress(address x) {\n    require(x != 0x0);\n    _;\n  }\n\n  modifier validDividendIndex(uint256 _dividendIndex) {\n    require(_dividendIndex < dividends.length);\n    _;\n  }\n}",
  "sourcePath": "/Users/iisaint/Workspace/Solar-ICO/sola-token/contracts/ProfitSharing.sol",
  "schemaVersion": "1.0.0",
  "updatedAt": "2017-11-13T08:41:48.281Z"
}