{
  "contractName": "SolaCrowsale",
  "abi": [
    {
      "constant": true,
      "inputs": [],
      "name": "endBlock",
      "outputs": [
        {
          "name": "",
          "type": "uint256"
        }
      ],
      "payable": false,
      "type": "function"
    },
    {
      "constant": true,
      "inputs": [],
      "name": "cap",
      "outputs": [
        {
          "name": "",
          "type": "uint256"
        }
      ],
      "payable": false,
      "type": "function"
    },
    {
      "constant": true,
      "inputs": [],
      "name": "weiRaised",
      "outputs": [
        {
          "name": "",
          "type": "uint256"
        }
      ],
      "payable": false,
      "type": "function"
    },
    {
      "constant": true,
      "inputs": [],
      "name": "startBlock",
      "outputs": [
        {
          "name": "",
          "type": "uint256"
        }
      ],
      "payable": false,
      "type": "function"
    },
    {
      "constant": false,
      "inputs": [
        {
          "name": "_from",
          "type": "address"
        },
        {
          "name": "_to",
          "type": "address"
        },
        {
          "name": "_amount",
          "type": "uint256"
        }
      ],
      "name": "onTransfer",
      "outputs": [
        {
          "name": "",
          "type": "bool"
        }
      ],
      "payable": false,
      "type": "function"
    },
    {
      "constant": false,
      "inputs": [],
      "name": "finalizeSale",
      "outputs": [],
      "payable": false,
      "type": "function"
    },
    {
      "constant": true,
      "inputs": [],
      "name": "solaMultisig",
      "outputs": [
        {
          "name": "",
          "type": "address"
        }
      ],
      "payable": false,
      "type": "function"
    },
    {
      "constant": true,
      "inputs": [],
      "name": "profitSharing",
      "outputs": [
        {
          "name": "",
          "type": "address"
        }
      ],
      "payable": false,
      "type": "function"
    },
    {
      "constant": true,
      "inputs": [],
      "name": "minInvestment",
      "outputs": [
        {
          "name": "",
          "type": "uint256"
        }
      ],
      "payable": false,
      "type": "function"
    },
    {
      "constant": true,
      "inputs": [],
      "name": "owner",
      "outputs": [
        {
          "name": "",
          "type": "address"
        }
      ],
      "payable": false,
      "type": "function"
    },
    {
      "constant": true,
      "inputs": [],
      "name": "saleFinalized",
      "outputs": [
        {
          "name": "",
          "type": "bool"
        }
      ],
      "payable": false,
      "type": "function"
    },
    {
      "constant": false,
      "inputs": [
        {
          "name": "_owner",
          "type": "address"
        },
        {
          "name": "_spender",
          "type": "address"
        },
        {
          "name": "_amount",
          "type": "uint256"
        }
      ],
      "name": "onApprove",
      "outputs": [
        {
          "name": "",
          "type": "bool"
        }
      ],
      "payable": false,
      "type": "function"
    },
    {
      "constant": true,
      "inputs": [
        {
          "name": "_blockNumber",
          "type": "uint256"
        }
      ],
      "name": "getPrice",
      "outputs": [
        {
          "name": "",
          "type": "uint256"
        }
      ],
      "payable": false,
      "type": "function"
    },
    {
      "constant": false,
      "inputs": [
        {
          "name": "newOwner",
          "type": "address"
        }
      ],
      "name": "transferOwnership",
      "outputs": [],
      "payable": false,
      "type": "function"
    },
    {
      "constant": false,
      "inputs": [
        {
          "name": "_owner",
          "type": "address"
        }
      ],
      "name": "proxyPayment",
      "outputs": [
        {
          "name": "",
          "type": "bool"
        }
      ],
      "payable": true,
      "type": "function"
    },
    {
      "constant": true,
      "inputs": [],
      "name": "token",
      "outputs": [
        {
          "name": "",
          "type": "address"
        }
      ],
      "payable": false,
      "type": "function"
    },
    {
      "inputs": [
        {
          "name": "_startBlock",
          "type": "uint256"
        },
        {
          "name": "_endBlock",
          "type": "uint256"
        },
        {
          "name": "_solaMultisig",
          "type": "address"
        },
        {
          "name": "_tokenAddress",
          "type": "address"
        },
        {
          "name": "_profitSharing",
          "type": "address"
        }
      ],
      "payable": false,
      "type": "constructor"
    },
    {
      "payable": true,
      "type": "fallback"
    },
    {
      "anonymous": false,
      "inputs": [
        {
          "indexed": true,
          "name": "holder",
          "type": "address"
        },
        {
          "indexed": false,
          "name": "antAmount",
          "type": "uint256"
        }
      ],
      "name": "NewPresaleAllocation",
      "type": "event"
    },
    {
      "anonymous": false,
      "inputs": [
        {
          "indexed": true,
          "name": "holder",
          "type": "address"
        },
        {
          "indexed": false,
          "name": "sntwAmount",
          "type": "uint256"
        },
        {
          "indexed": false,
          "name": "etherAmount",
          "type": "uint256"
        }
      ],
      "name": "NewBuyer",
      "type": "event"
    }
  ],
  "bytecode": "0x606060405260006005556006805460ff1916905569021e19e0c9bab2400000600755341561002c57600080fd5b60405160a080610ad483398101604052808051919060200180519190602001805191906020018051919060200180519150505b5b60008054600160a060020a03191633600160a060020a03161790555b82600160a060020a038116151561009257600080fd5b82600160a060020a03811615156100a857600080fd5b82600160a060020a03811615156100be57600080fd5b6100d36401000000006108a561015382021704565b8810156100df57600080fd5b878710156100ec57600080fd5b6002889055600387905560048054600160a060020a03808916600160a060020a031992831617909255600180548884169216919091179055600680549186166101000261010060a860020a03199092169190911790555b5b505b505b505050505050610158565b435b90565b61096d806101676000396000f300606060405236156100ca5763ffffffff60e060020a600035041663083c632381146100ec578063355274ea146101115780634042b66f1461013657806348cd4cb11461015b5780634a3931491461018057806358a687ec146101bc5780637740aeb5146101d15780638832243a146102005780638ac2c6801461022f5780638da5cb5b14610254578063a5f0dea214610283578063da682aeb146102aa578063e7572230146102e6578063f2fde38b1461030e578063f48c30541461032f578063fc0c546a14610357575b5b6706f05b59d3b200003410156100e057600080fd5b6100e933610386565b5b005b34156100f757600080fd5b6100ff61051b565b60405190815260200160405180910390f35b341561011c57600080fd5b6100ff610521565b60405190815260200160405180910390f35b341561014157600080fd5b6100ff610527565b60405190815260200160405180910390f35b341561016657600080fd5b6100ff61052d565b60405190815260200160405180910390f35b341561018b57600080fd5b6101a8600160a060020a0360043581169060243516604435610533565b604051901515815260200160405180910390f35b34156101c757600080fd5b6100e9610554565b005b34156101dc57600080fd5b6101e461070a565b604051600160a060020a03909116815260200160405180910390f35b341561020b57600080fd5b6101e4610719565b604051600160a060020a03909116815260200160405180910390f35b341561023a57600080fd5b6100ff61072d565b60405190815260200160405180910390f35b341561025f57600080fd5b6101e4610739565b604051600160a060020a03909116815260200160405180910390f35b341561028e57600080fd5b6101a8610748565b604051901515815260200160405180910390f35b34156102b557600080fd5b6101a8600160a060020a0360043581169060243516604435610751565b604051901515815260200160405180910390f35b34156102f157600080fd5b6100ff60043561075b565b60405190815260200160405180910390f35b341561031957600080fd5b6100e9600160a060020a036004351661082d565b005b6101a8600160a060020a036004351661088a565b604051901515815260200160405180910390f35b341561036257600080fd5b6101e4610896565b604051600160a060020a03909116815260200160405180910390f35b600081600160a060020a038116151561039e57600080fd5b6002546103a96108a5565b10156103b457600080fd5b6003546103bf6108a5565b11156103ca57600080fd5b600754600554340111156103dd57600080fd5b6103fd6103f06103eb6108a5565b61075b565b349063ffffffff6108aa16565b600454909250600160a060020a03163480156108fc0290604051600060405180830381858888f19350505050151561043457600080fd5b600154600160a060020a031663827f32c0848460006040516020015260405160e060020a63ffffffff8516028152600160a060020a0390921660048301526024820152604401602060405180830381600087803b151561049357600080fd5b6102c65a03f115156104a457600080fd5b5050506040518051905015156104b957600080fd5b6005546104cc908363ffffffff6108d916565b600555600160a060020a0383167f7d92561d9486854d24999c3a9e1999d946c2b7405d61e070567286a98e174c3a833460405191825260208201526040908101905180910390a25b5b5b505050565b60035481565b60075481565b60055481565b60025481565b600030600160a060020a031684600160a060020a03161490505b9392505050565b60006003546105616108a5565b1161056b57600080fd5b60005433600160a060020a0390811691161461058657600080fd5b600154600990600160a060020a03166318160ddd6000604051602001526040518163ffffffff1660e060020a028152600401602060405180830381600087803b15156105d157600080fd5b6102c65a03f115156105e257600080fd5b505050604051805190508115156105f557fe5b600154600454929091049250600160a060020a039081169163827f32c091168360006040516020015260405160e060020a63ffffffff8516028152600160a060020a0390921660048301526024820152604401602060405180830381600087803b151561066157600080fd5b6102c65a03f1151561067257600080fd5b50505060405180519050151561068757600080fd5b600154600654600160a060020a0391821691633cebb8239161010090041660405160e060020a63ffffffff8416028152600160a060020a039091166004820152602401600060405180830381600087803b15156106e357600080fd5b6102c65a03f115156106f457600080fd5b50506006805460ff19166001179055505b5b5b50565b600454600160a060020a031681565b6006546101009004600160a060020a031681565b6706f05b59d3b2000081565b600054600160a060020a031681565b60065460ff1681565b60005b9392505050565b600060025482101561076f57506000610823565b61078b61077c60016108f3565b6002549063ffffffff6108d916565b82101561079b57506103e8610823565b6107b761077c60026108f3565b6002549063ffffffff6108d916565b8210156107c757506103af610823565b6107e361077c60036108f3565b6002549063ffffffff6108d916565b8210156107f35750610384610823565b61080f61077c60046108f3565b6002549063ffffffff6108d916565b82101561081f5750610356610823565b5060005b5b5b5b5b5b919050565b60005433600160a060020a0390811691161461084857600080fd5b600160a060020a038116151561085d57600080fd5b6000805473ffffffffffffffffffffffffffffffffffffffff1916600160a060020a0383161790555b5b50565b6000806000fd5b919050565b600154600160a060020a031681565b435b90565b60008282028315806108c657508284828115156108c357fe5b04145b15156108ce57fe5b8091505b5092915050565b6000828201838110156108ce57fe5b8091505b5092915050565b6000601e62093a8061091b8261090f838763ffffffff6108aa16565b9063ffffffff61092516565b92505b5050919050565b600080828481151561093357fe5b0490508091505b50929150505600a165627a7a72305820832375ca4f763bfb63ce07ff32fda9f41cf9179ad194b2cb53c8f961f42b8a350029",
  "source": "pragma solidity ^0.4.15;\n\nimport \"./SafeMath.sol\";\nimport \"./SNTW.sol\";\nimport \"./Ownable.sol\";\n\ncontract SolaCrowsale is TokenController, Ownable {\n  using SafeMath for uint256;\n\n  // The token being sold\n  SNTW public token;\n\n  // start and end block where investments are allowed (both inclusive)\n  uint256 public startBlock; \n  uint256 public endBlock;\n\n  // address where funds are collected\n  address public solaMultisig;\n  \n  // amount of raised money in wei\n  uint256 public weiRaised = 0;\n\n  // has the sale been finalized?\n  bool public saleFinalized = false;\n  address public profitSharing;\n\n  // minimum investment\n  uint256 constant public minInvestment = 0.5 ether;\n\n  // cap\n  uint256 public cap = 10000 ether;\n\n  event NewPresaleAllocation(address indexed holder, uint256 antAmount);\n  event NewBuyer(address indexed holder, uint256 sntwAmount, uint256 etherAmount);\n\n  function SolaCrowsale (\n    uint256 _startBlock,\n    uint256 _endBlock,\n    address _solaMultisig,\n    address _tokenAddress,\n    address _profitSharing\n  ) \n    non_zero_address(_solaMultisig) non_zero_address(_tokenAddress) non_zero_address(_profitSharing) \n  {\n    require(_startBlock >= getBlockNumber());\n    require(_endBlock >= _startBlock);\n\n    startBlock = _startBlock;\n    endBlock = _endBlock;\n    solaMultisig = _solaMultisig;\n    token = SNTW(_tokenAddress);\n    profitSharing = _profitSharing;\n  }\n\n  // fallback function can be used to buy tokens\n  function () payable {\n    require(msg.value >= minInvestment);\n    doPayment(msg.sender);\n  }\n\n/////////////////\n// Controller interface\n/////////////////\n\n/// @notice `proxyPayment()` allows the caller to send ether to the Token directly and\n/// have the tokens created in an address of their choosing\n/// @param _owner The address that will hold the newly created tokens\n  function proxyPayment(address _owner) payable public returns (bool) {\n    // not allow purchase from token contract directly during the sale\n    revert();\n    return false;\n  }\n\n/// @notice Notifies the controller about a transfer, for this sale all\n///  transfers are allowed by default and no extra notifications are needed\n/// @param _from The origin of the transfer\n/// @param _to The destination of the transfer\n/// @param _amount The amount of the transfer\n/// @return False if the controller does not authorize the transfer\n  function onTransfer(address _from, address _to, uint _amount) public returns (bool) {\n    // Until the sale is finalized, only allows transfers originated by the sale contract.\n    // When finalizeSale is called, this function will stop being called and will always be true.\n    return _from == address(this);\n  }\n\n/// @notice Notifies the controller about an approval, for this sale all\n///  approvals are allowed by default and no extra notifications are needed\n/// @param _owner The address that calls `approve()`\n/// @param _spender The spender in the `approve()` call\n/// @param _amount The amount in the `approve()` call\n/// @return False if the controller does not authorize the approval\n  function onApprove(address _owner, address _spender, uint _amount) public returns (bool) {\n    // No approve/transferFrom during the sale\n    return false;\n  }\n\n/// @dev `doPayment()` is an internal function that sends the ether that this\n///  contract receives to the solaMultisig and creates tokens in the address of the\n  function doPayment(address _beneficiary) internal \n    non_zero_address(_beneficiary)\n    only_during_sale_period\n  {\n    require(weiRaised + msg.value <= cap);\n    \n    // calculate how many tokens bought\n    uint256 boughtTokens = msg.value.mul(getPrice(getBlockNumber()));\n\n    solaMultisig.transfer(msg.value);\n\n    if (!token.generateTokens(_beneficiary, boughtTokens)) {\n      revert();\n    }\n\n    weiRaised = weiRaised.add(boughtTokens);\n\n    NewBuyer(_beneficiary, boughtTokens, msg.value);\n  }\n\n  // @notice Finalizes sale generating the tokens for Aragon Dev.\n  // @dev Transfers the token controller power to the ANPlaceholder.\n  function finalizeSale()\n           only_after_sale\n           onlyOwner \n  {\n    uint256 solaToken = token.totalSupply() / 9;\n    if (!token.generateTokens(solaMultisig, solaToken)) {\n      revert();\n    }\n    token.changeController(profitSharing); // Sale loses token controller power in favor of solaOwner\n    saleFinalized = true;  // Set stop is true which will enable network deployment\n  }\n\n  // @return true if the transaction can buy tokens\n  function validPurchase() internal constant returns (bool) {\n    uint256 current = getBlockNumber();\n    bool withinPeriod = current >= startBlock && current <= endBlock;\n    bool nonZeroPurchase = msg.value != 0;\n    return withinPeriod && nonZeroPurchase;\n  }\n  \n  function getPrice(uint256 _blockNumber) constant returns (uint256) {\n    if (_blockNumber < startBlock) {\n      return 0;\n    } else if (_blockNumber < (startBlock.add(getWeeks(1)))) {\n      return 1000;\n    } else if (_blockNumber < (startBlock.add(getWeeks(2)))) {\n      return 943;\n    } else if (_blockNumber < (startBlock.add(getWeeks(3)))) {\n      return 900;\n    } else if (_blockNumber < (startBlock.add(getWeeks(4)))) {\n      return 854;\n    } else {\n      return 0;\n    }\n  }\n\n  function getWeeks(uint256 _num) internal constant returns (uint256) {\n    uint256 _averageBlocktime = 30;\n    uint256 oneWeek = 60 * 60 * 24 * 7;\n    return oneWeek.mul(_num).div(_averageBlocktime);\n  }\n\n\n  function getBlockNumber() internal constant returns (uint) {\n    return block.number;\n  }\n\n  modifier only_during_sale_period {\n    require(getBlockNumber() >= startBlock);\n    require(getBlockNumber() <= endBlock);\n    _;\n  }\n\n  modifier non_zero_address(address x) {\n    require(x != 0x0);\n    _;\n  }\n\n  modifier only_after_sale {\n    require(getBlockNumber() > endBlock);\n    _;\n  }\n}",
  "sourcePath": "/Users/iisaint/Workspace/Solar-ICO/sola-token/contracts/SolaCrowsale.sol",
  "schemaVersion": "1.0.0",
  "updatedAt": "2017-11-13T08:41:48.413Z"
}