{
  "contractName": "SolaExchange",
  "abi": [
    {
      "constant": false,
      "inputs": [
        {
          "name": "tokenGet",
          "type": "address"
        },
        {
          "name": "amountGet",
          "type": "uint256"
        },
        {
          "name": "tokenGive",
          "type": "address"
        },
        {
          "name": "amountGive",
          "type": "uint256"
        },
        {
          "name": "expires",
          "type": "uint256"
        },
        {
          "name": "nonce",
          "type": "uint256"
        },
        {
          "name": "user",
          "type": "address"
        },
        {
          "name": "v",
          "type": "uint8"
        },
        {
          "name": "r",
          "type": "bytes32"
        },
        {
          "name": "s",
          "type": "bytes32"
        },
        {
          "name": "amount",
          "type": "uint256"
        }
      ],
      "name": "trade",
      "outputs": [],
      "payable": false,
      "type": "function"
    },
    {
      "constant": false,
      "inputs": [
        {
          "name": "tokenGet",
          "type": "address"
        },
        {
          "name": "amountGet",
          "type": "uint256"
        },
        {
          "name": "tokenGive",
          "type": "address"
        },
        {
          "name": "amountGive",
          "type": "uint256"
        },
        {
          "name": "expires",
          "type": "uint256"
        },
        {
          "name": "nonce",
          "type": "uint256"
        }
      ],
      "name": "order",
      "outputs": [],
      "payable": false,
      "type": "function"
    },
    {
      "constant": true,
      "inputs": [],
      "name": "basicToken",
      "outputs": [
        {
          "name": "",
          "type": "address"
        }
      ],
      "payable": false,
      "type": "function"
    },
    {
      "constant": true,
      "inputs": [
        {
          "name": "",
          "type": "address"
        },
        {
          "name": "",
          "type": "bytes32"
        }
      ],
      "name": "orderFills",
      "outputs": [
        {
          "name": "",
          "type": "uint256"
        }
      ],
      "payable": false,
      "type": "function"
    },
    {
      "constant": false,
      "inputs": [
        {
          "name": "tokenGet",
          "type": "address"
        },
        {
          "name": "amountGet",
          "type": "uint256"
        },
        {
          "name": "tokenGive",
          "type": "address"
        },
        {
          "name": "amountGive",
          "type": "uint256"
        },
        {
          "name": "expires",
          "type": "uint256"
        },
        {
          "name": "nonce",
          "type": "uint256"
        },
        {
          "name": "v",
          "type": "uint8"
        },
        {
          "name": "r",
          "type": "bytes32"
        },
        {
          "name": "s",
          "type": "bytes32"
        }
      ],
      "name": "cancelOrder",
      "outputs": [],
      "payable": false,
      "type": "function"
    },
    {
      "constant": false,
      "inputs": [
        {
          "name": "amount",
          "type": "uint256"
        }
      ],
      "name": "withdraw",
      "outputs": [],
      "payable": false,
      "type": "function"
    },
    {
      "constant": false,
      "inputs": [
        {
          "name": "token",
          "type": "address"
        },
        {
          "name": "amount",
          "type": "uint256"
        }
      ],
      "name": "depositToken",
      "outputs": [],
      "payable": false,
      "type": "function"
    },
    {
      "constant": false,
      "inputs": [],
      "name": "kill",
      "outputs": [],
      "payable": false,
      "type": "function"
    },
    {
      "constant": true,
      "inputs": [
        {
          "name": "tokenGet",
          "type": "address"
        },
        {
          "name": "amountGet",
          "type": "uint256"
        },
        {
          "name": "tokenGive",
          "type": "address"
        },
        {
          "name": "amountGive",
          "type": "uint256"
        },
        {
          "name": "expires",
          "type": "uint256"
        },
        {
          "name": "nonce",
          "type": "uint256"
        },
        {
          "name": "user",
          "type": "address"
        },
        {
          "name": "v",
          "type": "uint8"
        },
        {
          "name": "r",
          "type": "bytes32"
        },
        {
          "name": "s",
          "type": "bytes32"
        }
      ],
      "name": "amountFilled",
      "outputs": [
        {
          "name": "",
          "type": "uint256"
        }
      ],
      "payable": false,
      "type": "function"
    },
    {
      "constant": true,
      "inputs": [
        {
          "name": "",
          "type": "address"
        },
        {
          "name": "",
          "type": "address"
        }
      ],
      "name": "tokens",
      "outputs": [
        {
          "name": "",
          "type": "uint256"
        }
      ],
      "payable": false,
      "type": "function"
    },
    {
      "constant": true,
      "inputs": [
        {
          "name": "token",
          "type": "address"
        }
      ],
      "name": "tokenAllowed",
      "outputs": [
        {
          "name": "",
          "type": "bool"
        }
      ],
      "payable": false,
      "type": "function"
    },
    {
      "constant": false,
      "inputs": [
        {
          "name": "token",
          "type": "address"
        }
      ],
      "name": "removeToken",
      "outputs": [],
      "payable": false,
      "type": "function"
    },
    {
      "constant": true,
      "inputs": [],
      "name": "feeAccount",
      "outputs": [
        {
          "name": "",
          "type": "address"
        }
      ],
      "payable": false,
      "type": "function"
    },
    {
      "constant": true,
      "inputs": [
        {
          "name": "tokenGet",
          "type": "address"
        },
        {
          "name": "amountGet",
          "type": "uint256"
        },
        {
          "name": "tokenGive",
          "type": "address"
        },
        {
          "name": "amountGive",
          "type": "uint256"
        },
        {
          "name": "expires",
          "type": "uint256"
        },
        {
          "name": "nonce",
          "type": "uint256"
        },
        {
          "name": "user",
          "type": "address"
        },
        {
          "name": "v",
          "type": "uint8"
        },
        {
          "name": "r",
          "type": "bytes32"
        },
        {
          "name": "s",
          "type": "bytes32"
        },
        {
          "name": "amount",
          "type": "uint256"
        },
        {
          "name": "sender",
          "type": "address"
        }
      ],
      "name": "testTrade",
      "outputs": [
        {
          "name": "",
          "type": "bool"
        }
      ],
      "payable": false,
      "type": "function"
    },
    {
      "constant": false,
      "inputs": [
        {
          "name": "_newFeeAccount",
          "type": "address"
        }
      ],
      "name": "changeFeeAccount",
      "outputs": [],
      "payable": false,
      "type": "function"
    },
    {
      "constant": false,
      "inputs": [
        {
          "name": "_newFeeTake",
          "type": "uint256"
        }
      ],
      "name": "changeFeeTake",
      "outputs": [],
      "payable": false,
      "type": "function"
    },
    {
      "constant": true,
      "inputs": [],
      "name": "owner",
      "outputs": [
        {
          "name": "",
          "type": "address"
        }
      ],
      "payable": false,
      "type": "function"
    },
    {
      "constant": false,
      "inputs": [
        {
          "name": "token",
          "type": "address"
        },
        {
          "name": "amount",
          "type": "uint256"
        }
      ],
      "name": "withdrawToken",
      "outputs": [],
      "payable": false,
      "type": "function"
    },
    {
      "constant": false,
      "inputs": [
        {
          "name": "amount",
          "type": "uint256"
        },
        {
          "name": "receiver",
          "type": "address"
        }
      ],
      "name": "transfer",
      "outputs": [],
      "payable": false,
      "type": "function"
    },
    {
      "constant": true,
      "inputs": [
        {
          "name": "",
          "type": "address"
        },
        {
          "name": "",
          "type": "bytes32"
        }
      ],
      "name": "orders",
      "outputs": [
        {
          "name": "",
          "type": "bool"
        }
      ],
      "payable": false,
      "type": "function"
    },
    {
      "constant": true,
      "inputs": [],
      "name": "feeTake",
      "outputs": [
        {
          "name": "",
          "type": "uint256"
        }
      ],
      "payable": false,
      "type": "function"
    },
    {
      "constant": false,
      "inputs": [],
      "name": "deposit",
      "outputs": [],
      "payable": true,
      "type": "function"
    },
    {
      "constant": false,
      "inputs": [
        {
          "name": "token",
          "type": "address"
        }
      ],
      "name": "addToken",
      "outputs": [],
      "payable": false,
      "type": "function"
    },
    {
      "constant": true,
      "inputs": [
        {
          "name": "",
          "type": "address"
        }
      ],
      "name": "tokensAllowed",
      "outputs": [
        {
          "name": "",
          "type": "bool"
        }
      ],
      "payable": false,
      "type": "function"
    },
    {
      "constant": false,
      "inputs": [
        {
          "name": "newOwner",
          "type": "address"
        }
      ],
      "name": "transferOwnership",
      "outputs": [],
      "payable": false,
      "type": "function"
    },
    {
      "constant": false,
      "inputs": [
        {
          "name": "token",
          "type": "address"
        },
        {
          "name": "amount",
          "type": "uint256"
        },
        {
          "name": "receiver",
          "type": "address"
        }
      ],
      "name": "transferToken",
      "outputs": [],
      "payable": false,
      "type": "function"
    },
    {
      "constant": true,
      "inputs": [
        {
          "name": "token",
          "type": "address"
        },
        {
          "name": "user",
          "type": "address"
        }
      ],
      "name": "balanceOf",
      "outputs": [
        {
          "name": "",
          "type": "uint256"
        }
      ],
      "payable": false,
      "type": "function"
    },
    {
      "constant": true,
      "inputs": [
        {
          "name": "tokenGet",
          "type": "address"
        },
        {
          "name": "amountGet",
          "type": "uint256"
        },
        {
          "name": "tokenGive",
          "type": "address"
        },
        {
          "name": "amountGive",
          "type": "uint256"
        },
        {
          "name": "expires",
          "type": "uint256"
        },
        {
          "name": "nonce",
          "type": "uint256"
        },
        {
          "name": "user",
          "type": "address"
        },
        {
          "name": "v",
          "type": "uint8"
        },
        {
          "name": "r",
          "type": "bytes32"
        },
        {
          "name": "s",
          "type": "bytes32"
        }
      ],
      "name": "availableVolume",
      "outputs": [
        {
          "name": "",
          "type": "uint256"
        }
      ],
      "payable": false,
      "type": "function"
    },
    {
      "inputs": [
        {
          "name": "_basicToken",
          "type": "address"
        },
        {
          "name": "_feeAccount",
          "type": "address"
        },
        {
          "name": "_feeTake",
          "type": "uint256"
        }
      ],
      "payable": false,
      "type": "constructor"
    },
    {
      "payable": false,
      "type": "fallback"
    },
    {
      "anonymous": false,
      "inputs": [
        {
          "indexed": true,
          "name": "tokenGet",
          "type": "address"
        },
        {
          "indexed": false,
          "name": "amountGet",
          "type": "uint256"
        },
        {
          "indexed": true,
          "name": "tokenGive",
          "type": "address"
        },
        {
          "indexed": false,
          "name": "amountGive",
          "type": "uint256"
        },
        {
          "indexed": false,
          "name": "expires",
          "type": "uint256"
        },
        {
          "indexed": false,
          "name": "nonce",
          "type": "uint256"
        },
        {
          "indexed": true,
          "name": "user",
          "type": "address"
        }
      ],
      "name": "Order",
      "type": "event"
    },
    {
      "anonymous": false,
      "inputs": [
        {
          "indexed": true,
          "name": "tokenGet",
          "type": "address"
        },
        {
          "indexed": false,
          "name": "amountGet",
          "type": "uint256"
        },
        {
          "indexed": true,
          "name": "tokenGive",
          "type": "address"
        },
        {
          "indexed": false,
          "name": "amountGive",
          "type": "uint256"
        },
        {
          "indexed": false,
          "name": "expires",
          "type": "uint256"
        },
        {
          "indexed": false,
          "name": "nonce",
          "type": "uint256"
        },
        {
          "indexed": true,
          "name": "user",
          "type": "address"
        },
        {
          "indexed": false,
          "name": "v",
          "type": "uint8"
        },
        {
          "indexed": false,
          "name": "r",
          "type": "bytes32"
        },
        {
          "indexed": false,
          "name": "s",
          "type": "bytes32"
        }
      ],
      "name": "Cancel",
      "type": "event"
    },
    {
      "anonymous": false,
      "inputs": [
        {
          "indexed": true,
          "name": "tokenGet",
          "type": "address"
        },
        {
          "indexed": false,
          "name": "amountGet",
          "type": "uint256"
        },
        {
          "indexed": true,
          "name": "tokenGive",
          "type": "address"
        },
        {
          "indexed": false,
          "name": "amountGive",
          "type": "uint256"
        },
        {
          "indexed": false,
          "name": "get",
          "type": "address"
        },
        {
          "indexed": false,
          "name": "give",
          "type": "address"
        }
      ],
      "name": "Trade",
      "type": "event"
    },
    {
      "anonymous": false,
      "inputs": [
        {
          "indexed": true,
          "name": "token",
          "type": "address"
        },
        {
          "indexed": true,
          "name": "user",
          "type": "address"
        },
        {
          "indexed": false,
          "name": "amount",
          "type": "uint256"
        },
        {
          "indexed": false,
          "name": "balance",
          "type": "uint256"
        }
      ],
      "name": "Deposit",
      "type": "event"
    },
    {
      "anonymous": false,
      "inputs": [
        {
          "indexed": true,
          "name": "token",
          "type": "address"
        },
        {
          "indexed": true,
          "name": "user",
          "type": "address"
        },
        {
          "indexed": false,
          "name": "amount",
          "type": "uint256"
        },
        {
          "indexed": false,
          "name": "balance",
          "type": "uint256"
        }
      ],
      "name": "Withdraw",
      "type": "event"
    },
    {
      "anonymous": false,
      "inputs": [
        {
          "indexed": true,
          "name": "token",
          "type": "address"
        },
        {
          "indexed": false,
          "name": "amount",
          "type": "uint256"
        },
        {
          "indexed": true,
          "name": "user",
          "type": "address"
        },
        {
          "indexed": true,
          "name": "receiver",
          "type": "address"
        },
        {
          "indexed": false,
          "name": "balance",
          "type": "uint256"
        }
      ],
      "name": "Transfer",
      "type": "event"
    }
  ],
  "bytecode": "0x6060604052341561000f57600080fd5b60405160608061231a8339810160405280805191906020018051919060200180519150505b5b60008054600160a060020a03191633600160a060020a03161790555b82600160a060020a038116151561006757600080fd5b82600160a060020a038116151561007d57600080fd5b60018054600160a060020a0319908116600160a060020a0388811691821784556002805490931690881617909155600385905560046020527f17ef568e3e12ab5b9c7254a8d58478811de00f9e6eb34345acd53bf8fd09d3ec805460ff19908116841790915560009182526040909120805490911690911790555b5b505b505050505b61220b8061010f6000396000f3006060604052361561014e5763ffffffff60e060020a6000350416630a19b14a81146101615780630b927666146101b0578063190b8dc5146101e457806319774d4314610213578063278b8c0e146102475780632e1a7d4d14610288578063338b5dea146102a057806341c0e1b5146102c457806346be96c3146102d9578063508493bc1461033457806355219d5a1461036b5780635fa7b5841461039e57806365e17c9d146103bf5780636c86888b146103ee57806371ffcb161461045a5780638823a9c01461047b5780638da5cb5b146104935780639e281a98146104c2578063b7760c8f146104e6578063bb5f46291461050a578063c281309e14610540578063d0e30db014610565578063d48bfca71461056f578063eeda452b14610590578063f2fde38b146105c3578063f640d508146105e4578063f7888aec1461060f578063fb6e155f14610646575b341561015957600080fd5b5b600080fd5b005b341561016c57600080fd5b61015f600160a060020a0360043581169060243590604435811690606435906084359060a4359060c4351660ff60e435166101043561012435610144356106a1565b005b34156101bb57600080fd5b61015f600160a060020a03600435811690602435906044351660643560843560a43561096b565b005b34156101ef57600080fd5b6101f7610b90565b604051600160a060020a03909116815260200160405180910390f35b341561021e57600080fd5b610235600160a060020a0360043516602435610b9f565b60405190815260200160405180910390f35b341561025257600080fd5b61015f600160a060020a03600435811690602435906044351660643560843560a43560ff60c4351660e43561010435610bbc565b005b341561029357600080fd5b61015f600435610df1565b005b34156102ab57600080fd5b61015f600160a060020a0360043516602435610f22565b005b34156102cf57600080fd5b61015f6110ac565b005b34156102e457600080fd5b610235600160a060020a0360043581169060243590604435811690606435906084359060a4359060c4351660ff60e4351661010435610124356110d8565b60405190815260200160405180910390f35b341561033f57600080fd5b610235600160a060020a03600435811690602435166111a0565b60405190815260200160405180910390f35b341561037657600080fd5b61038a600160a060020a03600435166111bd565b604051901515815260200160405180910390f35b34156103a957600080fd5b61015f600160a060020a03600435166111df565b005b34156103ca57600080fd5b6101f761125e565b604051600160a060020a03909116815260200160405180910390f35b34156103f957600080fd5b61038a600160a060020a0360043581169060243590604435811690606435906084359060a4359060c43581169060ff60e4351690610104359061012435906101443590610164351661126d565b604051901515815260200160405180910390f35b341561046557600080fd5b61015f600160a060020a03600435166112d8565b005b341561048657600080fd5b61015f600435611338565b005b341561049e57600080fd5b6101f761135d565b604051600160a060020a03909116815260200160405180910390f35b34156104cd57600080fd5b61015f600160a060020a036004351660243561136c565b005b34156104f157600080fd5b61015f600435600160a060020a036024351661153a565b005b341561051557600080fd5b61038a600160a060020a036004351660243561167e565b604051901515815260200160405180910390f35b341561054b57600080fd5b61023561169e565b60405190815260200160405180910390f35b61015f6116a4565b005b341561057a57600080fd5b61015f600160a060020a0360043516611750565b005b341561059b57600080fd5b61038a600160a060020a03600435166117d1565b604051901515815260200160405180910390f35b34156105ce57600080fd5b61015f600160a060020a03600435166117e6565b005b34156105ef57600080fd5b61015f600160a060020a036004358116906024359060443516611843565b005b341561061a57600080fd5b610235600160a060020a03600435811690602435166119b5565b60405190815260200160405180910390f35b341561065157600080fd5b610235600160a060020a0360043581169060243590604435811690606435906084359060a4359060c4351660ff60e4351661010435610124356119e2565b60405190815260200160405180910390f35b6000808083116106b057600080fd5b6002308e8e8e8e8e8e6000604051602001526040516c01000000000000000000000000600160a060020a0398891681028252968816870260148201526028810195909552929095169093026048830152605c820192909252607c810192909252609c82015260bc0160206040518083038160008661646e5a03f1151561073557600080fd5b50506040518051600160a060020a038916600090815260066020908152604080832084845290915290205490935060ff1690508061082a575086600160a060020a03166001836040517f19457468657265756d205369676e6564204d6573736167653a0a3332000000008152601c810191909152603c0160405180910390208888886040516000815260200160405260006040516020015260405193845260ff90921660208085019190915260408085019290925260608401929092526080909201915160208103908084039060008661646e5a03f1151561081657600080fd5b505060206040510351600160a060020a0316145b80156108365750884311155b151561084157600080fd5b600160a060020a0387166000908152600760209081526040808320858452909152902054610876908d9063ffffffff611c5b16565b905080831115610884578092505b6108928d8d8d8d8b88611c72565b600160a060020a03871660009081526007602090815260408083208584529091529020546108c6908463ffffffff61217616565b600160a060020a0380891660009081526007602090815260408083208784529091529020919091558b8116908e167f6effdda786735d5033bfad5f53e5131abcced9e52be6c507b62d639685fbed6d858f8e820281151561092357fe5b048b336040519384526020840192909252600160a060020a03908116604080850191909152911660608301526080909101905180910390a35b50505050505050505050505050565b60008581811161097a57600080fd5b600160a060020a038816600090815260046020526040902054889060ff1615156109a357600080fd5b85600081116109b157600080fd5b600160a060020a038816600090815260046020526040902054889060ff1615156109da57600080fd5b4387116109e657600080fd5b600154600160a060020a038a811691161415610a6157610a2f6103e8610a176003548b61219090919063ffffffff16565b811515610a2057fe5b8a91900463ffffffff61217616565b600160a060020a03808b16600090815260056020908152604080832033909416835292905220541015610a6157600080fd5b5b6002308c8c8c8c8c8c6000604051602001526040516c01000000000000000000000000600160a060020a0398891681028252968816870260148201526028810195909552929095169093026048830152605c820192909252607c810192909252609c82015260bc0160206040518083038160008661646e5a03f11515610ae757600080fd5b50506040518051600160a060020a03338116600081815260066020908152604080832086845290915290819020805460ff1916600117905592985092508b811691908e16907f3f7f2eda73683c21a15f9435af1028c93185b5f1fa38270762dc32be606b3e85908e908d908d908d90518085815260200184815260200183815260200182815260200194505050505060405180910390a45b5b505b505b505b5050505050505050565b600154600160a060020a031681565b600760209081526000928352604080842090915290825290205481565b60006002308b8b8b8b8b8b6000604051602001526040516c01000000000000000000000000600160a060020a0398891681028252968816870260148201526028810195909552929095169093026048830152605c820192909252607c810192909252609c82015260bc0160206040518083038160008661646e5a03f11515610c4357600080fd5b50506040518051600160a060020a033316600090815260066020908152604080832084845290915290205490925060ff16905080610d38575033600160a060020a03166001826040517f19457468657265756d205369676e6564204d6573736167653a0a3332000000008152601c810191909152603c0160405180910390208686866040516000815260200160405260006040516020015260405193845260ff90921660208085019190915260408085019290925260608401929092526080909201915160208103908084039060008661646e5a03f11515610d2457600080fd5b505060206040510351600160a060020a0316145b1515610d4357600080fd5b600160a060020a033381166000818152600760209081526040808320868452909152908190208c905590918a811691908d16907f1e0b760c386003e9cb9bcf4fcf3997886042859d9b6ed6320e804597fcdb28b0908d908c908c908c908c908c908c90519687526020870195909552604080870194909452606086019290925260ff16608085015260a084015260c083019190915260e0909101905180910390a45b50505050505050505050565b8060008111610dff57600080fd5b33600160a060020a031660009081526000805160206121c0833981519152602052604090205482901015610e3257600080fd5b33600160a060020a031660009081526000805160206121c08339815191526020526040902054610e68908363ffffffff611c5b16565b33600160a060020a031660008181526000805160206121c0833981519152602052604090819020929092559083156108fc0290849051600060405180830381858888f193505050501515610ebb57600080fd5b600160a060020a03331660008181526000805160206121c08339815191526020526040808220547ff341246adaac6f497bc2a656f546ab9e182111d630394f0c57c710a59a2cb567918691905191825260208201526040908101905180910390a35b5b5050565b81600160a060020a0381161515610f3857600080fd5b8160008111610f4657600080fd5b600160a060020a038416600090815260046020526040902054849060ff161515610f6f57600080fd5b84600160a060020a03166323b872dd33308760006040516020015260405160e060020a63ffffffff8616028152600160a060020a0393841660048201529190921660248201526044810191909152606401602060405180830381600087803b1515610fd957600080fd5b6102c65a03f11515610fea57600080fd5b505050604051805190501515610fff57600080fd5b600160a060020a0380861660009081526005602090815260408083203390941683529290522054611036908563ffffffff61217616565b600160a060020a038681166000818152600560209081526040808320339095168084529490915290819020849055919290917fdcbc1c05240f31ff3ad067ef1ee35ce4997762752e3a095284754544f4c709d79188915191825260208201526040908101905180910390a35b5b505b505b505050565b60005433600160a060020a039081169116146110c757600080fd5b600054600160a060020a0316ff5b5b565b6000806002308d8d8d8d8d8d6000604051602001526040516c01000000000000000000000000600160a060020a0398891681028252968816870260148201526028810195909552929095169093026048830152605c820192909252607c810192909252609c82015260bc0160206040518083038160008661646e5a03f1151561116057600080fd5b50506040518051600160a060020a038816600090815260076020908152604080832084845290915290205493509150505b509a9950505050505050505050565b600560209081526000928352604080842090915290825290205481565b600160a060020a03811660009081526004602052604090205460ff165b919050565b60005433600160a060020a039081169116146111fa57600080fd5b80600160a060020a038116151561121057600080fd5b600160a060020a03821660009081526004602052604090205460ff16151561123757600080fd5b600160a060020a0382166000908152600460205260409020805460ff191690555b5b505b50565b600254600160a060020a031681565b600160a060020a03808d1660009081526005602090815260408083209385168352929052908120548390108015906112b65750826112b38e8e8e8e8e8e8e8e8e8e6119e2565b10155b15156112c4575060006112c8565b5060015b9c9b505050505050505050505050565b60005433600160a060020a039081169116146112f357600080fd5b80600160a060020a038116151561130957600080fd5b6002805473ffffffffffffffffffffffffffffffffffffffff1916600160a060020a0384161790555b5b505b50565b60005433600160a060020a0390811691161461135357600080fd5b60038190555b5b50565b600054600160a060020a031681565b81600160a060020a038116151561138257600080fd5b816000811161139057600080fd5b600160a060020a038416600090815260046020526040902054849060ff1615156113b957600080fd5b600160a060020a0380861660009081526005602090815260408083203390941683529290522054849010156113ed57600080fd5b600160a060020a0380861660009081526005602090815260408083203390941683529290522054611424908563ffffffff611c5b16565b600160a060020a03808716600081815260056020908152604080832033958616845290915280822094909455909263a9059cbb92918891516020015260405160e060020a63ffffffff8516028152600160a060020a0390921660048301526024820152604401602060405180830381600087803b15156114a357600080fd5b6102c65a03f115156114b457600080fd5b5050506040518051905015156114c957600080fd5b600160a060020a038581166000818152600560209081526040808320339095168084529490915290819020547ff341246adaac6f497bc2a656f546ab9e182111d630394f0c57c710a59a2cb567918891905191825260208201526040908101905180910390a35b5b505b505b505050565b816000811161154857600080fd5b600160a060020a038216151561155d57600080fd5b33600160a060020a031660009081526000805160206121c083398151915260205260409020548390101561159057600080fd5b33600160a060020a031660009081526000805160206121c083398151915260205260409020546115c6908463ffffffff611c5b16565b600160a060020a0333811660009081526000805160206121c0833981519152602052604080822093909355908416815220546116029084612176565b600160a060020a0383811660008181526000805160206121c0833981519152602052604080822094909455339092168083528383205491939092917fdaf45dacc5c9f23fb0cd8891dc23734fc915f5cac40a7dbcb7cb8c409f7bb467918891905191825260208201526040908101905180910390a45b5b505050565b600660209081526000928352604080842090915290825290205460ff1681565b60035481565b600034116116b157600080fd5b33600160a060020a031660009081526000805160206121c083398151915260205260409020546116e7903463ffffffff61217616565b600160a060020a03331660008181526000805160206121c08339815191526020526040808220849055919290917fdcbc1c05240f31ff3ad067ef1ee35ce4997762752e3a095284754544f4c709d79134915191825260208201526040908101905180910390a35b565b60005433600160a060020a0390811691161461176b57600080fd5b80600160a060020a038116151561178157600080fd5b600160a060020a03821660009081526004602052604090205460ff16156117a757600080fd5b600160a060020a0382166000908152600460205260409020805460ff191660011790555b5b505b50565b60046020526000908152604090205460ff1681565b60005433600160a060020a0390811691161461180157600080fd5b600160a060020a038116151561181657600080fd5b6000805473ffffffffffffffffffffffffffffffffffffffff1916600160a060020a0383161790555b5b50565b600160a060020a038316600090815260046020526040902054839060ff16151561186c57600080fd5b826000811161187a57600080fd5b600160a060020a038316151561188f57600080fd5b600160a060020a0380861660009081526005602090815260408083203390941683529290522054849010156118c357600080fd5b600160a060020a03808616600090815260056020908152604080832033909416835292905220546118fa908563ffffffff611c5b16565b600160a060020a038681166000908152600560209081526040808320338516845290915280822093909355908516815220546119369085612176565b600160a060020a038681166000818152600560209081526040808320898616808552925280832095909555339093168082529084902054929390927fdaf45dacc5c9f23fb0cd8891dc23734fc915f5cac40a7dbcb7cb8c409f7bb467918991905191825260208201526040908101905180910390a45b5b505b50505050565b600160a060020a038083166000908152600560209081526040808320938516835292905220545b92915050565b60008060006002308e8e8e8e8e8e6000604051602001526040516c01000000000000000000000000600160a060020a0398891681028252968816870260148201526028810195909552929095169093026048830152605c820192909252607c810192909252609c82015260bc0160206040518083038160008661646e5a03f11515611a6c57600080fd5b50506040518051600160a060020a038916600090815260066020908152604080832084845290915290205490935060ff16905080611b61575086600160a060020a03166001836040517f19457468657265756d205369676e6564204d6573736167653a0a3332000000008152601c810191909152603c0160405180910390208888886040516000815260200160405260006040516020015260405193845260ff90921660208085019190915260408085019290925260608401929092526080909201915160208103908084039060008661646e5a03f11515611b4d57600080fd5b505060206040510351600160a060020a0316145b8015611b6d5750884311155b1515611b7c5760009250611c4a565b600160a060020a0387166000908152600760209081526040808320858452909152902054611bb1908d9063ffffffff611c5b16565b600160a060020a03808d166000908152600560209081526040808320938c16835292905220549091508a90611bec908e63ffffffff61219016565b811515611bf557fe5b04811015611c0557809250611c4a565b600160a060020a03808c166000908152600560209081526040808320938b16835292905220548a90611c3d908e63ffffffff61219016565b811515611c4657fe5b0492505b5b50509a9950505050505050505050565b600082821115611c6757fe5b508082035b92915050565b6001546000908190600160a060020a0389811691161415611ef0576103e8611ca56003548561219090919063ffffffff16565b811515611cae57fe5b049150611cf7611cc4848463ffffffff61217616565b600160a060020a03808b16600090815260056020908152604080832033909416835292905220549063ffffffff611c5b16565b600160a060020a03808a1660009081526005602090815260408083203390941683529290522055611d63611d31848463ffffffff611c5b16565b600160a060020a03808b166000908152600560209081526040808320938a16835292905220549063ffffffff61217616565b600160a060020a03808a16600090815260056020908152604080832093891683529290522055611dd2611d9d83600263ffffffff611c5b16565b600160a060020a03808b166000908152600560209081526040808320600254909416835292905220549063ffffffff61217616565b600160a060020a03808a16600090815260056020908152604080832060025490941683529290522055611e4c87611e0f878663ffffffff61219016565b811515611e1857fe5b600160a060020a03808a166000908152600560209081526040808320938b168352929052205491900463ffffffff611c5b16565b600160a060020a03808816600090815260056020908152604080832093891683529290522055611ec487611e86878663ffffffff61219016565b811515611e8f57fe5b600160a060020a03808a166000908152600560209081526040808320339094168352929052205491900463ffffffff61217616565b600160a060020a0380881660009081526005602090815260408083203390941683529290522055610b86565b600154600160a060020a0387811691161415610159576003546103e890611f389089611f22898863ffffffff61219016565b811515611f2b57fe5b049063ffffffff61219016565b811515611f4157fe5b600160a060020a03808b16600090815260056020908152604080832033909416835292905220549190049150611f7d908463ffffffff611c5b16565b600160a060020a03898116600090815260056020908152604080832033851684529091528082209390935590861681522054611fb99084612176565b600160a060020a03808a1660009081526005602090815260408083209389168352929052205561203f61200d8289611ff7898863ffffffff61219016565b81151561200057fe5b049063ffffffff61217616565b600160a060020a038089166000908152600560209081526040808320938a16835292905220549063ffffffff611c5b16565b600160a060020a038088166000908152600560209081526040808320938916835292905220556120c7816120bb8961207d898863ffffffff61219016565b81151561208657fe5b600160a060020a03808c166000908152600560209081526040808320339094168352929052205491900463ffffffff61217616565b9063ffffffff611c5b16565b600160a060020a038088166000908152600560209081526040808320339094168352929052205561213761210282600263ffffffff61219016565b600160a060020a038089166000908152600560209081526040808320600254909416835292905220549063ffffffff61217616565b600160a060020a03808816600090815260056020908152604080832060025490941683529290522055610b86565b600080fd5b5b5b5050505050505050565b60008282018381101561218557fe5b8091505b5092915050565b60008282028315806121ac57508284828115156121a957fe5b04145b151561218557fe5b8091505b5092915050560005b8ccbb9d4d8fb16ea74ce3c29a41f1b461fbdaff4714a0d9a8eb05499746bca165627a7a72305820f5f5dd5ad8742d651a9b9f96c61e8e2118b8b34a4b20b11c076910be472580bd0029",
  "source": "pragma solidity ^0.4.15;\n\nimport \"./SafeMath.sol\";\nimport \"./Ownable.sol\";\nimport \"./STTW.sol\";\n\ninterface ERC20Token {\n  /// @return total amount of tokens\n  function totalSupply() constant returns (uint);\n\n  /// @param _owner The address from which the balance will be retrieved\n  /// @return The balance\n  function balanceOf(address _owner) constant returns (uint256 balance);\n\n  /// @notice send `_value` token to `_to` from `msg.sender`\n  /// @param _to The address of the recipient\n  /// @param _amount The amount of token to be transferred\n  /// @return Whether the transfer was successful or not\n  function transfer(address _to, uint256 _amount) returns (bool success);\n\n  /// @notice send `_value` token to `_to` from `_from` on the condition it is approved by `_from`\n  /// @param _from The address of the sender\n  /// @param _to The address of the recipient\n  /// @param _amount The amount of token to be transferred\n  /// @return Whether the transfer was successful or not\n  function transferFrom(address _from, address _to, uint256 _amount) returns (bool success);\n\n  /// @notice `msg.sender` approves `_addr` to spend `_value` tokens\n  /// @param _spender The address of the account able to transfer the tokens\n  /// @param _amount The amount of wei to be approved for transfer\n  /// @return Whether the approval was successful or not\n  function approve(address _spender, uint256 _amount) returns (bool success);\n\n  /// @param _owner The address of the account owning tokens\n  /// @param _spender The address of the account able to transfer the tokens\n  /// @return Amount of remaining tokens allowed to spent\n  function allowance(address _owner, address _spender) constant returns (uint256 remaining);\n\n  /// @notice `msg.sender` approves `_spender` to send `_amount` tokens on\n  ///  its behalf, and then a function is triggered in the contract that is\n  ///  being approved, `_spender`. This allows users to use their tokens to\n  ///  interact with contracts in one function call instead of two\n  /// @param _spender The address of the contract able to transfer the tokens\n  /// @param _amount The amount of tokens to be approved for transfer\n  /// @return True if the function call was successful\n  function approveAndCall(address _spender, uint256 _amount, bytes _extraData) returns (bool success);\n}\n\ncontract SolaExchange is Ownable {\n  using SafeMath for uint;\n\n  STTW public basicToken;\n  address public feeAccount; //the account that will receive fees\n  uint public feeTake; // thousandth\n  mapping(address => bool) public tokensAllowed; // tokens which can be trade here\n  mapping (address => mapping (address => uint)) public tokens; //mapping of token addresses to mapping of account balances (token=0 means Ether)\n  mapping (address => mapping (bytes32 => bool)) public orders; //mapping of user accounts to mapping of order hashes to booleans (true = submitted by user, equivalent to offchain signature)\n  mapping (address => mapping (bytes32 => uint)) public orderFills; //mapping of user accounts to mapping of order hashes to uints (amount of order that has been filled)\n\n  event Order(address indexed tokenGet, uint amountGet, address indexed tokenGive, uint amountGive, uint expires, uint nonce, address indexed user);\n  event Cancel(address indexed tokenGet, uint amountGet, address indexed tokenGive, uint amountGive, uint expires, uint nonce, address indexed user, uint8 v, bytes32 r, bytes32 s);\n  event Trade(address indexed tokenGet, uint amountGet, address indexed tokenGive, uint amountGive, address get, address give);\n  event Deposit(address indexed token, address indexed user, uint amount, uint balance);\n  event Withdraw(address indexed token, address indexed user, uint amount, uint balance);\n  event Transfer(address indexed token, uint amount, address indexed user, address indexed receiver, uint balance);\n\n  modifier nonZeroAddress(address x) {\n    require(x != 0x0);\n    _;\n  }\n\n  modifier nonZero(uint x) {\n    require(x > 0);\n    _;\n  }\n\n  modifier needTokenAllowed(address x) {\n    require(tokensAllowed[x]);\n    _;\n  }\n\n  function SolaExchange(address _basicToken, address _feeAccount, uint _feeTake) nonZeroAddress(_basicToken) nonZeroAddress(_feeAccount) {\n    basicToken = STTW(_basicToken);\n    feeAccount = _feeAccount;\n    feeTake = _feeTake;\n    tokensAllowed[0] = true;\n    tokensAllowed[_basicToken] = true;\n  }\n\n  function() {\n    revert();\n  }\n\n  function changeFeeAccount(address _newFeeAccount) onlyOwner nonZeroAddress(_newFeeAccount) {\n    feeAccount = _newFeeAccount;\n  }\n\n  function changeFeeTake(uint _newFeeTake) onlyOwner {\n    feeTake = _newFeeTake;\n  }\n\n  function addToken(address token) onlyOwner nonZeroAddress(token) {\n    require(!tokensAllowed[token]);\n    tokensAllowed[token] = true;\n  }\n\n  function removeToken(address token) onlyOwner nonZeroAddress(token) {\n    require(tokensAllowed[token]);\n    tokensAllowed[token] = false;\n  }\n\n  function deposit() payable {\n    require(msg.value > 0);\n    tokens[0][msg.sender] = tokens[0][msg.sender].add(msg.value);\n    Deposit(0, msg.sender, msg.value, tokens[0][msg.sender]);\n  }\n\n  function withdraw(uint amount) nonZero(amount) {\n    require(tokens[0][msg.sender] >= amount);\n    tokens[0][msg.sender] = tokens[0][msg.sender].sub(amount);\n    msg.sender.transfer(amount);\n    Withdraw(0, msg.sender, amount, tokens[0][msg.sender]);\n  }\n\n  function transfer(uint amount, address receiver) nonZero(amount) {\n    require(receiver != 0x0);\n    require(tokens[0][msg.sender] >= amount);\n    tokens[0][msg.sender] = tokens[0][msg.sender].sub(amount);\n    tokens[0][receiver] = tokens[0][receiver].add(amount);\n    Transfer(0, amount, msg.sender, receiver, tokens[0][msg.sender]);\n  }\n\n  function depositToken(address token, uint amount) nonZeroAddress(token) nonZero(amount) needTokenAllowed(token) {\n    //remember to call Token(address).approve(this, amount) or this contract will not be able to do the transfer on your behalf.\n    if (!ERC20Token(token).transferFrom(msg.sender, this, amount)) revert();\n    tokens[token][msg.sender] = tokens[token][msg.sender].add(amount);\n    Deposit(token, msg.sender, amount, tokens[token][msg.sender]);\n  }\n\n  function withdrawToken(address token, uint amount) nonZeroAddress(token) nonZero(amount) needTokenAllowed(token) {\n    require(tokens[token][msg.sender] >= amount);\n    tokens[token][msg.sender] = tokens[token][msg.sender].sub(amount);\n    if (!ERC20Token(token).transfer(msg.sender, amount)) revert();\n    Withdraw(token, msg.sender, amount, tokens[token][msg.sender]);\n  }\n\n  function transferToken(address token, uint amount, address receiver) needTokenAllowed(token) nonZero(amount) {\n    require(receiver != 0x0);\n    require(tokens[token][msg.sender] >= amount);\n    tokens[token][msg.sender] = tokens[token][msg.sender].sub(amount);\n    tokens[token][receiver] = tokens[token][receiver].add(amount);\n    Transfer(token, amount, msg.sender, receiver, tokens[token][msg.sender]);\n  }\n\n  function balanceOf(address token, address user) constant returns (uint) {\n    return tokens[token][user];\n  }\n\n  function order(address tokenGet, uint amountGet, address tokenGive, uint amountGive, uint expires, uint nonce)\n    nonZero(amountGet)\n    needTokenAllowed(tokenGet)\n    nonZero(amountGive)\n    needTokenAllowed(tokenGive)\n  {\n    require(expires > block.number);\n    if (tokenGive == address(basicToken)) {\n      require(tokens[tokenGive][msg.sender] >= amountGive.add(amountGive.mul(feeTake)/1000));\n    }\n    bytes32 hash = sha256(this, tokenGet, amountGet, tokenGive, amountGive, expires, nonce);\n    orders[msg.sender][hash] = true;\n    Order(tokenGet, amountGet, tokenGive, amountGive, expires, nonce, msg.sender);\n  }\n\n  function trade(address tokenGet, uint amountGet, address tokenGive, uint amountGive, uint expires, uint nonce, address user, uint8 v, bytes32 r, bytes32 s, uint amount) {\n    require(amount > 0);\n    //amount is in amountGet terms\n    bytes32 hash = sha256(this, tokenGet, amountGet, tokenGive, amountGive, expires, nonce);\n    // if (!(\n    //   (orders[user][hash] || ecrecover(sha3(\"\\x19Ethereum Signed Message:\\n32\", hash),v,r,s) == user) &&\n    //   block.number <= expires &&\n    //   (orderFills[user][hash].add(amount)) <= amountGet\n    // )) revert();\n    // require(tokens[tokenGet][msg.sender] >= amount.add(amount.mul(feeTake)/1000));\n\n    if (!(\n      (orders[user][hash] || ecrecover(sha3(\"\\x19Ethereum Signed Message:\\n32\", hash),v,r,s) == user) &&\n      block.number <= expires\n    )) revert();\n\n    // check real amount to trade\n    uint remain = amountGet.sub(orderFills[user][hash]);\n    if (amount > remain) {\n      amount = remain;\n    }\n\n    tradeBalances(tokenGet, amountGet, tokenGive, amountGive, user, amount);\n    orderFills[user][hash] = orderFills[user][hash].add(amount);\n    Trade(tokenGet, amount, tokenGive, amountGive * amount / amountGet, user, msg.sender);\n  }\n\n  function tradeBalances(address tokenGet, uint amountGet, address tokenGive, uint amountGive, address user, uint amount) private {\n    if (tokenGet == address(basicToken)) {\n      uint feeTakeGet = amount.mul(feeTake) / 1000;\n      tokens[tokenGet][msg.sender] = tokens[tokenGet][msg.sender].sub(amount.add(feeTakeGet));\n      tokens[tokenGet][user] = tokens[tokenGet][user].add(amount.sub(feeTakeGet));\n      tokens[tokenGet][feeAccount] = tokens[tokenGet][feeAccount].add(feeTakeGet.sub(2));\n      tokens[tokenGive][user] = tokens[tokenGive][user].sub((amountGive.mul(amount) / amountGet));\n      tokens[tokenGive][msg.sender] = tokens[tokenGive][msg.sender].add((amountGive.mul(amount)) / amountGet);\n    } else if (tokenGive == address(basicToken)) {\n      uint feeTakeGive = (amountGive.mul(amount) / amountGet).mul(feeTake) / 1000;\n      tokens[tokenGet][msg.sender] = tokens[tokenGet][msg.sender].sub(amount);\n      tokens[tokenGet][user] = tokens[tokenGet][user].add(amount);\n      tokens[tokenGive][user] = tokens[tokenGive][user].sub((amountGive.mul(amount) / amountGet).add(feeTakeGive));\n      tokens[tokenGive][msg.sender] = tokens[tokenGive][msg.sender].add((amountGive.mul(amount)) / amountGet).sub(feeTakeGive);\n      tokens[tokenGive][feeAccount] = tokens[tokenGive][feeAccount].add(feeTakeGive.mul(2));\n    } else {\n      // not support any token to exchange\n      revert();\n    }\n  }\n\n  function testTrade(address tokenGet, uint amountGet, address tokenGive, uint amountGive, uint expires, uint nonce, address user, uint8 v, bytes32 r, bytes32 s, uint amount, address sender) constant returns(bool) {\n    if (!(\n      tokens[tokenGet][sender] >= amount &&\n      availableVolume(tokenGet, amountGet, tokenGive, amountGive, expires, nonce, user, v, r, s) >= amount\n    )) return false;\n    return true;\n  }\n\n  function availableVolume(address tokenGet, uint amountGet, address tokenGive, uint amountGive, uint expires, uint nonce, address user, uint8 v, bytes32 r, bytes32 s) constant returns(uint) {\n    bytes32 hash = sha256(this, tokenGet, amountGet, tokenGive, amountGive, expires, nonce);\n    if (!(\n      (orders[user][hash] || ecrecover(sha3(\"\\x19Ethereum Signed Message:\\n32\", hash),v,r,s) == user) &&\n      block.number <= expires\n    )) return 0;\n    uint available1 = amountGet.sub(orderFills[user][hash]);\n    if ( available1 < (tokens[tokenGive][user].mul(amountGet) / amountGive))\n      return available1;\n    else\n      return tokens[tokenGive][user].mul(amountGet) / amountGive;\n  }\n\n  function amountFilled(address tokenGet, uint amountGet, address tokenGive, uint amountGive, uint expires, uint nonce, address user, uint8 v, bytes32 r, bytes32 s) constant returns(uint) {\n    bytes32 hash = sha256(this, tokenGet, amountGet, tokenGive, amountGive, expires, nonce);\n    return orderFills[user][hash];\n  }\n\n  function cancelOrder(address tokenGet, uint amountGet, address tokenGive, uint amountGive, uint expires, uint nonce, uint8 v, bytes32 r, bytes32 s) {\n    bytes32 hash = sha256(this, tokenGet, amountGet, tokenGive, amountGive, expires, nonce);\n    if (!(orders[msg.sender][hash] || ecrecover(sha3(\"\\x19Ethereum Signed Message:\\n32\", hash),v,r,s) == msg.sender)) revert();\n    orderFills[msg.sender][hash] = amountGet;\n    Cancel(tokenGet, amountGet, tokenGive, amountGive, expires, nonce, msg.sender, v, r, s);\n  }\n\n  function tokenAllowed(address token) constant returns(bool) {\n    return tokensAllowed[token];\n  }\n\n  // only for test, need to be removed in production\n  function kill() public onlyOwner {\n    selfdestruct(owner);\n  }\n}\n",
  "sourcePath": "/Users/iisaint/Workspace/Solar-ICO/sola-token/contracts/SolaExchange.sol",
  "schemaVersion": "1.0.0",
  "updatedAt": "2017-11-13T08:41:48.287Z"
}