{
  "contractName": "SolaExchange",
  "abi": [
    {
      "constant": false,
      "inputs": [
        {
          "name": "tokenGet",
          "type": "address"
        },
        {
          "name": "amountGet",
          "type": "uint256"
        },
        {
          "name": "tokenGive",
          "type": "address"
        },
        {
          "name": "amountGive",
          "type": "uint256"
        },
        {
          "name": "expires",
          "type": "uint256"
        },
        {
          "name": "nonce",
          "type": "uint256"
        },
        {
          "name": "user",
          "type": "address"
        },
        {
          "name": "v",
          "type": "uint8"
        },
        {
          "name": "r",
          "type": "bytes32"
        },
        {
          "name": "s",
          "type": "bytes32"
        },
        {
          "name": "amount",
          "type": "uint256"
        }
      ],
      "name": "trade",
      "outputs": [],
      "payable": false,
      "type": "function"
    },
    {
      "constant": false,
      "inputs": [
        {
          "name": "tokenGet",
          "type": "address"
        },
        {
          "name": "amountGet",
          "type": "uint256"
        },
        {
          "name": "tokenGive",
          "type": "address"
        },
        {
          "name": "amountGive",
          "type": "uint256"
        },
        {
          "name": "expires",
          "type": "uint256"
        },
        {
          "name": "nonce",
          "type": "uint256"
        }
      ],
      "name": "order",
      "outputs": [],
      "payable": false,
      "type": "function"
    },
    {
      "constant": true,
      "inputs": [
        {
          "name": "",
          "type": "address"
        },
        {
          "name": "",
          "type": "bytes32"
        }
      ],
      "name": "orderFills",
      "outputs": [
        {
          "name": "",
          "type": "uint256"
        }
      ],
      "payable": false,
      "type": "function"
    },
    {
      "constant": false,
      "inputs": [
        {
          "name": "tokenGet",
          "type": "address"
        },
        {
          "name": "amountGet",
          "type": "uint256"
        },
        {
          "name": "tokenGive",
          "type": "address"
        },
        {
          "name": "amountGive",
          "type": "uint256"
        },
        {
          "name": "expires",
          "type": "uint256"
        },
        {
          "name": "nonce",
          "type": "uint256"
        },
        {
          "name": "v",
          "type": "uint8"
        },
        {
          "name": "r",
          "type": "bytes32"
        },
        {
          "name": "s",
          "type": "bytes32"
        }
      ],
      "name": "cancelOrder",
      "outputs": [],
      "payable": false,
      "type": "function"
    },
    {
      "constant": false,
      "inputs": [
        {
          "name": "amount",
          "type": "uint256"
        }
      ],
      "name": "withdraw",
      "outputs": [],
      "payable": false,
      "type": "function"
    },
    {
      "constant": false,
      "inputs": [
        {
          "name": "token",
          "type": "address"
        },
        {
          "name": "amount",
          "type": "uint256"
        }
      ],
      "name": "depositToken",
      "outputs": [],
      "payable": false,
      "type": "function"
    },
    {
      "constant": false,
      "inputs": [],
      "name": "kill",
      "outputs": [],
      "payable": false,
      "type": "function"
    },
    {
      "constant": true,
      "inputs": [
        {
          "name": "tokenGet",
          "type": "address"
        },
        {
          "name": "amountGet",
          "type": "uint256"
        },
        {
          "name": "tokenGive",
          "type": "address"
        },
        {
          "name": "amountGive",
          "type": "uint256"
        },
        {
          "name": "expires",
          "type": "uint256"
        },
        {
          "name": "nonce",
          "type": "uint256"
        },
        {
          "name": "user",
          "type": "address"
        },
        {
          "name": "v",
          "type": "uint8"
        },
        {
          "name": "r",
          "type": "bytes32"
        },
        {
          "name": "s",
          "type": "bytes32"
        }
      ],
      "name": "amountFilled",
      "outputs": [
        {
          "name": "",
          "type": "uint256"
        }
      ],
      "payable": false,
      "type": "function"
    },
    {
      "constant": true,
      "inputs": [
        {
          "name": "",
          "type": "address"
        },
        {
          "name": "",
          "type": "address"
        }
      ],
      "name": "tokens",
      "outputs": [
        {
          "name": "",
          "type": "uint256"
        }
      ],
      "payable": false,
      "type": "function"
    },
    {
      "constant": true,
      "inputs": [
        {
          "name": "token",
          "type": "address"
        }
      ],
      "name": "tokenAllowed",
      "outputs": [
        {
          "name": "",
          "type": "bool"
        }
      ],
      "payable": false,
      "type": "function"
    },
    {
      "constant": false,
      "inputs": [
        {
          "name": "token",
          "type": "address"
        }
      ],
      "name": "removeToken",
      "outputs": [],
      "payable": false,
      "type": "function"
    },
    {
      "constant": true,
      "inputs": [],
      "name": "feeAccount",
      "outputs": [
        {
          "name": "",
          "type": "address"
        }
      ],
      "payable": false,
      "type": "function"
    },
    {
      "constant": true,
      "inputs": [
        {
          "name": "tokenGet",
          "type": "address"
        },
        {
          "name": "amountGet",
          "type": "uint256"
        },
        {
          "name": "tokenGive",
          "type": "address"
        },
        {
          "name": "amountGive",
          "type": "uint256"
        },
        {
          "name": "expires",
          "type": "uint256"
        },
        {
          "name": "nonce",
          "type": "uint256"
        },
        {
          "name": "user",
          "type": "address"
        },
        {
          "name": "v",
          "type": "uint8"
        },
        {
          "name": "r",
          "type": "bytes32"
        },
        {
          "name": "s",
          "type": "bytes32"
        },
        {
          "name": "amount",
          "type": "uint256"
        },
        {
          "name": "sender",
          "type": "address"
        }
      ],
      "name": "testTrade",
      "outputs": [
        {
          "name": "",
          "type": "bool"
        }
      ],
      "payable": false,
      "type": "function"
    },
    {
      "constant": false,
      "inputs": [
        {
          "name": "_newFeeAccount",
          "type": "address"
        }
      ],
      "name": "changeFeeAccount",
      "outputs": [],
      "payable": false,
      "type": "function"
    },
    {
      "constant": false,
      "inputs": [
        {
          "name": "_newFeeTake",
          "type": "uint256"
        }
      ],
      "name": "changeFeeTake",
      "outputs": [],
      "payable": false,
      "type": "function"
    },
    {
      "constant": true,
      "inputs": [],
      "name": "owner",
      "outputs": [
        {
          "name": "",
          "type": "address"
        }
      ],
      "payable": false,
      "type": "function"
    },
    {
      "constant": false,
      "inputs": [
        {
          "name": "token",
          "type": "address"
        },
        {
          "name": "amount",
          "type": "uint256"
        }
      ],
      "name": "withdrawToken",
      "outputs": [],
      "payable": false,
      "type": "function"
    },
    {
      "constant": false,
      "inputs": [
        {
          "name": "amount",
          "type": "uint256"
        },
        {
          "name": "receiver",
          "type": "address"
        }
      ],
      "name": "transfer",
      "outputs": [],
      "payable": false,
      "type": "function"
    },
    {
      "constant": true,
      "inputs": [
        {
          "name": "",
          "type": "address"
        },
        {
          "name": "",
          "type": "bytes32"
        }
      ],
      "name": "orders",
      "outputs": [
        {
          "name": "",
          "type": "bool"
        }
      ],
      "payable": false,
      "type": "function"
    },
    {
      "constant": true,
      "inputs": [],
      "name": "feeTake",
      "outputs": [
        {
          "name": "",
          "type": "uint256"
        }
      ],
      "payable": false,
      "type": "function"
    },
    {
      "constant": false,
      "inputs": [],
      "name": "deposit",
      "outputs": [],
      "payable": true,
      "type": "function"
    },
    {
      "constant": false,
      "inputs": [
        {
          "name": "token",
          "type": "address"
        }
      ],
      "name": "addToken",
      "outputs": [],
      "payable": false,
      "type": "function"
    },
    {
      "constant": true,
      "inputs": [
        {
          "name": "",
          "type": "address"
        }
      ],
      "name": "tokensAllowed",
      "outputs": [
        {
          "name": "",
          "type": "bool"
        }
      ],
      "payable": false,
      "type": "function"
    },
    {
      "constant": false,
      "inputs": [
        {
          "name": "newOwner",
          "type": "address"
        }
      ],
      "name": "transferOwnership",
      "outputs": [],
      "payable": false,
      "type": "function"
    },
    {
      "constant": false,
      "inputs": [
        {
          "name": "token",
          "type": "address"
        },
        {
          "name": "amount",
          "type": "uint256"
        },
        {
          "name": "receiver",
          "type": "address"
        }
      ],
      "name": "transferToken",
      "outputs": [],
      "payable": false,
      "type": "function"
    },
    {
      "constant": true,
      "inputs": [
        {
          "name": "token",
          "type": "address"
        },
        {
          "name": "user",
          "type": "address"
        }
      ],
      "name": "balanceOf",
      "outputs": [
        {
          "name": "",
          "type": "uint256"
        }
      ],
      "payable": false,
      "type": "function"
    },
    {
      "constant": true,
      "inputs": [
        {
          "name": "tokenGet",
          "type": "address"
        },
        {
          "name": "amountGet",
          "type": "uint256"
        },
        {
          "name": "tokenGive",
          "type": "address"
        },
        {
          "name": "amountGive",
          "type": "uint256"
        },
        {
          "name": "expires",
          "type": "uint256"
        },
        {
          "name": "nonce",
          "type": "uint256"
        },
        {
          "name": "user",
          "type": "address"
        },
        {
          "name": "v",
          "type": "uint8"
        },
        {
          "name": "r",
          "type": "bytes32"
        },
        {
          "name": "s",
          "type": "bytes32"
        }
      ],
      "name": "availableVolume",
      "outputs": [
        {
          "name": "",
          "type": "uint256"
        }
      ],
      "payable": false,
      "type": "function"
    },
    {
      "inputs": [
        {
          "name": "_feeAccount",
          "type": "address"
        },
        {
          "name": "_feeTake",
          "type": "uint256"
        }
      ],
      "payable": false,
      "type": "constructor"
    },
    {
      "payable": false,
      "type": "fallback"
    },
    {
      "anonymous": false,
      "inputs": [
        {
          "indexed": false,
          "name": "tokenGet",
          "type": "address"
        },
        {
          "indexed": false,
          "name": "amountGet",
          "type": "uint256"
        },
        {
          "indexed": false,
          "name": "tokenGive",
          "type": "address"
        },
        {
          "indexed": false,
          "name": "amountGive",
          "type": "uint256"
        },
        {
          "indexed": false,
          "name": "expires",
          "type": "uint256"
        },
        {
          "indexed": false,
          "name": "nonce",
          "type": "uint256"
        },
        {
          "indexed": false,
          "name": "user",
          "type": "address"
        }
      ],
      "name": "Order",
      "type": "event"
    },
    {
      "anonymous": false,
      "inputs": [
        {
          "indexed": false,
          "name": "tokenGet",
          "type": "address"
        },
        {
          "indexed": false,
          "name": "amountGet",
          "type": "uint256"
        },
        {
          "indexed": false,
          "name": "tokenGive",
          "type": "address"
        },
        {
          "indexed": false,
          "name": "amountGive",
          "type": "uint256"
        },
        {
          "indexed": false,
          "name": "expires",
          "type": "uint256"
        },
        {
          "indexed": false,
          "name": "nonce",
          "type": "uint256"
        },
        {
          "indexed": false,
          "name": "user",
          "type": "address"
        },
        {
          "indexed": false,
          "name": "v",
          "type": "uint8"
        },
        {
          "indexed": false,
          "name": "r",
          "type": "bytes32"
        },
        {
          "indexed": false,
          "name": "s",
          "type": "bytes32"
        }
      ],
      "name": "Cancel",
      "type": "event"
    },
    {
      "anonymous": false,
      "inputs": [
        {
          "indexed": false,
          "name": "tokenGet",
          "type": "address"
        },
        {
          "indexed": false,
          "name": "amountGet",
          "type": "uint256"
        },
        {
          "indexed": false,
          "name": "tokenGive",
          "type": "address"
        },
        {
          "indexed": false,
          "name": "amountGive",
          "type": "uint256"
        },
        {
          "indexed": false,
          "name": "get",
          "type": "address"
        },
        {
          "indexed": false,
          "name": "give",
          "type": "address"
        }
      ],
      "name": "Trade",
      "type": "event"
    },
    {
      "anonymous": false,
      "inputs": [
        {
          "indexed": false,
          "name": "token",
          "type": "address"
        },
        {
          "indexed": false,
          "name": "user",
          "type": "address"
        },
        {
          "indexed": false,
          "name": "amount",
          "type": "uint256"
        },
        {
          "indexed": false,
          "name": "balance",
          "type": "uint256"
        }
      ],
      "name": "Deposit",
      "type": "event"
    },
    {
      "anonymous": false,
      "inputs": [
        {
          "indexed": false,
          "name": "token",
          "type": "address"
        },
        {
          "indexed": false,
          "name": "user",
          "type": "address"
        },
        {
          "indexed": false,
          "name": "amount",
          "type": "uint256"
        },
        {
          "indexed": false,
          "name": "balance",
          "type": "uint256"
        }
      ],
      "name": "Withdraw",
      "type": "event"
    },
    {
      "anonymous": false,
      "inputs": [
        {
          "indexed": false,
          "name": "token",
          "type": "address"
        },
        {
          "indexed": false,
          "name": "amount",
          "type": "uint256"
        },
        {
          "indexed": false,
          "name": "receiver",
          "type": "address"
        },
        {
          "indexed": false,
          "name": "balance",
          "type": "uint256"
        }
      ],
      "name": "Transfer",
      "type": "event"
    }
  ],
  "bytecode": "0x6060604052341561000f57600080fd5b60405160408061215183398101604052808051919060200180519150505b5b60008054600160a060020a03191633600160a060020a03161790555b81600160a060020a038116151561006057600080fd5b60018054600160a060020a031916600160a060020a03851617815560028390556000805260036020527f3617319a054d772f909f7c479a2cebe5066e836a939412e32403c99029b92eff805460ff191690911790555b5b5050505b612087806100ca6000396000f300606060405236156101435763ffffffff60e060020a6000350416630a19b14a81146101565780630b927666146101a557806319774d43146101d9578063278b8c0e1461020d5780632e1a7d4d1461024e578063338b5dea1461026657806341c0e1b51461028a57806346be96c31461029f578063508493bc146102fa57806355219d5a146103315780635fa7b5841461036457806365e17c9d146103855780636c86888b146103b457806371ffcb16146104205780638823a9c0146104415780638da5cb5b146104595780639e281a9814610488578063b7760c8f146104ac578063bb5f4629146104d0578063c281309e14610506578063d0e30db01461052b578063d48bfca714610535578063eeda452b14610556578063f2fde38b14610589578063f640d508146105aa578063f7888aec146105d5578063fb6e155f1461060c575b341561014e57600080fd5b5b600080fd5b005b341561016157600080fd5b610154600160a060020a0360043581169060243590604435811690606435906084359060a4359060c4351660ff60e43516610104356101243561014435610667565b005b34156101b057600080fd5b610154600160a060020a03600435811690602435906044351660643560843560a43561098c565b005b34156101e457600080fd5b6101fb600160a060020a0360043516602435610bb7565b60405190815260200160405180910390f35b341561021857600080fd5b610154600160a060020a03600435811690602435906044351660643560843560a43560ff60c4351660e43561010435610bd4565b005b341561025957600080fd5b610154600435610e2c565b005b341561027157600080fd5b610154600160a060020a0360043516602435610f7c565b005b341561029557600080fd5b610154611121565b005b34156102aa57600080fd5b6101fb600160a060020a0360043581169060243590604435811690606435906084359060a4359060c4351660ff60e43516610104356101243561114d565b60405190815260200160405180910390f35b341561030557600080fd5b6101fb600160a060020a0360043581169060243516611215565b60405190815260200160405180910390f35b341561033c57600080fd5b610350600160a060020a0360043516611232565b604051901515815260200160405180910390f35b341561036f57600080fd5b610154600160a060020a0360043516611254565b005b341561039057600080fd5b6103986112d3565b604051600160a060020a03909116815260200160405180910390f35b34156103bf57600080fd5b610350600160a060020a0360043581169060243590604435811690606435906084359060a4359060c43581169060ff60e435169061010435906101243590610144359061016435166112e2565b604051901515815260200160405180910390f35b341561042b57600080fd5b610154600160a060020a036004351661134d565b005b341561044c57600080fd5b6101546004356113ad565b005b341561046457600080fd5b6103986113d2565b604051600160a060020a03909116815260200160405180910390f35b341561049357600080fd5b610154600160a060020a03600435166024356113e1565b005b34156104b757600080fd5b610154600435600160a060020a03602435166115cd565b005b34156104db57600080fd5b610350600160a060020a036004351660243561172a565b604051901515815260200160405180910390f35b341561051157600080fd5b6101fb61174a565b60405190815260200160405180910390f35b610154611750565b005b341561054057600080fd5b610154600160a060020a0360043516611819565b005b341561056157600080fd5b610350600160a060020a036004351661189a565b604051901515815260200160405180910390f35b341561059457600080fd5b610154600160a060020a03600435166118af565b005b34156105b557600080fd5b610154600160a060020a03600435811690602435906044351661190c565b005b34156105e057600080fd5b6101fb600160a060020a0360043581169060243516611a9a565b60405190815260200160405180910390f35b341561061757600080fd5b6101fb600160a060020a0360043581169060243590604435811690606435906084359060a4359060c4351660ff60e435166101043561012435611ac7565b60405190815260200160405180910390f35b60006002308d8d8d8d8d8d6000604051602001526040516c01000000000000000000000000600160a060020a0398891681028252968816870260148201526028810195909552929095169093026048830152605c820192909252607c810192909252609c82015260bc0160206040518083038160008661646e5a03f115156106ee57600080fd5b50506040518051600160a060020a038816600090815260056020908152604080832084845290915290205490925060ff169050806107e3575085600160a060020a03166001826040517f19457468657265756d205369676e6564204d6573736167653a0a3332000000008152601c810191909152603c0160405180910390208787876040516000815260200160405260006040516020015260405193845260ff90921660208085019190915260408085019290925260608401929092526080909201915160208103908084039060008661646e5a03f115156107cf57600080fd5b505060206040510351600160a060020a0316145b80156107ef5750874311155b801561082f5750600160a060020a03861660009081526006602090815260408083208484529091529020548b9061082c908463ffffffff611d4016565b11155b151561083a57600080fd5b61086d6103e861085560025485611d5a90919063ffffffff16565b81151561085e57fe5b8491900463ffffffff611d4016565b600160a060020a03808e1660009081526004602090815260408083203390941683529290522054101561089f57600080fd5b6108ad8c8c8c8c8a87611d89565b600160a060020a03861660009081526006602090815260408083208484529091529020546108e1908363ffffffff611d4016565b600160a060020a03871660009081526006602090815260408083208584529091529020557f6effdda786735d5033bfad5f53e5131abcced9e52be6c507b62d639685fbed6d8c838c8e8d830281151561093657fe5b048a33604051600160a060020a0396871681526020810195909552928516604080860191909152606085019290925284166080840152921660a082015260c001905180910390a15b505050505050505050505050565b60008581811161099b57600080fd5b600160a060020a038816600090815260036020526040902054889060ff1615156109c457600080fd5b85600081116109d257600080fd5b600160a060020a038816600090815260036020526040902054889060ff1615156109fb57600080fd5b438711610a0757600080fd5b610a3a6103e8610a226002548b611d5a90919063ffffffff16565b811515610a2b57fe5b8a91900463ffffffff611d4016565b600160a060020a03808b16600090815260046020908152604080832033909416835292905220541015610a6c57600080fd5b6002308c8c8c8c8c8c6000604051602001526040516c01000000000000000000000000600160a060020a0398891681028252968816870260148201526028810195909552929095169093026048830152605c820192909252607c810192909252609c82015260bc0160206040518083038160008661646e5a03f11515610af157600080fd5b50506040518051600160a060020a0333908116600090815260056020908152604080832085845290915290819020805460ff191660011790559197507f3f7f2eda73683c21a15f9435af1028c93185b5f1fa38270762dc32be606b3e8592508d918d918d918d918d918d919051600160a060020a03978816815260208101969096529386166040808701919091526060860193909352608085019190915260a0840152921660c082015260e001905180910390a15b5b505b505b505b5050505050505050565b600660209081526000928352604080842090915290825290205481565b60006002308b8b8b8b8b8b6000604051602001526040516c01000000000000000000000000600160a060020a0398891681028252968816870260148201526028810195909552929095169093026048830152605c820192909252607c810192909252609c82015260bc0160206040518083038160008661646e5a03f11515610c5b57600080fd5b50506040518051600160a060020a033316600090815260056020908152604080832084845290915290205490925060ff16905080610d50575033600160a060020a03166001826040517f19457468657265756d205369676e6564204d6573736167653a0a3332000000008152601c810191909152603c0160405180910390208686866040516000815260200160405260006040516020015260405193845260ff90921660208085019190915260408085019290925260608401929092526080909201915160208103908084039060008661646e5a03f11515610d3c57600080fd5b505060206040510351600160a060020a0316145b1515610d5b57600080fd5b33600160a060020a0381166000908152600660209081526040808320858452909152908190208b90557f1e0b760c386003e9cb9bcf4fcf3997886042859d9b6ed6320e804597fcdb28b0918c918c918c918c918c918c91908c908c908c9051600160a060020a039a8b16815260208101999099529689166040808a01919091526060890196909652608088019490945260a087019290925290951660c085015260ff90941660e084015261010083019390935261012082015261014001905180910390a15b50505050505050505050565b8060008111610e3a57600080fd5b33600160a060020a0316600090815260008051602061203c833981519152602052604090205482901015610e6d57600080fd5b33600160a060020a0316600090815260008051602061203c8339815191526020526040902054610ea3908363ffffffff61202416565b33600160a060020a0316600081815260008051602061203c833981519152602052604090819020929092559083156108fc0290849051600060405180830381858888f193505050501515610ef657600080fd5b33600160a060020a038116600090815260008051602061203c8339815191526020526040808220547ff341246adaac6f497bc2a656f546ab9e182111d630394f0c57c710a59a2cb567939186919051600160a060020a0394851681529290931660208301526040808301919091526060820192909252608001905180910390a15b5b5050565b81600160a060020a0381161515610f9257600080fd5b8160008111610fa057600080fd5b600160a060020a038416600090815260036020526040902054849060ff161515610fc957600080fd5b84600160a060020a03166323b872dd33308760006040516020015260405160e060020a63ffffffff8616028152600160a060020a0393841660048201529190921660248201526044810191909152606401602060405180830381600087803b151561103357600080fd5b6102c65a03f1151561104457600080fd5b50505060405180519050151561105957600080fd5b600160a060020a0380861660009081526004602090815260408083203390941683529290522054611090908563ffffffff611d4016565b600160a060020a038681166000908152600460209081526040808320339485168452909152908190208390557fdcbc1c05240f31ff3ad067ef1ee35ce4997762752e3a095284754544f4c709d79288929188919051600160a060020a0394851681529290931660208301526040808301919091526060820192909252608001905180910390a15b5b505b505b505050565b60005433600160a060020a0390811691161461113c57600080fd5b600054600160a060020a0316ff5b5b565b6000806002308d8d8d8d8d8d6000604051602001526040516c01000000000000000000000000600160a060020a0398891681028252968816870260148201526028810195909552929095169093026048830152605c820192909252607c810192909252609c82015260bc0160206040518083038160008661646e5a03f115156111d557600080fd5b50506040518051600160a060020a038816600090815260066020908152604080832084845290915290205493509150505b509a9950505050505050505050565b600460209081526000928352604080842090915290825290205481565b600160a060020a03811660009081526003602052604090205460ff165b919050565b60005433600160a060020a0390811691161461126f57600080fd5b80600160a060020a038116151561128557600080fd5b600160a060020a03821660009081526003602052604090205460ff1615156112ac57600080fd5b600160a060020a0382166000908152600360205260409020805460ff191690555b5b505b50565b600154600160a060020a031681565b600160a060020a03808d16600090815260046020908152604080832093851683529290529081205483901080159061132b5750826113288e8e8e8e8e8e8e8e8e8e611ac7565b10155b15156113395750600061133d565b5060015b9c9b505050505050505050505050565b60005433600160a060020a0390811691161461136857600080fd5b80600160a060020a038116151561137e57600080fd5b6001805473ffffffffffffffffffffffffffffffffffffffff1916600160a060020a0384161790555b5b505b50565b60005433600160a060020a039081169116146113c857600080fd5b60028190555b5b50565b600054600160a060020a031681565b81600160a060020a03811615156113f757600080fd5b816000811161140557600080fd5b600160a060020a038416600090815260036020526040902054849060ff16151561142e57600080fd5b600160a060020a03808616600090815260046020908152604080832033909416835292905220548490101561146257600080fd5b600160a060020a0380861660009081526004602090815260408083203390941683529290522054611499908563ffffffff61202416565b600160a060020a03808716600081815260046020908152604080832033958616845290915280822094909455909263a9059cbb92918891516020015260405160e060020a63ffffffff8516028152600160a060020a0390921660048301526024820152604401602060405180830381600087803b151561151857600080fd5b6102c65a03f1151561152957600080fd5b50505060405180519050151561153e57600080fd5b600160a060020a03808616600090815260046020908152604080832033948516845290915290819020547ff341246adaac6f497bc2a656f546ab9e182111d630394f0c57c710a59a2cb5679288929091889151600160a060020a0394851681529290931660208301526040808301919091526060820192909252608001905180910390a15b5b505b505b505050565b81600081116115db57600080fd5b600160a060020a03821615156115f057600080fd5b33600160a060020a0316600090815260008051602061203c83398151915260205260409020548390101561162357600080fd5b33600160a060020a0316600090815260008051602061203c8339815191526020526040902054611659908463ffffffff61202416565b600160a060020a03338116600090815260008051602061203c833981519152602052604080822093909355908416815220546116959084611d40565b600160a060020a03838116600090815260008051602061203c833981519152602052604080822093909355339091168152818120547fcb9ad3aef36b27bddceadfa92c85839204367a730e485018b100707bf333fc96928691869151600160a060020a039485168152602081019390935292166040808301919091526060820192909252608001905180910390a15b5b505050565b600560209081526000928352604080842090915290825290205460ff1681565b60025481565b6000341161175d57600080fd5b33600160a060020a0316600090815260008051602061203c8339815191526020526040902054611793903463ffffffff611d4016565b33600160a060020a038116600090815260008051602061203c83398151915260205260408082208490557fdcbc1c05240f31ff3ad067ef1ee35ce4997762752e3a095284754544f4c709d793919291349151600160a060020a0394851681529290931660208301526040808301919091526060820192909252608001905180910390a15b565b60005433600160a060020a0390811691161461183457600080fd5b80600160a060020a038116151561184a57600080fd5b600160a060020a03821660009081526003602052604090205460ff161561187057600080fd5b600160a060020a0382166000908152600360205260409020805460ff191660011790555b5b505b50565b60036020526000908152604090205460ff1681565b60005433600160a060020a039081169116146118ca57600080fd5b600160a060020a03811615156118df57600080fd5b6000805473ffffffffffffffffffffffffffffffffffffffff1916600160a060020a0383161790555b5b50565b600160a060020a038316600090815260036020526040902054839060ff16151561193557600080fd5b826000811161194357600080fd5b600160a060020a038316151561195857600080fd5b600160a060020a03808616600090815260046020908152604080832033909416835292905220548490101561198c57600080fd5b600160a060020a03808616600090815260046020908152604080832033909416835292905220546119c3908563ffffffff61202416565b600160a060020a038681166000908152600460209081526040808320338516845290915280822093909355908516815220546119ff9085611d40565b600160a060020a038681166000908152600460209081526040808320888516845290915280822093909355339091168152819020547fcb9ad3aef36b27bddceadfa92c85839204367a730e485018b100707bf333fc96918791879187919051600160a060020a039485168152602081019390935292166040808301919091526060820192909252608001905180910390a15b5b505b50505050565b600160a060020a038083166000908152600460209081526040808320938516835292905220545b92915050565b60008060006002308e8e8e8e8e8e6000604051602001526040516c01000000000000000000000000600160a060020a0398891681028252968816870260148201526028810195909552929095169093026048830152605c820192909252607c810192909252609c82015260bc0160206040518083038160008661646e5a03f11515611b5157600080fd5b50506040518051600160a060020a038916600090815260056020908152604080832084845290915290205490935060ff16905080611c46575086600160a060020a03166001836040517f19457468657265756d205369676e6564204d6573736167653a0a3332000000008152601c810191909152603c0160405180910390208888886040516000815260200160405260006040516020015260405193845260ff90921660208085019190915260408085019290925260608401929092526080909201915160208103908084039060008661646e5a03f11515611c3257600080fd5b505060206040510351600160a060020a0316145b8015611c525750884311155b1515611c615760009250611d2f565b600160a060020a0387166000908152600660209081526040808320858452909152902054611c96908d9063ffffffff61202416565b600160a060020a03808d166000908152600460209081526040808320938c16835292905220549091508a90611cd1908e63ffffffff611d5a16565b811515611cda57fe5b04811015611cea57809250611d2f565b600160a060020a03808c166000908152600460209081526040808320938b16835292905220548a90611d22908e63ffffffff611d5a16565b811515611d2b57fe5b0492505b5b50509a9950505050505050505050565b600082820183811015611d4f57fe5b8091505b5092915050565b6000828202831580611d765750828482811515611d7357fe5b04145b1515611d4f57fe5b8091505b5092915050565b6000806103e8611da460025485611d5a90919063ffffffff16565b811515611dad57fe5b0491506103e8611de360025489611dcd878a611d5a90919063ffffffff16565b811515611dd657fe5b049063ffffffff611d5a16565b811515611dec57fe5b049050611e35611e02848463ffffffff611d4016565b600160a060020a03808b16600090815260046020908152604080832033909416835292905220549063ffffffff61202416565b600160a060020a03898116600090815260046020908152604080832033851684529091528082209390935590861681522054611e719084611d40565b600160a060020a03898116600090815260046020908152604080832089851684529091528082209390935560015490911681522054611eb09083611d40565b600160a060020a03808a16600090815260046020908152604080832060015490941683529290522055611f39611f078289611ef1898863ffffffff611d5a16565b811515611efa57fe5b049063ffffffff611d4016565b600160a060020a038089166000908152600460209081526040808320938a16835292905220549063ffffffff61202416565b600160a060020a03808816600090815260046020908152604080832093891683529290522055611fb187611f73878663ffffffff611d5a16565b811515611f7c57fe5b600160a060020a03808a166000908152600460209081526040808320339094168352929052205491900463ffffffff611d4016565b600160a060020a03878116600090815260046020908152604080832033851684529091528082209390935560015490911681522054611ff09082611d40565b600160a060020a038088166000908152600460209081526040808320600154909416835292905220555b5050505050505050565b60008282111561203057fe5b508082035b92915050560017ef568e3e12ab5b9c7254a8d58478811de00f9e6eb34345acd53bf8fd09d3eca165627a7a72305820ff38a0b3abf339dacf87bef925076261faaab6a6fd130f681b5290e5b43fca020029",
  "source": "pragma solidity ^0.4.15;\n\nimport \"./SafeMath.sol\";\nimport \"./Ownable.sol\";\nimport \"./MiniMeToken.sol\";\n\ncontract SolaExchange is Ownable {\n  using SafeMath for uint;\n\n  address public feeAccount; //the account that will receive fees\n  uint public feeTake; // thousandth\n  mapping(address => bool) public tokensAllowed; // tokens which can be trade here\n  mapping (address => mapping (address => uint)) public tokens; //mapping of token addresses to mapping of account balances (token=0 means Ether)\n  mapping (address => mapping (bytes32 => bool)) public orders; //mapping of user accounts to mapping of order hashes to booleans (true = submitted by user, equivalent to offchain signature)\n  mapping (address => mapping (bytes32 => uint)) public orderFills; //mapping of user accounts to mapping of order hashes to uints (amount of order that has been filled)\n\n  event Order(address tokenGet, uint amountGet, address tokenGive, uint amountGive, uint expires, uint nonce, address user);\n  event Cancel(address tokenGet, uint amountGet, address tokenGive, uint amountGive, uint expires, uint nonce, address user, uint8 v, bytes32 r, bytes32 s);\n  event Trade(address tokenGet, uint amountGet, address tokenGive, uint amountGive, address get, address give);\n  event Deposit(address token, address user, uint amount, uint balance);\n  event Withdraw(address token, address user, uint amount, uint balance);\n  event Transfer(address token, uint amount, address receiver, uint balance);\n\n  modifier nonZeroAddress(address x) {\n    require(x != 0x0);\n    _;\n  }\n\n  modifier notZero(uint x) {\n    require(x > 0);\n    _;\n  }\n\n  modifier needTokenAllowed(address x) {\n    require(tokensAllowed[x]);\n    _;\n  }\n\n  function SolaExchange(address _feeAccount, uint _feeTake) nonZeroAddress(_feeAccount) {\n    feeAccount = _feeAccount;\n    feeTake = _feeTake;\n    tokensAllowed[0] = true;\n  }\n\n  function() {\n    revert();\n  }\n\n  function changeFeeAccount(address _newFeeAccount) onlyOwner nonZeroAddress(_newFeeAccount) {\n    feeAccount = _newFeeAccount;\n  }\n\n  function changeFeeTake(uint _newFeeTake) onlyOwner {\n    feeTake = _newFeeTake;\n  }\n\n  function addToken(address token) onlyOwner nonZeroAddress(token) {\n    require(!tokensAllowed[token]);\n    tokensAllowed[token] = true;\n  }\n\n  function removeToken(address token) onlyOwner nonZeroAddress(token) {\n    require(tokensAllowed[token]);\n    tokensAllowed[token] = false;\n  }\n\n  function deposit() payable {\n    require(msg.value > 0);\n    tokens[0][msg.sender] = tokens[0][msg.sender].add(msg.value);\n    Deposit(0, msg.sender, msg.value, tokens[0][msg.sender]);\n  }\n\n  function withdraw(uint amount) notZero(amount) {\n    require(tokens[0][msg.sender] >= amount);\n    tokens[0][msg.sender] = tokens[0][msg.sender].sub(amount);\n    msg.sender.transfer(amount);\n    Withdraw(0, msg.sender, amount, tokens[0][msg.sender]);\n  }\n\n  function transfer(uint amount, address receiver) notZero(amount) {\n    require(receiver != 0x0);\n    require(tokens[0][msg.sender] >= amount);\n    tokens[0][msg.sender] = tokens[0][msg.sender].sub(amount);\n    tokens[0][receiver] = tokens[0][receiver].add(amount);\n    Transfer(0, amount, receiver, tokens[0][msg.sender]);\n  }\n\n  function depositToken(address token, uint amount) nonZeroAddress(token) notZero(amount) needTokenAllowed(token) {\n    //remember to call Token(address).approve(this, amount) or this contract will not be able to do the transfer on your behalf.\n    if (!MiniMeToken(token).transferFrom(msg.sender, this, amount)) revert();\n    tokens[token][msg.sender] = tokens[token][msg.sender].add(amount);\n    Deposit(token, msg.sender, amount, tokens[token][msg.sender]);\n  }\n\n  function withdrawToken(address token, uint amount) nonZeroAddress(token) notZero(amount) needTokenAllowed(token) {\n    require(tokens[token][msg.sender] >= amount);\n    tokens[token][msg.sender] = tokens[token][msg.sender].sub(amount);\n    if (!MiniMeToken(token).transfer(msg.sender, amount)) revert();\n    Withdraw(token, msg.sender, amount, tokens[token][msg.sender]);\n  }\n\n  function transferToken(address token, uint amount, address receiver) needTokenAllowed(token) notZero(amount) {\n    require(receiver != 0x0);\n    require(tokens[token][msg.sender] >= amount);\n    tokens[token][msg.sender] = tokens[token][msg.sender].sub(amount);\n    tokens[token][receiver] = tokens[token][receiver].add(amount);\n    Transfer(token, amount, receiver, tokens[token][msg.sender]);\n  }\n\n  function balanceOf(address token, address user) constant returns (uint) {\n    return tokens[token][user];\n  }\n\n  function order(address tokenGet, uint amountGet, address tokenGive, uint amountGive, uint expires, uint nonce)\n    notZero(amountGet)\n    needTokenAllowed(tokenGet)\n    notZero(amountGive)\n    needTokenAllowed(tokenGive)\n  {\n    require(expires > block.number);\n    require(tokens[tokenGive][msg.sender] >= amountGive.add(amountGive.mul(feeTake)/1000));\n    bytes32 hash = sha256(this, tokenGet, amountGet, tokenGive, amountGive, expires, nonce);\n    orders[msg.sender][hash] = true;\n    Order(tokenGet, amountGet, tokenGive, amountGive, expires, nonce, msg.sender);\n  }\n\n  function trade(address tokenGet, uint amountGet, address tokenGive, uint amountGive, uint expires, uint nonce, address user, uint8 v, bytes32 r, bytes32 s, uint amount) {\n    //amount is in amountGet terms\n    bytes32 hash = sha256(this, tokenGet, amountGet, tokenGive, amountGive, expires, nonce);\n    if (!(\n      (orders[user][hash] || ecrecover(sha3(\"\\x19Ethereum Signed Message:\\n32\", hash),v,r,s) == user) &&\n      block.number <= expires &&\n      (orderFills[user][hash].add(amount)) <= amountGet\n    )) revert();\n    require(tokens[tokenGet][msg.sender] >= amount.add(amount.mul(feeTake)/1000));\n    tradeBalances(tokenGet, amountGet, tokenGive, amountGive, user, amount);\n    orderFills[user][hash] = orderFills[user][hash].add(amount);\n    Trade(tokenGet, amount, tokenGive, amountGive * amount / amountGet, user, msg.sender);\n  }\n\n  function tradeBalances(address tokenGet, uint amountGet, address tokenGive, uint amountGive, address user, uint amount) private {\n    uint feeTakeGet = amount.mul(feeTake) / 1000;\n    uint feeTakeGive = (amountGive.mul(amount) / amountGet).mul(feeTake) / 1000;\n    tokens[tokenGet][msg.sender] = tokens[tokenGet][msg.sender].sub(amount.add(feeTakeGet));\n    tokens[tokenGet][user] = tokens[tokenGet][user].add(amount);\n    tokens[tokenGet][feeAccount] = tokens[tokenGet][feeAccount].add(feeTakeGet);\n    tokens[tokenGive][user] = tokens[tokenGive][user].sub((amountGive.mul(amount) / amountGet).add(feeTakeGive));\n    tokens[tokenGive][msg.sender] = tokens[tokenGive][msg.sender].add((amountGive.mul(amount)) / amountGet);\n    tokens[tokenGive][feeAccount] = tokens[tokenGive][feeAccount].add(feeTakeGive);\n  }\n\n  function testTrade(address tokenGet, uint amountGet, address tokenGive, uint amountGive, uint expires, uint nonce, address user, uint8 v, bytes32 r, bytes32 s, uint amount, address sender) constant returns(bool) {\n    if (!(\n      tokens[tokenGet][sender] >= amount &&\n      availableVolume(tokenGet, amountGet, tokenGive, amountGive, expires, nonce, user, v, r, s) >= amount\n    )) return false;\n    return true;\n  }\n\n  function availableVolume(address tokenGet, uint amountGet, address tokenGive, uint amountGive, uint expires, uint nonce, address user, uint8 v, bytes32 r, bytes32 s) constant returns(uint) {\n    bytes32 hash = sha256(this, tokenGet, amountGet, tokenGive, amountGive, expires, nonce);\n    if (!(\n      (orders[user][hash] || ecrecover(sha3(\"\\x19Ethereum Signed Message:\\n32\", hash),v,r,s) == user) &&\n      block.number <= expires\n    )) return 0;\n    uint available1 = amountGet.sub(orderFills[user][hash]);\n    if ( available1 < (tokens[tokenGive][user].mul(amountGet) / amountGive))\n      return available1;\n    else\n      return tokens[tokenGive][user].mul(amountGet) / amountGive;\n  }\n\n  function amountFilled(address tokenGet, uint amountGet, address tokenGive, uint amountGive, uint expires, uint nonce, address user, uint8 v, bytes32 r, bytes32 s) constant returns(uint) {\n    bytes32 hash = sha256(this, tokenGet, amountGet, tokenGive, amountGive, expires, nonce);\n    return orderFills[user][hash];\n  }\n\n  function cancelOrder(address tokenGet, uint amountGet, address tokenGive, uint amountGive, uint expires, uint nonce, uint8 v, bytes32 r, bytes32 s) {\n    bytes32 hash = sha256(this, tokenGet, amountGet, tokenGive, amountGive, expires, nonce);\n    if (!(orders[msg.sender][hash] || ecrecover(sha3(\"\\x19Ethereum Signed Message:\\n32\", hash),v,r,s) == msg.sender)) revert();\n    orderFills[msg.sender][hash] = amountGet;\n    Cancel(tokenGet, amountGet, tokenGive, amountGive, expires, nonce, msg.sender, v, r, s);\n  }\n\n  function tokenAllowed(address token) constant returns(bool) {\n    return tokensAllowed[token];\n  }\n\n  // only for test, need to be removed in production\n  function kill() public onlyOwner {\n    selfdestruct(owner);\n  }\n}\n",
  "sourcePath": "/Users/iisaint/Workspace/Solar-ICO/sola-exchange/contracts/SolaExchange.sol",
  "schemaVersion": "1.0.0",
  "updatedAt": "2017-10-30T15:03:04.910Z"
}