{
  "contractName": "SttwStore",
  "abi": [
    {
      "constant": true,
      "inputs": [],
      "name": "totalSupply",
      "outputs": [
        {
          "name": "",
          "type": "uint256"
        }
      ],
      "payable": false,
      "type": "function"
    },
    {
      "constant": false,
      "inputs": [
        {
          "name": "usdTwd",
          "type": "address"
        }
      ],
      "name": "updateUsdTwdPriceAddress",
      "outputs": [],
      "payable": false,
      "type": "function"
    },
    {
      "constant": false,
      "inputs": [],
      "name": "kill",
      "outputs": [],
      "payable": false,
      "type": "function"
    },
    {
      "constant": true,
      "inputs": [],
      "name": "usd_twd",
      "outputs": [
        {
          "name": "",
          "type": "address"
        }
      ],
      "payable": false,
      "type": "function"
    },
    {
      "constant": false,
      "inputs": [
        {
          "name": "ethUsd",
          "type": "address"
        }
      ],
      "name": "updateEthUsdPriceAddress",
      "outputs": [],
      "payable": false,
      "type": "function"
    },
    {
      "constant": false,
      "inputs": [
        {
          "name": "newRetailer",
          "type": "address"
        }
      ],
      "name": "changeRetailer",
      "outputs": [],
      "payable": false,
      "type": "function"
    },
    {
      "constant": true,
      "inputs": [],
      "name": "retailer",
      "outputs": [
        {
          "name": "",
          "type": "address"
        }
      ],
      "payable": false,
      "type": "function"
    },
    {
      "constant": true,
      "inputs": [
        {
          "name": "decimal",
          "type": "uint256"
        }
      ],
      "name": "getEthUsdPrice",
      "outputs": [
        {
          "name": "",
          "type": "uint256"
        }
      ],
      "payable": false,
      "type": "function"
    },
    {
      "constant": false,
      "inputs": [
        {
          "name": "owner",
          "type": "address"
        },
        {
          "name": "amount",
          "type": "uint256"
        }
      ],
      "name": "buyToken",
      "outputs": [],
      "payable": false,
      "type": "function"
    },
    {
      "constant": true,
      "inputs": [
        {
          "name": "weiAmount",
          "type": "uint256"
        }
      ],
      "name": "calculateBuyTokenUsingEth",
      "outputs": [
        {
          "name": "",
          "type": "uint256"
        }
      ],
      "payable": false,
      "type": "function"
    },
    {
      "constant": true,
      "inputs": [
        {
          "name": "owner",
          "type": "address"
        }
      ],
      "name": "balanceOf",
      "outputs": [
        {
          "name": "",
          "type": "uint256"
        }
      ],
      "payable": false,
      "type": "function"
    },
    {
      "constant": false,
      "inputs": [
        {
          "name": "amount",
          "type": "uint256"
        }
      ],
      "name": "sellTokenForEth",
      "outputs": [],
      "payable": false,
      "type": "function"
    },
    {
      "constant": true,
      "inputs": [],
      "name": "owner",
      "outputs": [
        {
          "name": "",
          "type": "address"
        }
      ],
      "payable": false,
      "type": "function"
    },
    {
      "constant": false,
      "inputs": [],
      "name": "buyTokenUsingEth",
      "outputs": [],
      "payable": true,
      "type": "function"
    },
    {
      "constant": true,
      "inputs": [
        {
          "name": "decimal",
          "type": "uint256"
        }
      ],
      "name": "getUsdTwdPrice",
      "outputs": [
        {
          "name": "",
          "type": "uint256"
        }
      ],
      "payable": false,
      "type": "function"
    },
    {
      "constant": true,
      "inputs": [
        {
          "name": "tokenAmount",
          "type": "uint256"
        }
      ],
      "name": "calculateSellTokenForEth",
      "outputs": [
        {
          "name": "",
          "type": "uint256"
        }
      ],
      "payable": false,
      "type": "function"
    },
    {
      "constant": true,
      "inputs": [],
      "name": "usd_twd_decimal",
      "outputs": [
        {
          "name": "",
          "type": "uint256"
        }
      ],
      "payable": false,
      "type": "function"
    },
    {
      "constant": true,
      "inputs": [],
      "name": "eth_usd",
      "outputs": [
        {
          "name": "",
          "type": "address"
        }
      ],
      "payable": false,
      "type": "function"
    },
    {
      "constant": false,
      "inputs": [
        {
          "name": "decimal",
          "type": "uint256"
        }
      ],
      "name": "updateEthUsdDecimal",
      "outputs": [],
      "payable": false,
      "type": "function"
    },
    {
      "constant": false,
      "inputs": [
        {
          "name": "newOwner",
          "type": "address"
        }
      ],
      "name": "transferOwnership",
      "outputs": [],
      "payable": false,
      "type": "function"
    },
    {
      "constant": false,
      "inputs": [
        {
          "name": "owner",
          "type": "address"
        },
        {
          "name": "amount",
          "type": "uint256"
        }
      ],
      "name": "sellToken",
      "outputs": [],
      "payable": false,
      "type": "function"
    },
    {
      "constant": true,
      "inputs": [],
      "name": "eth_usd_decimal",
      "outputs": [
        {
          "name": "",
          "type": "uint256"
        }
      ],
      "payable": false,
      "type": "function"
    },
    {
      "constant": false,
      "inputs": [
        {
          "name": "decimal",
          "type": "uint256"
        }
      ],
      "name": "updateUsdTwdDecimal",
      "outputs": [],
      "payable": false,
      "type": "function"
    },
    {
      "constant": true,
      "inputs": [],
      "name": "tc",
      "outputs": [
        {
          "name": "",
          "type": "address"
        }
      ],
      "payable": false,
      "type": "function"
    },
    {
      "constant": true,
      "inputs": [],
      "name": "token",
      "outputs": [
        {
          "name": "",
          "type": "address"
        }
      ],
      "payable": false,
      "type": "function"
    },
    {
      "inputs": [
        {
          "name": "_tokenController",
          "type": "address"
        },
        {
          "name": "_token",
          "type": "address"
        },
        {
          "name": "_retailer",
          "type": "address"
        },
        {
          "name": "_ethUsd",
          "type": "address"
        },
        {
          "name": "_usdTwd",
          "type": "address"
        }
      ],
      "payable": false,
      "type": "constructor"
    },
    {
      "anonymous": false,
      "inputs": [
        {
          "indexed": false,
          "name": "owner",
          "type": "address"
        },
        {
          "indexed": false,
          "name": "amount",
          "type": "uint256"
        },
        {
          "indexed": false,
          "name": "balance",
          "type": "uint256"
        }
      ],
      "name": "BuyToken",
      "type": "event"
    },
    {
      "anonymous": false,
      "inputs": [
        {
          "indexed": false,
          "name": "owner",
          "type": "address"
        },
        {
          "indexed": false,
          "name": "amount",
          "type": "uint256"
        },
        {
          "indexed": false,
          "name": "balance",
          "type": "uint256"
        }
      ],
      "name": "SellToken",
      "type": "event"
    }
  ],
  "bytecode": "0x6060604052341561000f57600080fd5b60405160a0806115d283398101604052808051919060200180519190602001805191906020018051919060200180519150505b5b60008054600160a060020a03191633600160a060020a03161790555b600160a060020a038516151561007457600080fd5b600160a060020a038416151561008957600080fd5b600160a060020a038216151561009e57600080fd5b600160a060020a03811615156100b357600080fd5b60018054600160a060020a0319908116600160a060020a03888116919091179092556002805482168784161790556003805482168684161781556004805483168685161790556005819055600680549092169284169290921790556007555b50505050505b6114ab806101276000396000f3006060604052361561012d5763ffffffff60e060020a60003504166318160ddd81146101325780633cd579721461015757806341c0e1b514610178578063447513001461018d578063471651b5146101bc578063481d019b146101dd5780634c1249fc146101fe57806367de79061461022d57806368f8fc10146102555780636db319651461027957806370a08231146102a15780637e12392d146102d25780638da5cb5b146102ea578063942097fe1461031957806398c37756146103235780639ea7b7dc1461034b578063ae69692d14610373578063b0fd087114610398578063b52bdcc3146103c7578063f2fde38b146103df578063f464e7db14610400578063f51c6e3d14610424578063f63114b814610449578063f6420e1514610461578063fc0c546a14610490575b600080fd5b341561013d57600080fd5b6101456104bf565b60405190815260200160405180910390f35b341561016257600080fd5b610176600160a060020a0360043516610529565b005b341561018357600080fd5b610176610586565b005b341561019857600080fd5b6101a06105b2565b604051600160a060020a03909116815260200160405180910390f35b34156101c757600080fd5b610176600160a060020a03600435166105c1565b005b34156101e857600080fd5b610176600160a060020a036004351661061e565b005b341561020957600080fd5b6101a0610666565b604051600160a060020a03909116815260200160405180910390f35b341561023857600080fd5b610145600435610675565b60405190815260200160405180910390f35b341561026057600080fd5b610176600160a060020a03600435166024356106ea565b005b341561028457600080fd5b6101456004356108f7565b60405190815260200160405180910390f35b34156102ac57600080fd5b610145600160a060020a0360043516610a38565b60405190815260200160405180910390f35b34156102dd57600080fd5b610176600435610ab5565b005b34156102f557600080fd5b6101a0610d34565b604051600160a060020a03909116815260200160405180910390f35b610176610d43565b005b341561032e57600080fd5b610145600435611081565b60405190815260200160405180910390f35b341561035657600080fd5b6101456004356110f6565b60405190815260200160405180910390f35b341561037e57600080fd5b61014561123e565b60405190815260200160405180910390f35b34156103a357600080fd5b6101a0611244565b604051600160a060020a03909116815260200160405180910390f35b34156103d257600080fd5b610176600435611253565b005b34156103ea57600080fd5b610176600160a060020a0360043516611278565b005b341561040b57600080fd5b610176600160a060020a03600435166024356112d5565b005b341561042f57600080fd5b6101456113eb565b60405190815260200160405180910390f35b341561045457600080fd5b6101766004356113f1565b005b341561046c57600080fd5b6101a0611416565b604051600160a060020a03909116815260200160405180910390f35b341561049b57600080fd5b6101a0611425565b604051600160a060020a03909116815260200160405180910390f35b600254600090600160a060020a03166318160ddd82604051602001526040518163ffffffff1660e060020a028152600401602060405180830381600087803b151561050957600080fd5b6102c65a03f1151561051a57600080fd5b50505060405180519150505b90565b60005433600160a060020a0390811691161461054457600080fd5b600160a060020a038116151561055957600080fd5b6006805473ffffffffffffffffffffffffffffffffffffffff1916600160a060020a0383161790555b5b50565b60005433600160a060020a039081169116146105a157600080fd5b600054600160a060020a0316ff5b5b565b600654600160a060020a031681565b60005433600160a060020a039081169116146105dc57600080fd5b600160a060020a03811615156105f157600080fd5b6004805473ffffffffffffffffffffffffffffffffffffffff1916600160a060020a0383161790555b5b50565b60005433600160a060020a0390811691161461063957600080fd5b6003805473ffffffffffffffffffffffffffffffffffffffff1916600160a060020a0383161790555b5b50565b600354600160a060020a031681565b600454600090600160a060020a031663e757223083836040516020015260405160e060020a63ffffffff84160281526004810191909152602401602060405180830381600087803b15156106c857600080fd5b6102c65a03f115156106d957600080fd5b50505060405180519150505b919050565b6003546000903390600160a060020a0380831691161461070957600080fd5b600254600160a060020a03166370a082313060006040516020015260405160e060020a63ffffffff8416028152600160a060020a039091166004820152602401602060405180830381600087803b151561076257600080fd5b6102c65a03f1151561077357600080fd5b505050604051805192505082821061080f57600254600160a060020a031663a9059cbb858560006040516020015260405160e060020a63ffffffff8516028152600160a060020a0390921660048301526024820152604401602060405180830381600087803b15156107e457600080fd5b6102c65a03f115156107f557600080fd5b50505060405180519050151561080a57600080fd5b61088e565b600154600254600160a060020a039182169163873778fe9116868660405160e060020a63ffffffff8616028152600160a060020a0393841660048201529190921660248201526044810191909152606401600060405180830381600087803b151561087957600080fd5b6102c65a03f1151561088a57600080fd5b5050505b7ff6f342132c7de5e5a1e99c8efae544c94731f3ff093f5c3c97c6973d9415cdfb84846108ba87610a38565b6040518084600160a060020a0316600160a060020a03168152602001838152602001828152602001935050505060405180910390a15b5b50505050565b60045460055460009182918291600160a060020a03169063e757223090836040516020015260405160e060020a63ffffffff84160281526004810191909152602401602060405180830381600087803b151561095257600080fd5b6102c65a03f1151561096357600080fd5b5050506040518051600654600754919450600160a060020a0316915063e75722309060006040516020015260405160e060020a63ffffffff84160281526004810191909152602401602060405180830381600087803b15156109c457600080fd5b6102c65a03f115156109d557600080fd5b505050604051805190509050610a2e600754600a0a610a16600554600a0a610a1685610a0a888b61143490919063ffffffff16565b9063ffffffff61143416565b9063ffffffff61146316565b9063ffffffff61146316565b92505b5050919050565b600254600090600160a060020a03166370a0823183836040516020015260405160e060020a63ffffffff8416028152600160a060020a039091166004820152602401602060405180830381600087803b15156106c857600080fd5b6102c65a03f115156106d957600080fd5b50505060405180519150505b919050565b600454600554600091829182918291600160a060020a039091169063e757223090836040516020015260405160e060020a63ffffffff84160281526004810191909152602401602060405180830381600087803b1515610b1457600080fd5b6102c65a03f11515610b2557600080fd5b5050506040518051600654600754919650600160a060020a0316915063e75722309060006040516020015260405160e060020a63ffffffff84160281526004810191909152602401602060405180830381600087803b1515610b8657600080fd5b6102c65a03f11515610b9757600080fd5b50505060405180519350610bb39050848463ffffffff61143416565b9150610bf2600754600a0a610a0a600554600a0a610a0a868a61146390919063ffffffff16565b9063ffffffff61143416565b9063ffffffff61143416565b9050600160a060020a03301631819011610c0857fe5b600254600160a060020a03166323b872dd33308860006040516020015260405160e060020a63ffffffff8616028152600160a060020a0393841660048201529190921660248201526044810191909152606401602060405180830381600087803b1515610c7457600080fd5b6102c65a03f11515610c8557600080fd5b505050604051805190501515610c9a57600080fd5b600160a060020a03331681156108fc0282604051600060405180830381858888f193505050501515610ccb57600080fd5b7fa8ff15eb642b39da3ab82bb74a87b76cc3e1aef2b82b70bc2a35458386db29aa3386610cf733610a38565b6040518084600160a060020a0316600160a060020a03168152602001838152602001828152602001935050505060405180910390a15b5050505050565b600054600160a060020a031681565b600080808034819011610d5557600080fd5b600454600554600160a060020a039091169063e75722309060006040516020015260405160e060020a63ffffffff84160281526004810191909152602401602060405180830381600087803b1515610dac57600080fd5b6102c65a03f11515610dbd57600080fd5b5050506040518051600654600754919650600160a060020a0316915063e75722309060006040516020015260405160e060020a63ffffffff84160281526004810191909152602401602060405180830381600087803b1515610e1e57600080fd5b6102c65a03f11515610e2f57600080fd5b505050604051805190509250610e88600754600a0a610a16600554600a0a610a1687610a0a8a3461143490919063ffffffff16565b9063ffffffff61143416565b9063ffffffff61146316565b9063ffffffff61146316565b915060008211610e9457fe5b600254600160a060020a03166370a082313060006040516020015260405160e060020a63ffffffff8416028152600160a060020a039091166004820152602401602060405180830381600087803b1515610eed57600080fd5b6102c65a03f11515610efe57600080fd5b5050506040518051915050818110610f9a57600254600160a060020a031663a9059cbb338460006040516020015260405160e060020a63ffffffff8516028152600160a060020a0390921660048301526024820152604401602060405180830381600087803b1515610f6f57600080fd5b6102c65a03f11515610f8057600080fd5b505050604051805190501515610f9557600080fd5b611019565b600154600254600160a060020a039182169163873778fe9116338560405160e060020a63ffffffff8616028152600160a060020a0393841660048201529190921660248201526044810191909152606401600060405180830381600087803b151561100457600080fd5b6102c65a03f1151561101557600080fd5b5050505b7ff6f342132c7de5e5a1e99c8efae544c94731f3ff093f5c3c97c6973d9415cdfb33836108ba33610a38565b6040518084600160a060020a0316600160a060020a03168152602001838152602001828152602001935050505060405180910390a15b50505050565b600654600090600160a060020a031663e757223083836040516020015260405160e060020a63ffffffff84160281526004810191909152602401602060405180830381600087803b15156106c857600080fd5b6102c65a03f115156106d957600080fd5b50505060405180519150505b919050565b600454600554600091829182918291600160a060020a039091169063e757223090836040516020015260405160e060020a63ffffffff84160281526004810191909152602401602060405180830381600087803b151561115557600080fd5b6102c65a03f1151561116657600080fd5b5050506040518051600654600754919550600160a060020a0316915063e75722309060006040516020015260405160e060020a63ffffffff84160281526004810191909152602401602060405180830381600087803b15156111c757600080fd5b6102c65a03f115156111d857600080fd5b505050604051805192506111f49050838363ffffffff61143416565b9050611233600754600a0a610a0a600554600a0a610a0a858a61146390919063ffffffff16565b9063ffffffff61143416565b9063ffffffff61143416565b93505b505050919050565b60075481565b600454600160a060020a031681565b60005433600160a060020a0390811691161461126e57600080fd5b60058190555b5b50565b60005433600160a060020a0390811691161461129357600080fd5b600160a060020a03811615156112a857600080fd5b6000805473ffffffffffffffffffffffffffffffffffffffff1916600160a060020a0383161790555b5b50565b6003543390600160a060020a038083169116146112f157600080fd5b600254600160a060020a03166323b872dd84308560006040516020015260405160e060020a63ffffffff8616028152600160a060020a0393841660048201529190921660248201526044810191909152606401602060405180830381600087803b151561135d57600080fd5b6102c65a03f1151561136e57600080fd5b50505060405180519050151561138357600080fd5b7fa8ff15eb642b39da3ab82bb74a87b76cc3e1aef2b82b70bc2a35458386db29aa83836113af86610a38565b6040518084600160a060020a0316600160a060020a03168152602001838152602001828152602001935050505060405180910390a15b5b505050565b60055481565b60005433600160a060020a0390811691161461140c57600080fd5b60078190555b5b50565b600154600160a060020a031681565b600254600160a060020a031681565b6000828202831580611450575082848281151561144d57fe5b04145b151561145857fe5b8091505b5092915050565b600080828481151561147157fe5b0490508091505b50929150505600a165627a7a72305820b4947f0142b81b2536b7bedd877a2ef67cf302c3f3114c895cbf0e22b1f128e30029",
  "source": "pragma solidity ^0.4.15;\n\nimport \"./Ownable.sol\";\nimport \"./SafeMath.sol\";\n\ninterface TokenController {\n  function generateTokens(address token, address owner, uint amount);\n  function destroyTokens(address token, address owner, uint amount);\n}\n\ninterface EthUsdPrice {\n  function getPrice(uint decimal) returns(uint);\n}\n\ninterface UsdTwdPrice {\n  function getPrice(uint decimal) returns(uint);\n}\n\ninterface ERC20Token {\n  /// @return total amount of tokens\n  function totalSupply() constant returns (uint);\n\n  /// @param _owner The address from which the balance will be retrieved\n  /// @return The balance\n  function balanceOf(address _owner) constant returns (uint256 balance);\n\n  /// @notice send `_value` token to `_to` from `msg.sender`\n  /// @param _to The address of the recipient\n  /// @param _amount The amount of token to be transferred\n  /// @return Whether the transfer was successful or not\n  function transfer(address _to, uint256 _amount) returns (bool success);\n\n  /// @notice send `_value` token to `_to` from `_from` on the condition it is approved by `_from`\n  /// @param _from The address of the sender\n  /// @param _to The address of the recipient\n  /// @param _amount The amount of token to be transferred\n  /// @return Whether the transfer was successful or not\n  function transferFrom(address _from, address _to, uint256 _amount) returns (bool success);\n}\n\ncontract SttwStore is Ownable {\n  using SafeMath for int;\n  using SafeMath for uint;\n\n  TokenController public tc;\n  address public token;\n  address public retailer;\n\n  EthUsdPrice public eth_usd;\n  uint public eth_usd_decimal;\n  UsdTwdPrice public usd_twd;\n  uint public usd_twd_decimal;\n\n  event BuyToken(address owner, uint amount, uint balance);\n  event SellToken(address owner, uint amount, uint balance);\n\n  modifier onlyRetailer(address x) {\n    require(x == retailer);\n    _;\n  }\n\n  function SttwStore(address _tokenController, address _token, address _retailer, address _ethUsd, address _usdTwd) {\n    require(_tokenController != 0x0);\n    require(_token != 0x0);\n    require(_ethUsd != 0x0);\n    require(_usdTwd != 0x0);\n    tc = TokenController(_tokenController);\n    token = _token;\n    retailer = _retailer;\n    eth_usd = EthUsdPrice(_ethUsd);\n    eth_usd_decimal = 3;\n    usd_twd = UsdTwdPrice(_usdTwd);\n    usd_twd_decimal = 3;\n  }\n\n  function changeRetailer(address newRetailer) public onlyOwner {\n    retailer = newRetailer;\n  }\n\n  function buyToken(address owner, uint amount) public onlyRetailer(msg.sender) {\n    uint256 balance = ERC20Token(token).balanceOf(this);\n    if (balance >= amount) {\n      if (!ERC20Token(token).transfer(owner, amount)) revert();\n    } else {\n      tc.generateTokens(token, owner, amount);\n      // if (balance > 0) {\n      //   if (!ERC20Token(token).transfer(owner, balance)) revert();\n      //   uint remaining = amount - balance;\n      //   tc.generateTokens(token, owner, remaining);\n      // } else {\n      //   tc.generateTokens(token, owner, amount);\n      // }\n    }\n    BuyToken(owner, amount, balanceOf(owner));\n  }\n\n  function sellToken(address owner, uint amount) public onlyRetailer(msg.sender) {\n    //remember to call Token(address).approve(this, amount) or this contract will not be able to do the transfer on your behalf.\n    if (!ERC20Token(token).transferFrom(owner, this, amount)) revert();\n    SellToken(owner, amount, balanceOf(owner));\n  }\n\n  function buyTokenUsingEth() public payable {\n    require(msg.value > 0);\n    uint ethUsdPrice = eth_usd.getPrice(eth_usd_decimal);\n    uint usdTwdPrice = usd_twd.getPrice(usd_twd_decimal);\n    \n    // price/eth = ethUsdPrice * usdTwdPrice\n    // amount = msg.value * price / 10**decimal / 10**decimal\n    uint amount = msg.value.mul(ethUsdPrice).mul(usdTwdPrice).div(10**eth_usd_decimal).div(10**usd_twd_decimal);\n    assert(amount > 0);\n    uint256 balance = ERC20Token(token).balanceOf(this);\n    if (balance >= amount) {\n      if (!ERC20Token(token).transfer(msg.sender, amount)) revert();\n    } else {\n      tc.generateTokens(token, msg.sender, amount);\n    }\n\n    BuyToken(msg.sender, amount, balanceOf(msg.sender));\n  }\n\n  function sellTokenForEth(uint amount) public {\n    uint ethUsdPrice = eth_usd.getPrice(eth_usd_decimal);\n    uint usdTwdPrice = usd_twd.getPrice(usd_twd_decimal);\n    // uint price = ethUsdPrice * usdTwdPrice / 10**decimal\n    uint price = ethUsdPrice.mul(usdTwdPrice);\n    uint value = amount.div(price).mul(10 ** eth_usd_decimal).mul(10 ** usd_twd_decimal);\n    assert(this.balance > value);\n\n    //remember to call Token(address).approve(this, amount) or this contract will not be able to do the transfer on your behalf.\n    if (!ERC20Token(token).transferFrom(msg.sender, this, amount)) revert();\n    msg.sender.transfer(value);\n    SellToken(msg.sender, amount, balanceOf(msg.sender));\n  }\n\n  function calculateBuyTokenUsingEth(uint weiAmount) public constant returns(uint) {\n    uint ethUsdPrice = eth_usd.getPrice(eth_usd_decimal);\n    uint usdTwdPrice = usd_twd.getPrice(usd_twd_decimal);\n    \n    // price/eth = ethUsdPrice * usdTwdPrice\n    // amount = msg.value * price / 10**decimal / 10**decimal\n    return weiAmount.mul(ethUsdPrice).mul(usdTwdPrice).div(10**eth_usd_decimal).div(10**usd_twd_decimal);\n  }\n\n  function calculateSellTokenForEth(uint tokenAmount) public constant returns(uint) {\n    uint ethUsdPrice = eth_usd.getPrice(eth_usd_decimal);\n    uint usdTwdPrice = usd_twd.getPrice(usd_twd_decimal);\n    // uint price = ethUsdPrice * usdTwdPrice / 10**decimal\n    uint price = ethUsdPrice.mul(usdTwdPrice);\n    return tokenAmount.div(price).mul(10 ** eth_usd_decimal).mul(10 ** usd_twd_decimal);\n  }\n\n  function updateEthUsdPriceAddress(address ethUsd) public onlyOwner {\n    require(ethUsd != 0x0);\n    eth_usd = EthUsdPrice(ethUsd);\n  }\n\n  function updateEthUsdDecimal(uint decimal) public onlyOwner {\n    eth_usd_decimal = decimal;\n  }\n\n  function updateUsdTwdPriceAddress(address usdTwd) public onlyOwner {\n    require(usdTwd != 0x0);\n    usd_twd = UsdTwdPrice(usdTwd);\n  }\n\n  function updateUsdTwdDecimal(uint decimal) public onlyOwner {\n    usd_twd_decimal = decimal;\n  }\n\n  function getEthUsdPrice(uint decimal) public constant returns(uint) {\n    return eth_usd.getPrice(decimal);\n  }\n\n  function getUsdTwdPrice(uint decimal) public constant returns(uint) {\n    return usd_twd.getPrice(decimal);\n  }\n\n  function totalSupply() constant returns(uint) {\n    return ERC20Token(token).totalSupply();\n  }\n\n  function balanceOf(address owner) constant returns(uint256) {\n    return ERC20Token(token).balanceOf(owner);\n  }\n\n  // todo: remove this\n  function kill() public onlyOwner {\n    selfdestruct(owner);\n  }\n\n}",
  "sourcePath": "/Users/iisaint/Workspace/Solar-ICO/sola-token/contracts/SttwStore.sol",
  "schemaVersion": "1.0.0",
  "updatedAt": "2017-11-13T08:41:48.300Z"
}