{
  "contractName": "TokenController",
  "abi": [
    {
      "constant": false,
      "inputs": [
        {
          "name": "manager",
          "type": "address"
        }
      ],
      "name": "addManager",
      "outputs": [],
      "payable": false,
      "type": "function"
    },
    {
      "constant": false,
      "inputs": [
        {
          "name": "token",
          "type": "address"
        },
        {
          "name": "newController",
          "type": "address"
        }
      ],
      "name": "changeController",
      "outputs": [],
      "payable": false,
      "type": "function"
    },
    {
      "constant": false,
      "inputs": [
        {
          "name": "_from",
          "type": "address"
        },
        {
          "name": "_to",
          "type": "address"
        },
        {
          "name": "_amount",
          "type": "uint256"
        }
      ],
      "name": "onTransfer",
      "outputs": [
        {
          "name": "",
          "type": "bool"
        }
      ],
      "payable": false,
      "type": "function"
    },
    {
      "constant": false,
      "inputs": [
        {
          "name": "token",
          "type": "address"
        },
        {
          "name": "owner",
          "type": "address"
        },
        {
          "name": "amount",
          "type": "uint256"
        }
      ],
      "name": "generateTokens",
      "outputs": [],
      "payable": false,
      "type": "function"
    },
    {
      "constant": true,
      "inputs": [],
      "name": "owner",
      "outputs": [
        {
          "name": "",
          "type": "address"
        }
      ],
      "payable": false,
      "type": "function"
    },
    {
      "constant": false,
      "inputs": [
        {
          "name": "token",
          "type": "address"
        },
        {
          "name": "transfersEnabled",
          "type": "bool"
        }
      ],
      "name": "enableTransfers",
      "outputs": [],
      "payable": false,
      "type": "function"
    },
    {
      "constant": false,
      "inputs": [
        {
          "name": "manager",
          "type": "address"
        }
      ],
      "name": "removeManager",
      "outputs": [],
      "payable": false,
      "type": "function"
    },
    {
      "constant": false,
      "inputs": [
        {
          "name": "token",
          "type": "address"
        },
        {
          "name": "owner",
          "type": "address"
        },
        {
          "name": "amount",
          "type": "uint256"
        }
      ],
      "name": "destroyTokens",
      "outputs": [],
      "payable": false,
      "type": "function"
    },
    {
      "constant": false,
      "inputs": [
        {
          "name": "_owner",
          "type": "address"
        },
        {
          "name": "_spender",
          "type": "address"
        },
        {
          "name": "_amount",
          "type": "uint256"
        }
      ],
      "name": "onApprove",
      "outputs": [
        {
          "name": "",
          "type": "bool"
        }
      ],
      "payable": false,
      "type": "function"
    },
    {
      "constant": false,
      "inputs": [
        {
          "name": "newOwner",
          "type": "address"
        }
      ],
      "name": "transferOwnership",
      "outputs": [],
      "payable": false,
      "type": "function"
    },
    {
      "constant": false,
      "inputs": [
        {
          "name": "_owner",
          "type": "address"
        }
      ],
      "name": "proxyPayment",
      "outputs": [
        {
          "name": "",
          "type": "bool"
        }
      ],
      "payable": true,
      "type": "function"
    },
    {
      "constant": true,
      "inputs": [
        {
          "name": "",
          "type": "address"
        }
      ],
      "name": "managers",
      "outputs": [
        {
          "name": "",
          "type": "bool"
        }
      ],
      "payable": false,
      "type": "function"
    },
    {
      "inputs": [],
      "payable": false,
      "type": "constructor"
    },
    {
      "payable": false,
      "type": "fallback"
    },
    {
      "anonymous": false,
      "inputs": [
        {
          "indexed": false,
          "name": "token",
          "type": "address"
        },
        {
          "indexed": false,
          "name": "owner",
          "type": "address"
        },
        {
          "indexed": false,
          "name": "amount",
          "type": "uint256"
        }
      ],
      "name": "GenerateToken",
      "type": "event"
    },
    {
      "anonymous": false,
      "inputs": [
        {
          "indexed": false,
          "name": "token",
          "type": "address"
        },
        {
          "indexed": false,
          "name": "owner",
          "type": "address"
        },
        {
          "indexed": false,
          "name": "amount",
          "type": "uint256"
        }
      ],
      "name": "DestroyToken",
      "type": "event"
    }
  ],
  "bytecode": "0x6060604052341561000f57600080fd5b5b5b60008054600160a060020a03191633600160a060020a03161790555b5b5b6108618061003e6000396000f3006060604052361561009e5763ffffffff60e060020a6000350416632d06177a81146100b15780633e11e378146100d25780634a393149146100f9578063873778fe146101355780638da5cb5b1461015f578063a8d6e8a61461018e578063ac18de43146101b4578063d6c54bf7146101d5578063da682aeb146100f9578063f2fde38b1461023b578063f48c30541461025c578063fdff9b4d14610284575b34156100a957600080fd5b5b600080fd5b005b34156100bc57600080fd5b6100af600160a060020a03600435166102b7565b005b34156100dd57600080fd5b6100af600160a060020a036004358116906024351661033b565b005b341561010457600080fd5b610121600160a060020a03600435811690602435166044356103ee565b604051901515815260200160405180910390f35b341561014057600080fd5b6100af600160a060020a03600435811690602435166044356103f8565b005b341561016a57600080fd5b61017261053b565b604051600160a060020a03909116815260200160405180910390f35b341561019957600080fd5b6100af600160a060020a0360043516602435151561054a565b005b34156101bf57600080fd5b6100af600160a060020a03600435166105eb565b005b34156101e057600080fd5b6100af600160a060020a036004358116906024351660443561066a565b005b341561010457600080fd5b610121600160a060020a03600435811690602435166044356103ee565b604051901515815260200160405180910390f35b341561024657600080fd5b6100af600160a060020a03600435166107b7565b005b610121600160a060020a0360043516610814565b604051901515815260200160405180910390f35b341561028f57600080fd5b610121600160a060020a0360043516610820565b604051901515815260200160405180910390f35b60005433600160a060020a039081169116146102d257600080fd5b80600160a060020a03811615156102e857600080fd5b600160a060020a03821660009081526001602052604090205460ff161561030e57600080fd5b600160a060020a0382166000908152600160208190526040909120805460ff191690911790555b5b505b50565b60005433600160a060020a0390811691161461035657600080fd5b81600160a060020a038116151561036c57600080fd5b81600160a060020a038116151561038257600080fd5b83600160a060020a0316633cebb8238460405160e060020a63ffffffff8416028152600160a060020a039091166004820152602401600060405180830381600087803b15156103d057600080fd5b6102c65a03f115156103e157600080fd5b5050505b5b505b505b5050565b60015b9392505050565b33600160a060020a03811660009081526001602052604090205460ff16151561042057600080fd5b83600160a060020a038116151561043657600080fd5b83600160a060020a038116151561044c57600080fd5b836000811161045a57600080fd5b86600160a060020a031663827f32c0878760006040516020015260405160e060020a63ffffffff8516028152600160a060020a0390921660048301526024820152604401602060405180830381600087803b15156104b757600080fd5b6102c65a03f115156104c857600080fd5b5050506040518051905015156104dd57600080fd5b7f56907632530777013683cd5501ae3497dca3b269e17431e1f0dc858ae29fc68b878787604051600160a060020a039384168152919092166020820152604080820192909252606001905180910390a15b5b505b505b505b50505050565b600054600160a060020a031681565b33600160a060020a03811660009081526001602052604090205460ff16151561057257600080fd5b82600160a060020a038116151561058857600080fd5b83600160a060020a031663f41e60c58460405160e060020a63ffffffff84160281529015156004820152602401600060405180830381600087803b15156103d057600080fd5b6102c65a03f115156103e157600080fd5b5050505b5b505b505050565b60005433600160a060020a0390811691161461060657600080fd5b80600160a060020a038116151561061c57600080fd5b600160a060020a03821660009081526001602052604090205460ff16151561064357600080fd5b600160a060020a0382166000908152600160205260409020805460ff191690555b5b505b50565b33600160a060020a03811660009081526001602052604090205460ff16151561069257600080fd5b83600160a060020a03811615156106a857600080fd5b83600160a060020a03811615156106be57600080fd5b83600081116106cc57600080fd5b86600160a060020a031663d3ce77fe878760006040516020015260405160e060020a63ffffffff8516028152600160a060020a0390921660048301526024820152604401602060405180830381600087803b151561072957600080fd5b6102c65a03f1151561073a57600080fd5b50505060405180519050151561074f57600080fd5b7fc92f6c008c2940ebc90f62c12cedf2e8763b4e3448ec6d2fa1fdeb30c7ad23f0878787604051600160a060020a039384168152919092166020820152604080820192909252606001905180910390a15b5b505b505b505b50505050565b60015b9392505050565b60005433600160a060020a039081169116146107d257600080fd5b600160a060020a03811615156107e757600080fd5b6000805473ffffffffffffffffffffffffffffffffffffffff1916600160a060020a0383161790555b5b50565b6000806000fd5b919050565b60016020526000908152604090205460ff16815600a165627a7a72305820e0da9ffec275fcccc9eba3bee1ec2ca888f175e9e722fa0d52b0c66fa0c5c2bd0029",
  "source": "pragma solidity ^0.4.15;\n\nimport \"./Ownable.sol\";\nimport \"./SafeMath.sol\";\n\ninterface MiniMeToken {\n  function generateTokens(address _owner, uint _amount) returns (bool);\n  function destroyTokens(address _owner, uint _amount) returns (bool);\n  function enableTransfers(bool _transfersEnabled);\n  function claimTokens(address _token);\n  function changeController(address _newController);\n}\n\ncontract TokenController is Ownable {\n  using SafeMath for int;\n\n  mapping(address => bool) public managers;\n\n  event GenerateToken(address token, address owner, uint amount);\n  event DestroyToken(address token, address owner, uint amount);\n\n  modifier nonZeroAddress(address x) {\n    require(x != 0x0);\n    _;\n  }\n\n  modifier onlyManager(address x) {\n    require(managers[x]);\n    _;\n  }\n\n  modifier nonZero(uint x) {\n    require(x > 0);\n    _;\n  }\n\n  function TokenController() {\n\n  }\n\n  function addManager(address manager) public onlyOwner nonZeroAddress(manager) {\n    require(!managers[manager]);\n    managers[manager] = true;\n  }\n\n  function removeManager(address manager) public onlyOwner nonZeroAddress(manager) {\n    require(managers[manager]);\n    managers[manager] = false;\n  }\n\n  function generateTokens(address token, address owner, uint amount) \n    public \n    onlyManager(msg.sender)\n    nonZeroAddress(token)\n    nonZeroAddress(owner)\n    nonZero(amount)\n  {\n    if(!MiniMeToken(token).generateTokens(owner, amount)) revert();\n    GenerateToken(token, owner, amount);\n  }\n\n  function destroyTokens(address token, address owner, uint amount) \n    public \n    onlyManager(msg.sender)\n    nonZeroAddress(token)\n    nonZeroAddress(owner)\n    nonZero(amount)\n  {\n    if(!MiniMeToken(token).destroyTokens(owner, amount)) revert();\n    DestroyToken(token, owner, amount);\n  }\n\n  function enableTransfers(address token, bool transfersEnabled) \n    public onlyManager(msg.sender) nonZeroAddress(token) \n  {\n    MiniMeToken(token).enableTransfers(transfersEnabled);\n  }\n\n  function changeController(address token, address newController) \n    public\n    onlyOwner\n    nonZeroAddress(token)\n    nonZeroAddress(newController)\n  {\n    MiniMeToken(token).changeController(newController);\n  }\n\n  /////////////////\n  // Controller interface\n  /////////////////\n  function proxyPayment(address _owner) payable public returns (bool) {\n    revert();\n    return false;\n  }\n\n  function onTransfer(address _from, address _to, uint _amount) public returns (bool) {\n    return true;\n  }\n\n  function onApprove(address _owner, address _spender, uint _amount) public returns (bool) {\n    return true;\n  }\n\n  function () {\n    revert();\n  }\n}",
  "sourcePath": "/Users/iisaint/Workspace/Solar-ICO/sola-token/contracts/TokenController.sol",
  "schemaVersion": "1.0.0",
  "updatedAt": "2017-11-13T08:41:48.272Z"
}