{
  "contractName": "UsdTwdPrice",
  "abi": [
    {
      "constant": false,
      "inputs": [
        {
          "name": "myid",
          "type": "bytes32"
        },
        {
          "name": "result",
          "type": "string"
        }
      ],
      "name": "__callback",
      "outputs": [],
      "payable": false,
      "type": "function"
    },
    {
      "constant": false,
      "inputs": [
        {
          "name": "myid",
          "type": "bytes32"
        },
        {
          "name": "result",
          "type": "string"
        },
        {
          "name": "proof",
          "type": "bytes"
        }
      ],
      "name": "__callback",
      "outputs": [],
      "payable": false,
      "type": "function"
    },
    {
      "constant": false,
      "inputs": [],
      "name": "kill",
      "outputs": [],
      "payable": false,
      "type": "function"
    },
    {
      "constant": false,
      "inputs": [],
      "name": "updatePrice",
      "outputs": [],
      "payable": true,
      "type": "function"
    },
    {
      "constant": true,
      "inputs": [],
      "name": "owner",
      "outputs": [
        {
          "name": "",
          "type": "address"
        }
      ],
      "payable": false,
      "type": "function"
    },
    {
      "constant": false,
      "inputs": [
        {
          "name": "_frequency",
          "type": "uint256"
        }
      ],
      "name": "updateFrequency",
      "outputs": [],
      "payable": false,
      "type": "function"
    },
    {
      "constant": true,
      "inputs": [],
      "name": "USDTWD",
      "outputs": [
        {
          "name": "",
          "type": "string"
        }
      ],
      "payable": false,
      "type": "function"
    },
    {
      "constant": true,
      "inputs": [
        {
          "name": "decimal",
          "type": "uint256"
        }
      ],
      "name": "getPrice",
      "outputs": [
        {
          "name": "",
          "type": "uint256"
        }
      ],
      "payable": false,
      "type": "function"
    },
    {
      "constant": true,
      "inputs": [],
      "name": "frequency",
      "outputs": [
        {
          "name": "",
          "type": "uint256"
        }
      ],
      "payable": false,
      "type": "function"
    },
    {
      "constant": false,
      "inputs": [
        {
          "name": "newOwner",
          "type": "address"
        }
      ],
      "name": "transferOwnership",
      "outputs": [],
      "payable": false,
      "type": "function"
    },
    {
      "inputs": [],
      "payable": true,
      "type": "constructor"
    },
    {
      "anonymous": false,
      "inputs": [
        {
          "indexed": false,
          "name": "price",
          "type": "string"
        }
      ],
      "name": "updatedPrice",
      "type": "event"
    },
    {
      "anonymous": false,
      "inputs": [
        {
          "indexed": false,
          "name": "description",
          "type": "string"
        }
      ],
      "name": "newOraclizeQuery",
      "type": "event"
    }
  ],
  "bytecode": "0x60606040525b5b60008054600160a060020a03191633600160a060020a03161790555b603c6007556200003f640100000000620003f16200004682021704565b5b62000dd9565b30600160a060020a0316316200009d60408051908101604052600381527f55524c00000000000000000000000000000000000000000000000000000000006020820152640100000000620009a76200027682021704565b11156200014a57600080516020620022ca8339815191526040516020808252604b908201527f4f7261636c697a6520717565727920776173204e4f542073656e742c20706c656040808301919091527f6173652061646420736f6d652045544820746f20636f76657220666f7220746860608301527f6520717565727920666565000000000000000000000000000000000000000000608083015260a0909101905180910390a162000273565b600080516020620022ca83398151915260405160208082526035908201527f4f7261636c697a65207175657279207761732073656e742c207374616e64696e6040808301919091527f6720627920666f722074686520616e737765722e2e000000000000000000000060608301526080909101905180910390a1620002716007546040805190810160405280600381526020017f55524c000000000000000000000000000000000000000000000000000000000081525060606040519081016040908152603182527f6a736f6e2868747470733a2f2f74772e727465722e696e666f2f636170692e7060208301527f6870292e5553445457442e4578726174650000000000000000000000000000009082015264010000000062000bb9620004ff82021704565b505b5b565b600154600090600160a060020a03161580620002b45750600154620002b290600160a060020a0316640100000000620010aa6200091682021704565b155b15620002d657620002d46000640100000000620010b26200091e82021704565b505b600154600160a060020a03166338cc48316000604051602001526040518163ffffffff167c0100000000000000000000000000000000000000000000000000000000028152600401602060405180830381600087803b15156200033857600080fd5b6102c65a03f115156200034a57600080fd5b5050506040518051600254600160a060020a0390811691161490506200040857600154600160a060020a03166338cc48316000604051602001526040518163ffffffff167c0100000000000000000000000000000000000000000000000000000000028152600401602060405180830381600087803b1515620003cc57600080fd5b6102c65a03f11515620003de57600080fd5b505050604051805160028054600160a060020a031916600160a060020a0392909216919091179055505b600254600160a060020a031663524f3889836000604051602001526040518263ffffffff167c01000000000000000000000000000000000000000000000000000000000281526004018080602001828103825283818151815260200191508051906020019080838360005b838110156200048e5780820151818401525b60200162000473565b50505050905090810190601f168015620004bc5780820380516001836020036101000a031916815260200191505b5092505050602060405180830381600087803b1515620004db57600080fd5b6102c65a03f11515620004ed57600080fd5b50505060405180519150505b5b919050565b6001546000908190600160a060020a031615806200053f57506001546200053d90600160a060020a0316640100000000620010aa6200091682021704565b155b1562000561576200055f6000640100000000620010b26200091e82021704565b505b600154600160a060020a03166338cc48316000604051602001526040518163ffffffff167c0100000000000000000000000000000000000000000000000000000000028152600401602060405180830381600087803b1515620005c357600080fd5b6102c65a03f11515620005d557600080fd5b5050506040518051600254600160a060020a0390811691161490506200069357600154600160a060020a03166338cc48316000604051602001526040518163ffffffff167c0100000000000000000000000000000000000000000000000000000000028152600401602060405180830381600087803b15156200065757600080fd5b6102c65a03f115156200066957600080fd5b505050604051805160028054600160a060020a031916600160a060020a0392909216919091179055505b600254600160a060020a031663524f3889856000604051602001526040518263ffffffff167c01000000000000000000000000000000000000000000000000000000000281526004018080602001828103825283818151815260200191508051906020019080838360005b83811015620007195780820151818401525b602001620006fe565b50505050905090810190601f168015620007475780820380516001836020036101000a031916815260200191505b5092505050602060405180830381600087803b15156200076657600080fd5b6102c65a03f115156200077857600080fd5b5050506040518051915050670de0b6b3a764000062030d403a0201811115620007a557600091506200090d565b600254600160a060020a031663adf59f99828787876000604051602001526040518563ffffffff167c0100000000000000000000000000000000000000000000000000000000028152600401808481526020018060200180602001838103835285818151815260200191508051906020019080838360005b83811015620008385780820151818401525b6020016200081d565b50505050905090810190601f168015620008665780820380516001836020036101000a031916815260200191505b50838103825284818151815260200191508051906020019080838360005b838110156200089f5780820151818401525b60200162000884565b50505050905090810190601f168015620008cd5780820380516001836020036101000a031916815260200191505b50955050505050506020604051808303818588803b1515620008ee57600080fd5b6125ee5a03f115156200090057600080fd5b5050505060405180519250505b5b509392505050565b803b5b919050565b6000806200094e731d3b2638a7cc9f2cb3d298a3da7a90b67e5506ed640100000000620010aa6200091682021704565b1115620009d05760018054600160a060020a031916731d3b2638a7cc9f2cb3d298a3da7a90b67e5506ed179055620009c760408051908101604052600b81527f6574685f6d61696e6e65740000000000000000000000000000000000000000006020820152640100000000620013eb62000d1582021704565b506001620004f9565b6000620009ff73c03a2615d5efaf5f49f60b7bb6583eaec212fdf1640100000000620010aa6200091682021704565b111562000a815760018054600160a060020a03191673c03a2615d5efaf5f49f60b7bb6583eaec212fdf1179055620009c760408051908101604052600c81527f6574685f726f707374656e3300000000000000000000000000000000000000006020820152640100000000620013eb62000d1582021704565b506001620004f9565b600062000ab073b7a07bcf2ba2f2703b24c0691b5278999c59ac7e640100000000620010aa6200091682021704565b111562000b325760018054600160a060020a03191673b7a07bcf2ba2f2703b24c0691b5278999c59ac7e179055620009c760408051908101604052600981527f6574685f6b6f76616e00000000000000000000000000000000000000000000006020820152640100000000620013eb62000d1582021704565b506001620004f9565b600062000b6173146500cfd35b22e4a392fe0adc06de1a1368ed48640100000000620010aa6200091682021704565b111562000be35760018054600160a060020a03191673146500cfd35b22e4a392fe0adc06de1a1368ed48179055620009c760408051908101604052600b81527f6574685f72696e6b6562790000000000000000000000000000000000000000006020820152640100000000620013eb62000d1582021704565b506001620004f9565b600062000c12736f485c8bf6fc43ea212e93bbf8ce046c7f1cb475640100000000620010aa6200091682021704565b111562000c46575060018054600160a060020a031916736f485c8bf6fc43ea212e93bbf8ce046c7f1cb475178155620004f9565b600062000c757320e12a1f859b3feae5fb2a0a32c18f5a65555bbf640100000000620010aa6200091682021704565b111562000ca9575060018054600160a060020a0319167320e12a1f859b3feae5fb2a0a32c18f5a65555bbf178155620004f9565b600062000cd87351efaf4c8b3c9afbd5ab9f4bbc82784ab6ef8faa640100000000620010aa6200091682021704565b111562000d0c575060018054600160a060020a0319167351efaf4c8b3c9afbd5ab9f4bbc82784ab6ef8faa178155620004f9565b5060005b919050565b600381805162000d2a92916020019062000d2f565b505b50565b828054600181600116156101000203166002900490600052602060002090601f016020900481019282601f1062000d7257805160ff191683800117855562000da2565b8280016001018555821562000da2579182015b8281111562000da257825182559160200191906001019062000d85565b5b5062000db192915062000db5565b5090565b62000dd691905b8082111562000db1576000815560010162000dbc565b5090565b90565b6114e18062000de96000396000f300606060405236156100885763ffffffff60e060020a60003504166327dc297e811461008d57806338bbfa50146100e557806341c0e1b51461017f578063673a7e28146101945780638da5cb5b1461019e57806399ba0bc2146101cd578063b51fbd2e146101e5578063e757223014610270578063ead50da314610298578063f2fde38b146102bd575b600080fd5b341561009857600080fd5b6100e3600480359060446024803590810190830135806020601f820181900481020160405190810160405281815292919060208401838380828437509496506102de95505050505050565b005b34156100f057600080fd5b6100e3600480359060446024803590810190830135806020601f8201819004810201604051908101604052818152929190602084018383808284378201915050505050509190803590602001908201803590602001908080601f0160208091040260200160405190810160405281815292919060208401838380828437509496506103bf95505050505050565b005b341561018a57600080fd5b6100e36103c5565b005b6100e36103f1565b005b34156101a957600080fd5b6101b1610622565b604051600160a060020a03909116815260200160405180910390f35b34156101d857600080fd5b6100e3600435610631565b005b34156101f057600080fd5b6101f8610663565b60405160208082528190810183818151815260200191508051906020019080838360005b838110156102355780820151818401525b60200161021c565b50505050905090810190601f1680156102625780820380516001836020036101000a031916815260200191505b509250505060405180910390f35b341561027b57600080fd5b610286600435610701565b60405190815260200160405180910390f35b34156102a357600080fd5b6102866107af565b60405190815260200160405180910390f35b34156102c857600080fd5b6100e3600160a060020a03600435166107b5565b005b6102e6610805565b600160a060020a031633600160a060020a031614151561030557600080fd5b6006818051610318929160200190611403565b507f891acff763972fa7f25226caa78556f59bcb130f6f13fd6ab9b9fef99cff9c698160405160208082528190810183818151815260200191508051906020019080838360005b838110156103785780820151818401525b60200161035f565b50505050905090810190601f1680156103a55780820380516001836020036101000a031916815260200191505b509250505060405180910390a16103ba6103f1565b5b5050565b5b505050565b60005433600160a060020a039081169116146103e057600080fd5b600054600160a060020a0316ff5b5b565b30600160a060020a03163161043860408051908101604052600381527f55524c000000000000000000000000000000000000000000000000000000000060208201526109a7565b11156104f4577f46cb989ef9cef13e930e3b7f286225a086e716a90d63e0b7da85d310a9db0c9a6040516020808252604b908201527f4f7261636c697a6520717565727920776173204e4f542073656e742c20706c656040808301919091527f6173652061646420736f6d652045544820746f20636f76657220666f7220746860608301527f6520717565727920666565000000000000000000000000000000000000000000608083015260a0909101905180910390a16103ee565b7f46cb989ef9cef13e930e3b7f286225a086e716a90d63e0b7da85d310a9db0c9a60405160208082526035908201527f4f7261636c697a65207175657279207761732073656e742c207374616e64696e6040808301919091527f6720627920666f722074686520616e737765722e2e000000000000000000000060608301526080909101905180910390a161061d6007546040805190810160405280600381526020017f55524c0000000000000000000000000000000000000000000000000000000000815250606060405190810160405280603181526020017f6a736f6e2868747470733a2f2f74772e727465722e696e666f2f636170692e7081526020017f6870292e5553445457442e457872617465000000000000000000000000000000815250610bb9565b505b5b565b600054600160a060020a031681565b60005433600160a060020a0390811691161461064c57600080fd5b6000811161065957600080fd5b60078190555b5b50565b60068054600181600116156101000203166002900480601f0160208091040260200160405190810160405280929190818152602001828054600181600116156101000203166002900480156106f95780601f106106ce576101008083540402835291602001916106f9565b820191906000526020600020905b8154815290600101906020018083116106dc57829003601f168201915b505050505081565b60006107a760068054600181600116156101000203166002900480601f01602080910402602001604051908101604052809291908181526020018280546001816001161561010002031660029004801561079c5780601f106107715761010080835404028352916020019161079c565b820191906000526020600020905b81548152906001019060200180831161077f57829003601f168201915b505050505083610f36565b90505b919050565b60075481565b60005433600160a060020a039081169116146107d057600080fd5b600160a060020a03811615156107e557600080fd5b60008054600160a060020a031916600160a060020a0383161790555b5b50565b600154600090600160a060020a03161580610832575060015461083090600160a060020a03166110aa565b155b156108435761084160006110b2565b505b600154600160a060020a03166338cc48316000604051602001526040518163ffffffff1660e060020a028152600401602060405180830381600087803b151561088b57600080fd5b6102c65a03f1151561089c57600080fd5b5050506040518051600254600160a060020a03908116911614905061093e57600154600160a060020a03166338cc48316000604051602001526040518163ffffffff1660e060020a028152600401602060405180830381600087803b151561090357600080fd5b6102c65a03f1151561091457600080fd5b505050604051805160028054600160a060020a031916600160a060020a0392909216919091179055505b600254600160a060020a031663c281d19e6000604051602001526040518163ffffffff1660e060020a028152600401602060405180830381600087803b151561098657600080fd5b6102c65a03f1151561099757600080fd5b50505060405180519150505b5b90565b600154600090600160a060020a031615806109d457506001546109d290600160a060020a03166110aa565b155b156109e5576109e360006110b2565b505b600154600160a060020a03166338cc48316000604051602001526040518163ffffffff1660e060020a028152600401602060405180830381600087803b1515610a2d57600080fd5b6102c65a03f11515610a3e57600080fd5b5050506040518051600254600160a060020a039081169116149050610ae057600154600160a060020a03166338cc48316000604051602001526040518163ffffffff1660e060020a028152600401602060405180830381600087803b1515610aa557600080fd5b6102c65a03f11515610ab657600080fd5b505050604051805160028054600160a060020a031916600160a060020a0392909216919091179055505b600254600160a060020a031663524f3889836000604051602001526040518263ffffffff1660e060020a0281526004018080602001828103825283818151815260200191508051906020019080838360005b83811015610b4b5780820151818401525b602001610b32565b50505050905090810190601f168015610b785780820380516001836020036101000a031916815260200191505b5092505050602060405180830381600087803b1515610b9657600080fd5b6102c65a03f11515610ba757600080fd5b50505060405180519150505b5b919050565b6001546000908190600160a060020a03161580610be85750600154610be690600160a060020a03166110aa565b155b15610bf957610bf760006110b2565b505b600154600160a060020a03166338cc48316000604051602001526040518163ffffffff1660e060020a028152600401602060405180830381600087803b1515610c4157600080fd5b6102c65a03f11515610c5257600080fd5b5050506040518051600254600160a060020a039081169116149050610cf457600154600160a060020a03166338cc48316000604051602001526040518163ffffffff1660e060020a028152600401602060405180830381600087803b1515610cb957600080fd5b6102c65a03f11515610cca57600080fd5b505050604051805160028054600160a060020a031916600160a060020a0392909216919091179055505b600254600160a060020a031663524f3889856000604051602001526040518263ffffffff1660e060020a0281526004018080602001828103825283818151815260200191508051906020019080838360005b83811015610d5f5780820151818401525b602001610d46565b50505050905090810190601f168015610d8c5780820380516001836020036101000a031916815260200191505b5092505050602060405180830381600087803b1515610daa57600080fd5b6102c65a03f11515610dbb57600080fd5b5050506040518051915050670de0b6b3a764000062030d403a0201811115610de65760009150610f2d565b600254600160a060020a031663adf59f99828787876000604051602001526040518563ffffffff1660e060020a028152600401808481526020018060200180602001838103835285818151815260200191508051906020019080838360005b83811015610e5e5780820151818401525b602001610e45565b50505050905090810190601f168015610e8b5780820380516001836020036101000a031916815260200191505b50838103825284818151815260200191508051906020019080838360005b83811015610ec25780820151818401525b602001610ea9565b50505050905090810190601f168015610eef5780820380516001836020036101000a031916815260200191505b50955050505050506020604051808303818588803b1515610f0f57600080fd5b6125ee5a03f11515610f2057600080fd5b5050505060405180519250505b5b509392505050565b6000610f40611482565b5082600080805b835181101561108a577f3000000000000000000000000000000000000000000000000000000000000000848281518110610f7d57fe5b016020015160f860020a900460f860020a02600160f860020a03191610158015610fee57507f3900000000000000000000000000000000000000000000000000000000000000848281518110610fcf57fe5b016020015160f860020a900460f860020a02600160f860020a03191611155b1561104557811561100d578515156110055761108a565b600019909501945b5b600a83029250603084828151811061102257fe5b016020015160f860020a900460f860020a0260f860020a90040383019250611080565b83818151811061105157fe5b016020015160f860020a900460f860020a02600160f860020a031916602e60f860020a02141561108057600191505b5b5b600101610f47565b600086111561109c5785600a0a830292505b8294505b5050505092915050565b803b5b919050565b6000806110d2731d3b2638a7cc9f2cb3d298a3da7a90b67e5506ed6110aa565b11156111425760018054600160a060020a031916731d3b2638a7cc9f2cb3d298a3da7a90b67e5506ed17905561113a60408051908101604052600b81527f6574685f6d61696e6e657400000000000000000000000000000000000000000060208201526113eb565b5060016107aa565b600061116173c03a2615d5efaf5f49f60b7bb6583eaec212fdf16110aa565b11156111d15760018054600160a060020a03191673c03a2615d5efaf5f49f60b7bb6583eaec212fdf117905561113a60408051908101604052600c81527f6574685f726f707374656e33000000000000000000000000000000000000000060208201526113eb565b5060016107aa565b60006111f073b7a07bcf2ba2f2703b24c0691b5278999c59ac7e6110aa565b11156112605760018054600160a060020a03191673b7a07bcf2ba2f2703b24c0691b5278999c59ac7e17905561113a60408051908101604052600981527f6574685f6b6f76616e000000000000000000000000000000000000000000000060208201526113eb565b5060016107aa565b600061127f73146500cfd35b22e4a392fe0adc06de1a1368ed486110aa565b11156112ef5760018054600160a060020a03191673146500cfd35b22e4a392fe0adc06de1a1368ed4817905561113a60408051908101604052600b81527f6574685f72696e6b65627900000000000000000000000000000000000000000060208201526113eb565b5060016107aa565b600061130e736f485c8bf6fc43ea212e93bbf8ce046c7f1cb4756110aa565b1115611340575060018054600160a060020a031916736f485c8bf6fc43ea212e93bbf8ce046c7f1cb4751781556107aa565b600061135f7320e12a1f859b3feae5fb2a0a32c18f5a65555bbf6110aa565b1115611391575060018054600160a060020a0319167320e12a1f859b3feae5fb2a0a32c18f5a65555bbf1781556107aa565b60006113b07351efaf4c8b3c9afbd5ab9f4bbc82784ab6ef8faa6110aa565b11156113e2575060018054600160a060020a0319167351efaf4c8b3c9afbd5ab9f4bbc82784ab6ef8faa1781556107aa565b5060005b919050565b60038180516103ba929160200190611403565b505b50565b828054600181600116156101000203166002900490600052602060002090601f016020900481019282601f1061144457805160ff1916838001178555611471565b82800160010185558215611471579182015b82811115611471578251825591602001919060010190611456565b5b5061147e929150611494565b5090565b60206040519081016040526000815290565b6109a391905b8082111561147e576000815560010161149a565b5090565b905600a165627a7a72305820a3d27760a79015ca6e8baccc7bc60be400641bfeab32053761373804c6f9bba7002946cb989ef9cef13e930e3b7f286225a086e716a90d63e0b7da85d310a9db0c9a",
  "source": "pragma solidity ^0.4.11;\n\nimport \"./Ownable.sol\";\nimport \"./oraclizeAPI.sol\";\n\ncontract UsdTwdPrice is Ownable, usingOraclize {\n\n  string public USDTWD;\n  uint public frequency; // seconds\n  \n  event updatedPrice(string price);\n  event newOraclizeQuery(string description);\n\n  function UsdTwdPrice() payable {\n    frequency = 60;\n    updatePrice();\n  }\n\n  function __callback(bytes32 myid, string result) {\n    require(msg.sender == oraclize_cbAddress());\n    USDTWD = result; // vulnerability here\n    updatedPrice(result);\n    updatePrice();\n  }\n\n  function updatePrice() payable {\n    if (oraclize_getPrice(\"URL\") > this.balance) {\n      newOraclizeQuery(\"Oraclize query was NOT sent, please add some ETH to cover for the query fee\");\n    } else {\n      newOraclizeQuery(\"Oraclize query was sent, standing by for the answer..\");\n      oraclize_query(frequency, \"URL\", \"json(https://tw.rter.info/capi.php).USDTWD.Exrate\");\n    }\n  }\n\n  function updateFrequency(uint _frequency) public onlyOwner {\n    require(_frequency > 0);\n    frequency = _frequency;\n  }\n\n  function getPrice(uint decimal) public constant returns(uint) {\n    return parseInt(USDTWD, decimal);\n  }\n\n  // todo: remove this\n  function kill() public onlyOwner {\n    selfdestruct(owner);\n  }\n}\n",
  "sourcePath": "/Users/iisaint/Workspace/Solar-ICO/sola-token/contracts/UsdTwdPrice.sol",
  "schemaVersion": "1.0.0",
  "updatedAt": "2017-11-13T08:41:48.303Z"
}