{
  "contractName": "SttwStore",
  "abi": [
    {
      "constant": true,
      "inputs": [],
      "name": "totalSupply",
      "outputs": [
        {
          "name": "",
          "type": "uint256"
        }
      ],
      "payable": false,
      "type": "function"
    },
    {
      "constant": false,
      "inputs": [],
      "name": "kill",
      "outputs": [],
      "payable": false,
      "type": "function"
    },
    {
      "constant": false,
      "inputs": [
        {
          "name": "newRetailer",
          "type": "address"
        }
      ],
      "name": "changeRetailer",
      "outputs": [],
      "payable": false,
      "type": "function"
    },
    {
      "constant": true,
      "inputs": [],
      "name": "retailer",
      "outputs": [
        {
          "name": "",
          "type": "address"
        }
      ],
      "payable": false,
      "type": "function"
    },
    {
      "constant": false,
      "inputs": [
        {
          "name": "owner",
          "type": "address"
        },
        {
          "name": "amount",
          "type": "uint256"
        }
      ],
      "name": "buyToken",
      "outputs": [],
      "payable": false,
      "type": "function"
    },
    {
      "constant": true,
      "inputs": [
        {
          "name": "owner",
          "type": "address"
        }
      ],
      "name": "balanceOf",
      "outputs": [
        {
          "name": "",
          "type": "uint256"
        }
      ],
      "payable": false,
      "type": "function"
    },
    {
      "constant": true,
      "inputs": [],
      "name": "owner",
      "outputs": [
        {
          "name": "",
          "type": "address"
        }
      ],
      "payable": false,
      "type": "function"
    },
    {
      "constant": false,
      "inputs": [
        {
          "name": "newOwner",
          "type": "address"
        }
      ],
      "name": "transferOwnership",
      "outputs": [],
      "payable": false,
      "type": "function"
    },
    {
      "constant": false,
      "inputs": [
        {
          "name": "owner",
          "type": "address"
        },
        {
          "name": "amount",
          "type": "uint256"
        }
      ],
      "name": "sellToken",
      "outputs": [],
      "payable": false,
      "type": "function"
    },
    {
      "constant": true,
      "inputs": [],
      "name": "tc",
      "outputs": [
        {
          "name": "",
          "type": "address"
        }
      ],
      "payable": false,
      "type": "function"
    },
    {
      "constant": true,
      "inputs": [],
      "name": "token",
      "outputs": [
        {
          "name": "",
          "type": "address"
        }
      ],
      "payable": false,
      "type": "function"
    },
    {
      "inputs": [
        {
          "name": "_tokenController",
          "type": "address"
        },
        {
          "name": "_token",
          "type": "address"
        },
        {
          "name": "_retailer",
          "type": "address"
        }
      ],
      "payable": false,
      "type": "constructor"
    },
    {
      "anonymous": false,
      "inputs": [
        {
          "indexed": false,
          "name": "owner",
          "type": "address"
        },
        {
          "indexed": false,
          "name": "amount",
          "type": "uint256"
        },
        {
          "indexed": false,
          "name": "balance",
          "type": "uint256"
        }
      ],
      "name": "BuyToken",
      "type": "event"
    },
    {
      "anonymous": false,
      "inputs": [
        {
          "indexed": false,
          "name": "owner",
          "type": "address"
        },
        {
          "indexed": false,
          "name": "amount",
          "type": "uint256"
        },
        {
          "indexed": false,
          "name": "balance",
          "type": "uint256"
        }
      ],
      "name": "SellToken",
      "type": "event"
    }
  ],
  "bytecode": "0x6060604052341561000f57600080fd5b6040516060806108588339810160405280805191906020018051919060200180519150505b5b60008054600160a060020a03191633600160a060020a03161790555b600160a060020a038316151561006657600080fd5b600160a060020a038216151561007b57600080fd5b60018054600160a060020a03808616600160a060020a0319928316179092556002805485841690831617905560038054928416929091169190911790555b5050505b61078c806100cc6000396000f300606060405236156100935763ffffffff60e060020a60003504166318160ddd811461009857806341c0e1b5146100bd578063481d019b146100d25780634c1249fc146100f357806368f8fc101461012257806370a08231146101465780638da5cb5b14610177578063f2fde38b146101a6578063f464e7db146101c7578063f6420e15146101eb578063fc0c546a1461021a575b600080fd5b34156100a357600080fd5b6100ab610249565b60405190815260200160405180910390f35b34156100c857600080fd5b6100d06102b3565b005b34156100dd57600080fd5b6100d0600160a060020a03600435166102df565b005b34156100fe57600080fd5b610106610327565b604051600160a060020a03909116815260200160405180910390f35b341561012d57600080fd5b6100d0600160a060020a0360043516602435610336565b005b341561015157600080fd5b6100ab600160a060020a0360043516610543565b60405190815260200160405180910390f35b341561018257600080fd5b6101066105c0565b604051600160a060020a03909116815260200160405180910390f35b34156101b157600080fd5b6100d0600160a060020a03600435166105cf565b005b34156101d257600080fd5b6100d0600160a060020a036004351660243561062c565b005b34156101f657600080fd5b610106610742565b604051600160a060020a03909116815260200160405180910390f35b341561022557600080fd5b610106610751565b604051600160a060020a03909116815260200160405180910390f35b600254600090600160a060020a03166318160ddd82604051602001526040518163ffffffff1660e060020a028152600401602060405180830381600087803b151561029357600080fd5b6102c65a03f115156102a457600080fd5b50505060405180519150505b90565b60005433600160a060020a039081169116146102ce57600080fd5b600054600160a060020a0316ff5b5b565b60005433600160a060020a039081169116146102fa57600080fd5b6003805473ffffffffffffffffffffffffffffffffffffffff1916600160a060020a0383161790555b5b50565b600354600160a060020a031681565b6003546000903390600160a060020a0380831691161461035557600080fd5b600254600160a060020a03166370a082313060006040516020015260405160e060020a63ffffffff8416028152600160a060020a039091166004820152602401602060405180830381600087803b15156103ae57600080fd5b6102c65a03f115156103bf57600080fd5b505050604051805192505082821061045b57600254600160a060020a031663a9059cbb858560006040516020015260405160e060020a63ffffffff8516028152600160a060020a0390921660048301526024820152604401602060405180830381600087803b151561043057600080fd5b6102c65a03f1151561044157600080fd5b50505060405180519050151561045657600080fd5b6104da565b600154600254600160a060020a039182169163873778fe9116868660405160e060020a63ffffffff8616028152600160a060020a0393841660048201529190921660248201526044810191909152606401600060405180830381600087803b15156104c557600080fd5b6102c65a03f115156104d657600080fd5b5050505b7ff6f342132c7de5e5a1e99c8efae544c94731f3ff093f5c3c97c6973d9415cdfb848461050687610543565b6040518084600160a060020a0316600160a060020a03168152602001838152602001828152602001935050505060405180910390a15b5b50505050565b600254600090600160a060020a03166370a0823183836040516020015260405160e060020a63ffffffff8416028152600160a060020a039091166004820152602401602060405180830381600087803b151561059e57600080fd5b6102c65a03f115156105af57600080fd5b50505060405180519150505b919050565b600054600160a060020a031681565b60005433600160a060020a039081169116146105ea57600080fd5b600160a060020a03811615156105ff57600080fd5b6000805473ffffffffffffffffffffffffffffffffffffffff1916600160a060020a0383161790555b5b50565b6003543390600160a060020a0380831691161461064857600080fd5b600254600160a060020a03166323b872dd84308560006040516020015260405160e060020a63ffffffff8616028152600160a060020a0393841660048201529190921660248201526044810191909152606401602060405180830381600087803b15156106b457600080fd5b6102c65a03f115156106c557600080fd5b5050506040518051905015156106da57600080fd5b7fa8ff15eb642b39da3ab82bb74a87b76cc3e1aef2b82b70bc2a35458386db29aa838361070686610543565b6040518084600160a060020a0316600160a060020a03168152602001838152602001828152602001935050505060405180910390a15b5b505050565b600154600160a060020a031681565b600254600160a060020a0316815600a165627a7a72305820f8b2f7d4c79bcf3df08a8d7abb6addd2cb703329216c29253d0d3567a9e852400029",
  "source": "pragma solidity ^0.4.15;\n\nimport \"./Ownable.sol\";\nimport \"./SafeMath.sol\";\n\ninterface TokenController {\n  function generateTokens(address token, address owner, uint amount);\n  function destroyTokens(address token, address owner, uint amount);\n}\n\ninterface ERC20Token {\n  /// @return total amount of tokens\n  function totalSupply() constant returns (uint);\n\n  /// @param _owner The address from which the balance will be retrieved\n  /// @return The balance\n  function balanceOf(address _owner) constant returns (uint256 balance);\n\n  /// @notice send `_value` token to `_to` from `msg.sender`\n  /// @param _to The address of the recipient\n  /// @param _amount The amount of token to be transferred\n  /// @return Whether the transfer was successful or not\n  function transfer(address _to, uint256 _amount) returns (bool success);\n\n  /// @notice send `_value` token to `_to` from `_from` on the condition it is approved by `_from`\n  /// @param _from The address of the sender\n  /// @param _to The address of the recipient\n  /// @param _amount The amount of token to be transferred\n  /// @return Whether the transfer was successful or not\n  function transferFrom(address _from, address _to, uint256 _amount) returns (bool success);\n}\n\ncontract SttwStore is Ownable {\n  using SafeMath for int;\n\n  TokenController public tc;\n  address public token;\n  address public retailer;\n\n  event BuyToken(address owner, uint amount, uint balance);\n  event SellToken(address owner, uint amount, uint balance);\n\n  modifier onlyRetailer(address x) {\n    require(x == retailer);\n    _;\n  }\n\n  function SttwStore(address _tokenController, address _token, address _retailer) {\n    require(_tokenController != 0x0);\n    require(_token != 0x0);\n    tc = TokenController(_tokenController);\n    token = _token;\n    retailer = _retailer;\n  }\n\n  function changeRetailer(address newRetailer) public onlyOwner {\n    retailer = newRetailer;\n  }\n\n  function buyToken(address owner, uint amount) public onlyRetailer(msg.sender) {\n    uint256 balance = ERC20Token(token).balanceOf(this);\n    if (balance >= amount) {\n      if (!ERC20Token(token).transfer(owner, amount)) revert();\n    } else {\n      tc.generateTokens(token, owner, amount);\n      // if (balance > 0) {\n      //   if (!ERC20Token(token).transfer(owner, balance)) revert();\n      //   uint remaining = amount - balance;\n      //   tc.generateTokens(token, owner, remaining);\n      // } else {\n      //   tc.generateTokens(token, owner, amount);\n      // }\n    }\n    BuyToken(owner, amount, balanceOf(owner));\n  }\n\n  function sellToken(address owner, uint amount) public onlyRetailer(msg.sender) {\n    //remember to call Token(address).approve(this, amount) or this contract will not be able to do the transfer on your behalf.\n    if (!ERC20Token(token).transferFrom(owner, this, amount)) revert();\n    SellToken(owner, amount, balanceOf(owner));\n  }\n\n  function totalSupply() constant returns(uint) {\n    return ERC20Token(token).totalSupply();\n  }\n\n  function balanceOf(address owner) constant returns(uint256) {\n    return ERC20Token(token).balanceOf(owner);\n  }\n\n  function kill() public onlyOwner {\n    selfdestruct(owner);\n  }\n\n}",
  "sourcePath": "/Users/iisaint/Workspace/Solar-ICO/sola-token/contracts/SttwStore.sol",
  "schemaVersion": "1.0.0",
  "updatedAt": "2017-11-03T16:42:43.681Z"
}