{
  "contractName": "STTW",
  "abi": [
    {
      "constant": true,
      "inputs": [],
      "name": "name",
      "outputs": [
        {
          "name": "",
          "type": "string"
        }
      ],
      "payable": false,
      "type": "function"
    },
    {
      "constant": false,
      "inputs": [
        {
          "name": "_spender",
          "type": "address"
        },
        {
          "name": "_amount",
          "type": "uint256"
        }
      ],
      "name": "approve",
      "outputs": [
        {
          "name": "success",
          "type": "bool"
        }
      ],
      "payable": false,
      "type": "function"
    },
    {
      "constant": true,
      "inputs": [],
      "name": "creationBlock",
      "outputs": [
        {
          "name": "",
          "type": "uint256"
        }
      ],
      "payable": false,
      "type": "function"
    },
    {
      "constant": true,
      "inputs": [],
      "name": "totalSupply",
      "outputs": [
        {
          "name": "",
          "type": "uint256"
        }
      ],
      "payable": false,
      "type": "function"
    },
    {
      "constant": false,
      "inputs": [
        {
          "name": "_from",
          "type": "address"
        },
        {
          "name": "_to",
          "type": "address"
        },
        {
          "name": "_amount",
          "type": "uint256"
        }
      ],
      "name": "transferFrom",
      "outputs": [
        {
          "name": "success",
          "type": "bool"
        }
      ],
      "payable": false,
      "type": "function"
    },
    {
      "constant": true,
      "inputs": [],
      "name": "decimals",
      "outputs": [
        {
          "name": "",
          "type": "uint8"
        }
      ],
      "payable": false,
      "type": "function"
    },
    {
      "constant": false,
      "inputs": [
        {
          "name": "_newController",
          "type": "address"
        }
      ],
      "name": "changeController",
      "outputs": [],
      "payable": false,
      "type": "function"
    },
    {
      "constant": true,
      "inputs": [
        {
          "name": "_owner",
          "type": "address"
        },
        {
          "name": "_blockNumber",
          "type": "uint256"
        }
      ],
      "name": "balanceOfAt",
      "outputs": [
        {
          "name": "",
          "type": "uint256"
        }
      ],
      "payable": false,
      "type": "function"
    },
    {
      "constant": true,
      "inputs": [],
      "name": "version",
      "outputs": [
        {
          "name": "",
          "type": "string"
        }
      ],
      "payable": false,
      "type": "function"
    },
    {
      "constant": false,
      "inputs": [
        {
          "name": "_cloneTokenName",
          "type": "string"
        },
        {
          "name": "_cloneDecimalUnits",
          "type": "uint8"
        },
        {
          "name": "_cloneTokenSymbol",
          "type": "string"
        },
        {
          "name": "_snapshotBlock",
          "type": "uint256"
        },
        {
          "name": "_transfersEnabled",
          "type": "bool"
        }
      ],
      "name": "createCloneToken",
      "outputs": [
        {
          "name": "",
          "type": "address"
        }
      ],
      "payable": false,
      "type": "function"
    },
    {
      "constant": true,
      "inputs": [
        {
          "name": "_owner",
          "type": "address"
        }
      ],
      "name": "balanceOf",
      "outputs": [
        {
          "name": "balance",
          "type": "uint256"
        }
      ],
      "payable": false,
      "type": "function"
    },
    {
      "constant": true,
      "inputs": [],
      "name": "parentToken",
      "outputs": [
        {
          "name": "",
          "type": "address"
        }
      ],
      "payable": false,
      "type": "function"
    },
    {
      "constant": false,
      "inputs": [
        {
          "name": "_owner",
          "type": "address"
        },
        {
          "name": "_amount",
          "type": "uint256"
        }
      ],
      "name": "generateTokens",
      "outputs": [
        {
          "name": "",
          "type": "bool"
        }
      ],
      "payable": false,
      "type": "function"
    },
    {
      "constant": true,
      "inputs": [],
      "name": "symbol",
      "outputs": [
        {
          "name": "",
          "type": "string"
        }
      ],
      "payable": false,
      "type": "function"
    },
    {
      "constant": true,
      "inputs": [
        {
          "name": "_blockNumber",
          "type": "uint256"
        }
      ],
      "name": "totalSupplyAt",
      "outputs": [
        {
          "name": "",
          "type": "uint256"
        }
      ],
      "payable": false,
      "type": "function"
    },
    {
      "constant": false,
      "inputs": [
        {
          "name": "_to",
          "type": "address"
        },
        {
          "name": "_amount",
          "type": "uint256"
        }
      ],
      "name": "transfer",
      "outputs": [
        {
          "name": "success",
          "type": "bool"
        }
      ],
      "payable": false,
      "type": "function"
    },
    {
      "constant": true,
      "inputs": [],
      "name": "transfersEnabled",
      "outputs": [
        {
          "name": "",
          "type": "bool"
        }
      ],
      "payable": false,
      "type": "function"
    },
    {
      "constant": true,
      "inputs": [],
      "name": "parentSnapShotBlock",
      "outputs": [
        {
          "name": "",
          "type": "uint256"
        }
      ],
      "payable": false,
      "type": "function"
    },
    {
      "constant": false,
      "inputs": [
        {
          "name": "_spender",
          "type": "address"
        },
        {
          "name": "_amount",
          "type": "uint256"
        },
        {
          "name": "_extraData",
          "type": "bytes"
        }
      ],
      "name": "approveAndCall",
      "outputs": [
        {
          "name": "success",
          "type": "bool"
        }
      ],
      "payable": false,
      "type": "function"
    },
    {
      "constant": false,
      "inputs": [
        {
          "name": "_owner",
          "type": "address"
        },
        {
          "name": "_amount",
          "type": "uint256"
        }
      ],
      "name": "destroyTokens",
      "outputs": [
        {
          "name": "",
          "type": "bool"
        }
      ],
      "payable": false,
      "type": "function"
    },
    {
      "constant": true,
      "inputs": [
        {
          "name": "_owner",
          "type": "address"
        },
        {
          "name": "_spender",
          "type": "address"
        }
      ],
      "name": "allowance",
      "outputs": [
        {
          "name": "remaining",
          "type": "uint256"
        }
      ],
      "payable": false,
      "type": "function"
    },
    {
      "constant": false,
      "inputs": [
        {
          "name": "_token",
          "type": "address"
        }
      ],
      "name": "claimTokens",
      "outputs": [],
      "payable": false,
      "type": "function"
    },
    {
      "constant": true,
      "inputs": [],
      "name": "tokenFactory",
      "outputs": [
        {
          "name": "",
          "type": "address"
        }
      ],
      "payable": false,
      "type": "function"
    },
    {
      "constant": false,
      "inputs": [
        {
          "name": "_transfersEnabled",
          "type": "bool"
        }
      ],
      "name": "enableTransfers",
      "outputs": [],
      "payable": false,
      "type": "function"
    },
    {
      "constant": true,
      "inputs": [],
      "name": "controller",
      "outputs": [
        {
          "name": "",
          "type": "address"
        }
      ],
      "payable": false,
      "type": "function"
    },
    {
      "inputs": [
        {
          "name": "_tokenFactory",
          "type": "address"
        }
      ],
      "payable": false,
      "type": "constructor"
    },
    {
      "payable": true,
      "type": "fallback"
    },
    {
      "anonymous": false,
      "inputs": [
        {
          "indexed": true,
          "name": "_token",
          "type": "address"
        },
        {
          "indexed": true,
          "name": "_controller",
          "type": "address"
        },
        {
          "indexed": false,
          "name": "_amount",
          "type": "uint256"
        }
      ],
      "name": "ClaimedTokens",
      "type": "event"
    },
    {
      "anonymous": false,
      "inputs": [
        {
          "indexed": true,
          "name": "_from",
          "type": "address"
        },
        {
          "indexed": true,
          "name": "_to",
          "type": "address"
        },
        {
          "indexed": false,
          "name": "_amount",
          "type": "uint256"
        }
      ],
      "name": "Transfer",
      "type": "event"
    },
    {
      "anonymous": false,
      "inputs": [
        {
          "indexed": true,
          "name": "_cloneToken",
          "type": "address"
        },
        {
          "indexed": false,
          "name": "_snapshotBlock",
          "type": "uint256"
        }
      ],
      "name": "NewCloneToken",
      "type": "event"
    },
    {
      "anonymous": false,
      "inputs": [
        {
          "indexed": true,
          "name": "_owner",
          "type": "address"
        },
        {
          "indexed": true,
          "name": "_spender",
          "type": "address"
        },
        {
          "indexed": false,
          "name": "_amount",
          "type": "uint256"
        }
      ],
      "name": "Approval",
      "type": "event"
    }
  ],
  "bytecode": "0x606060405260408051908101604052600781527f4d4d545f302e3100000000000000000000000000000000000000000000000000602082015260049080516200004d929160200190620001bb565b5034156200005a57600080fd5b60405160208062001e08833981016040528080519150505b806000806040805190810160405280601281526020017f536f6c617220546f6b656e2054616977616e0000000000000000000000000000815250601260408051908101604052600481527f5354545700000000000000000000000000000000000000000000000000000000602082015260015b5b60008054600160a060020a03191633600160a060020a03161790555b600b805461010060a860020a031916610100600160a060020a038a1602179055600184805162000137929160200190620001bb565b506002805460ff191660ff851617905560038280516200015c929160200190620001bb565b5060058054600160a060020a031916600160a060020a0388161790556006859055600b805460ff1916821515179055620001a3640100000000620001b681026200168b1704565b6007555b505050505050505b5062000265565b435b90565b828054600181600116156101000203166002900490600052602060002090601f016020900481019282601f10620001fe57805160ff19168380011785556200022e565b828001600101855582156200022e579182015b828111156200022e57825182559160200191906001019062000211565b5b506200023d92915062000241565b5090565b620001b891905b808211156200023d576000815560010162000248565b5090565b90565b611b9380620002756000396000f3006060604052361561012d5763ffffffff60e060020a60003504166306fdde0381146101d8578063095ea7b314610263578063176345141461029957806318160ddd146102be57806323b872dd146102e3578063313ce5671461031f5780633cebb823146103485780634ee2cd7e1461036957806354fd4d501461039d5780636638c0871461042857806370a08231146104ec57806380a540011461051d578063827f32c01461054c57806395d89b4114610582578063981b24d01461060d578063a9059cbb14610635578063bef97c871461066b578063c5bcc4f114610692578063cae9ca51146106b7578063d3ce77fe14610730578063dd62ed3e14610766578063df8de3e71461079d578063e77772fe146107be578063f41e60c5146107ed578063f77c479114610807575b5b60005461014390600160a060020a0316610836565b156101d05760008054600160a060020a03169063f48c305490349033906040516020015260405160e060020a63ffffffff8516028152600160a060020a0390911660048201526024016020604051808303818588803b15156101a457600080fd5b6125ee5a03f115156101b557600080fd5b505050506040518051905015156101cb57600080fd5b6101d5565b600080fd5b5b005b34156101e357600080fd5b6101eb610863565b60405160208082528190810183818151815260200191508051906020019080838360005b838110156102285780820151818401525b60200161020f565b50505050905090810190601f1680156102555780820380516001836020036101000a031916815260200191505b509250505060405180910390f35b341561026e57600080fd5b610285600160a060020a0360043516602435610901565b604051901515815260200160405180910390f35b34156102a457600080fd5b6102ac610a6d565b60405190815260200160405180910390f35b34156102c957600080fd5b6102ac610a73565b60405190815260200160405180910390f35b34156102ee57600080fd5b610285600160a060020a0360043581169060243516604435610a8b565b604051901515815260200160405180910390f35b341561032a57600080fd5b610332610b2d565b60405160ff909116815260200160405180910390f35b341561035357600080fd5b6101d5600160a060020a0360043516610b36565b005b341561037457600080fd5b6102ac600160a060020a0360043516602435610b7e565b60405190815260200160405180910390f35b34156103a857600080fd5b6101eb610cc4565b60405160208082528190810183818151815260200191508051906020019080838360005b838110156102285780820151818401525b60200161020f565b50505050905090810190601f1680156102555780820380516001836020036101000a031916815260200191505b509250505060405180910390f35b341561043357600080fd5b6104d060046024813581810190830135806020601f8201819004810201604051908101604052818152929190602084018383808284378201915050505050509190803560ff1690602001909190803590602001908201803590602001908080601f016020809104026020016040519081016040528181529291906020840183838082843750949650508435946020013515159350610d6292505050565b604051600160a060020a03909116815260200160405180910390f35b34156104f757600080fd5b6102ac600160a060020a0360043516610f99565b60405190815260200160405180910390f35b341561052857600080fd5b6104d0610fb4565b604051600160a060020a03909116815260200160405180910390f35b341561055757600080fd5b610285600160a060020a0360043516602435610fc3565b604051901515815260200160405180910390f35b341561058d57600080fd5b6101eb61109e565b60405160208082528190810183818151815260200191508051906020019080838360005b838110156102285780820151818401525b60200161020f565b50505050905090810190601f1680156102555780820380516001836020036101000a031916815260200191505b509250505060405180910390f35b341561061857600080fd5b6102ac60043561113c565b60405190815260200160405180910390f35b341561064057600080fd5b610285600160a060020a0360043516602435611234565b604051901515815260200160405180910390f35b341561067657600080fd5b61028561125c565b604051901515815260200160405180910390f35b341561069d57600080fd5b6102ac611265565b60405190815260200160405180910390f35b34156106c257600080fd5b61028560048035600160a060020a03169060248035919060649060443590810190830135806020601f8201819004810201604051908101604052818152929190602084018383808284375094965061126b95505050505050565b604051901515815260200160405180910390f35b341561073b57600080fd5b610285600160a060020a0360043516602435611389565b604051901515815260200160405180910390f35b341561077157600080fd5b6102ac600160a060020a0360043581169060243516611460565b60405190815260200160405180910390f35b34156107a857600080fd5b6101d5600160a060020a036004351661148d565b005b34156107c957600080fd5b6104d061163a565b604051600160a060020a03909116815260200160405180910390f35b34156107f857600080fd5b6101d5600435151561164e565b005b341561081257600080fd5b6104d061167c565b604051600160a060020a03909116815260200160405180910390f35b600080600160a060020a0383161515610852576000915061085d565b823b90506000811191505b50919050565b60018054600181600116156101000203166002900480601f0160208091040260200160405190810160405280929190818152602001828054600181600116156101000203166002900480156108f95780601f106108ce576101008083540402835291602001916108f9565b820191906000526020600020905b8154815290600101906020018083116108dc57829003601f168201915b505050505081565b600b5460009060ff16151561091557600080fd5b81158015906109485750600160a060020a0333811660009081526009602090815260408083209387168352929052205415155b1561095257600080fd5b60005461096790600160a060020a0316610836565b15610a025760008054600160a060020a03169063da682aeb903390869086906040516020015260405160e060020a63ffffffff8616028152600160a060020a0393841660048201529190921660248201526044810191909152606401602060405180830381600087803b15156109dc57600080fd5b6102c65a03f115156109ed57600080fd5b505050604051805190501515610a0257600080fd5b5b600160a060020a03338116600081815260096020908152604080832094881680845294909152908190208590557f8c5be1e5ebec7d5bd14f71427d1e84f3dd0314c0f7b2291e5b200ac8c7c3b9259085905190815260200160405180910390a35060015b92915050565b60075481565b6000610a85610a8061168b565b61113c565b90505b90565b6000805433600160a060020a03908116911614610b1857600b5460ff161515610ab357600080fd5b600160a060020a038085166000908152600960209081526040808320339094168352929052205482901015610aea57506000610b26565b600160a060020a03808516600090815260096020908152604080832033909416835292905220805483900390555b610b23848484611690565b90505b9392505050565b60025460ff1681565b60005433600160a060020a03908116911614610b5157600080fd5b6000805473ffffffffffffffffffffffffffffffffffffffff1916600160a060020a0383161790555b5b50565b600160a060020a0382166000908152600860205260408120541580610bde5750600160a060020a038316600090815260086020526040812080548492908110610bc357fe5b906000526020600020900160005b50546001608060020a0316115b15610c9457600554600160a060020a031615610c8757600554600654600160a060020a0390911690634ee2cd7e908590610c1990869061187e565b60006040516020015260405160e060020a63ffffffff8516028152600160a060020a0390921660048301526024820152604401602060405180830381600087803b1515610c6557600080fd5b6102c65a03f11515610c7657600080fd5b505050604051805190509050610a67565b506000610a67565b610a67565b600160a060020a0383166000908152600860205260409020610cb69083611898565b9050610a67565b5b92915050565b60048054600181600116156101000203166002900480601f0160208091040260200160405190810160405280929190818152602001828054600181600116156101000203166002900480156108f95780601f106108ce576101008083540402835291602001916108f9565b820191906000526020600020905b8154815290600101906020018083116108dc57829003601f168201915b505050505081565b600080831515610d7757610d7461168b565b93505b600b546101009004600160a060020a0316635b7b72c130868a8a8a8960006040516020015260405160e060020a63ffffffff8916028152600160a060020a038716600482019081526024820187905260ff8516606483015282151560a483015260c0604483019081529091608481019060c40187818151815260200191508051906020019080838360005b83811015610e1b5780820151818401525b602001610e02565b50505050905090810190601f168015610e485780820380516001836020036101000a031916815260200191505b50838103825285818151815260200191508051906020019080838360005b83811015610e7f5780820151818401525b602001610e66565b50505050905090810190601f168015610eac5780820380516001836020036101000a031916815260200191505b5098505050505050505050602060405180830381600087803b1515610ed057600080fd5b6102c65a03f11515610ee157600080fd5b5050506040518051915050600160a060020a038116633cebb8233360405160e060020a63ffffffff8416028152600160a060020a039091166004820152602401600060405180830381600087803b1515610f3a57600080fd5b6102c65a03f11515610f4b57600080fd5b50505080600160a060020a03167f086c875b377f900b07ce03575813022f05dd10ed7640b5282cf6d3c3fc352ade8560405190815260200160405180910390a28091505b5095945050505050565b6000610fac82610fa761168b565b610b7e565b90505b919050565b600554600160a060020a031681565b600080548190819033600160a060020a03908116911614610fe357600080fd5b610ff5600a610ff061168b565b611898565b915081848301101561100657600080fd5b611013600a858401611a0c565b61101c85610f99565b905080848201101561102d57600080fd5b600160a060020a038516600090815260086020526040902061105190828601611a0c565b84600160a060020a031660007fddf252ad1be2c89b69c2b068fc378daa952ba7f163c4a11628f55a4df523b3ef8660405190815260200160405180910390a3600192505b5b505092915050565b60038054600181600116156101000203166002900480601f0160208091040260200160405190810160405280929190818152602001828054600181600116156101000203166002900480156108f95780601f106108ce576101008083540402835291602001916108f9565b820191906000526020600020905b8154815290600101906020018083116108dc57829003601f168201915b505050505081565b600a546000901580611175575081600a600081548110151561115a57fe5b906000526020600020900160005b50546001608060020a0316115b1561121c57600554600160a060020a03161561120f57600554600654600160a060020a039091169063981b24d0906111ae90859061187e565b60006040516020015260405160e060020a63ffffffff84160281526004810191909152602401602060405180830381600087803b15156111ed57600080fd5b6102c65a03f115156111fe57600080fd5b505050604051805190509050610faf565b506000610faf565b610faf565b611227600a83611898565b9050610faf565b5b919050565b600b5460009060ff16151561124857600080fd5b611253338484611690565b90505b92915050565b600b5460ff1681565b60065481565b60006112778484610901565b151561128257600080fd5b83600160a060020a0316638f4ffcb1338530866040518563ffffffff1660e060020a0281526004018085600160a060020a0316600160a060020a0316815260200184815260200183600160a060020a0316600160a060020a0316815260200180602001828103825283818151815260200191508051906020019080838360005b8381101561131b5780820151818401525b602001611302565b50505050905090810190601f1680156113485780820380516001836020036101000a031916815260200191505b5095505050505050600060405180830381600087803b151561136957600080fd5b6102c65a03f1151561137a57600080fd5b505050600190505b9392505050565b600080548190819033600160a060020a039081169116146113a957600080fd5b6113bb600a610ff061168b565b611898565b9150838210156113ca57600080fd5b6113d7600a858403611a0c565b6113e085610f99565b9050838110156113ef57600080fd5b600160a060020a038516600090815260086020526040902061141390858303611a0c565b600085600160a060020a03167fddf252ad1be2c89b69c2b068fc378daa952ba7f163c4a11628f55a4df523b3ef8660405190815260200160405180910390a3600192505b5b505092915050565b600160a060020a038083166000908152600960209081526040808320938516835292905220545b92915050565b60008054819033600160a060020a039081169116146114ab57600080fd5b600160a060020a03831615156114f957600054600160a060020a039081169030163180156108fc0290604051600060405180830381858888f1935050505015156114f457600080fd5b611634565b82915081600160a060020a03166370a082313060006040516020015260405160e060020a63ffffffff8416028152600160a060020a039091166004820152602401602060405180830381600087803b151561155357600080fd5b6102c65a03f1151561156457600080fd5b505050604051805160008054919350600160a060020a03808616935063a9059cbb92169084906040516020015260405160e060020a63ffffffff8516028152600160a060020a0390921660048301526024820152604401602060405180830381600087803b15156115d457600080fd5b6102c65a03f115156115e557600080fd5b50505060405180515050600054600160a060020a039081169084167ff931edb47c50b4b4104c187b5814a9aef5f709e17e2ecf9617e860cacade929c8360405190815260200160405180910390a35b5b505050565b600b546101009004600160a060020a031681565b60005433600160a060020a0390811691161461166957600080fd5b600b805460ff19168215151790555b5b50565b600054600160a060020a031681565b435b90565b600080808315156116a45760019250611875565b6116ac61168b565b600654106116b957600080fd5b600160a060020a03851615806116e0575030600160a060020a031685600160a060020a0316145b156116ea57600080fd5b6116fb86610fa761168b565b610b7e565b91508382101561170e5760009250611875565b60005461172390600160a060020a0316610836565b156117be5760008054600160a060020a031690634a393149908890889088906040516020015260405160e060020a63ffffffff8616028152600160a060020a0393841660048201529190921660248201526044810191909152606401602060405180830381600087803b151561179857600080fd5b6102c65a03f115156117a957600080fd5b5050506040518051905015156117be57600080fd5b5b600160a060020a03861660009081526008602052604090206117e390858403611a0c565b6117f485610fa761168b565b610b7e565b905080848201101561180557600080fd5b600160a060020a038516600090815260086020526040902061182990828601611a0c565b84600160a060020a031686600160a060020a03167fddf252ad1be2c89b69c2b068fc378daa952ba7f163c4a11628f55a4df523b3ef8660405190815260200160405180910390a3600192505b50509392505050565b600081831061188d5781611253565b825b90505b92915050565b6000806000808580549050600014156118b45760009350611a03565b8554869060001981019081106118c657fe5b906000526020600020900160005b50546001608060020a0316851061192b578554869060001981019081106118f757fe5b906000526020600020900160005b505470010000000000000000000000000000000090046001608060020a03169350611a03565b85600081548110151561193a57fe5b906000526020600020900160005b50546001608060020a03168510156119635760009350611a03565b8554600093506000190191505b828211156119c55760026001838501015b04905084868281548110151561199357fe5b906000526020600020900160005b50546001608060020a0316116119b9578092506119c0565b6001810391505b611970565b85838154811015156119d357fe5b906000526020600020900160005b505470010000000000000000000000000000000090046001608060020a031693505b50505092915050565b815460009081901580611a4f5750611a2261168b565b845485906000198101908110611a3457fe5b906000526020600020900160005b50546001608060020a0316105b15611acc5783548490611a658260018301611b1c565b81548110611a6f57fe5b906000526020600020900160005b509150611a8861168b565b82546fffffffffffffffffffffffffffffffff19166001608060020a0391821617811670010000000000000000000000000000000091851691909102178255611b15565b835484906000198101908110611ade57fe5b906000526020600020900160005b5080546001608060020a0380861670010000000000000000000000000000000002911617815590505b5b50505050565b81548183558181151161163457600083815260209020611634918101908301611b46565b5b505050565b610a8891905b80821115611b605760008155600101611b4c565b5090565b905600a165627a7a72305820280d2d8383b20dc3f8a6d3e56f2edf95fa3f05dc320e4177f4df01c0661808820029",
  "source": "pragma solidity ^0.4.15;\n\nimport \"./MiniMeToken.sol\";\n\ncontract STTW is MiniMeToken {\n  function STTW(address _tokenFactory) MiniMeToken(\n      _tokenFactory,\n      0x0,\n      0,\n      \"Solar Token Taiwan\",\n      18,\n      \"STTW\",\n      true\n    ){}\n}\n",
  "sourcePath": "/Users/iisaint/Workspace/Solar-ICO/sola-token/contracts/STTW.sol",
  "schemaVersion": "1.0.0",
  "updatedAt": "2017-11-03T16:42:43.661Z"
}